{
  "contractName": "APIConsumer",
  "abi": [
    {
      "inputs": [],
      "stateMutability": "nonpayable",
      "type": "constructor"
    },
    {
      "anonymous": false,
      "inputs": [
        {
          "indexed": true,
          "internalType": "bytes32",
          "name": "id",
          "type": "bytes32"
        }
      ],
      "name": "ChainlinkCancelled",
      "type": "event"
    },
    {
      "anonymous": false,
      "inputs": [
        {
          "indexed": true,
          "internalType": "bytes32",
          "name": "id",
          "type": "bytes32"
        }
      ],
      "name": "ChainlinkFulfilled",
      "type": "event"
    },
    {
      "anonymous": false,
      "inputs": [
        {
          "indexed": true,
          "internalType": "bytes32",
          "name": "id",
          "type": "bytes32"
        }
      ],
      "name": "ChainlinkRequested",
      "type": "event"
    },
    {
      "anonymous": false,
      "inputs": [
        {
          "indexed": false,
          "internalType": "uint256",
          "name": "volume",
          "type": "uint256"
        }
      ],
      "name": "DataFullfilled",
      "type": "event"
    },
    {
      "inputs": [],
      "name": "fee",
      "outputs": [
        {
          "internalType": "uint256",
          "name": "",
          "type": "uint256"
        }
      ],
      "stateMutability": "view",
      "type": "function",
      "constant": true
    },
    {
      "inputs": [],
      "name": "jobId",
      "outputs": [
        {
          "internalType": "bytes32",
          "name": "",
          "type": "bytes32"
        }
      ],
      "stateMutability": "view",
      "type": "function",
      "constant": true
    },
    {
      "inputs": [],
      "name": "oracle",
      "outputs": [
        {
          "internalType": "address",
          "name": "",
          "type": "address"
        }
      ],
      "stateMutability": "view",
      "type": "function",
      "constant": true
    },
    {
      "inputs": [],
      "name": "volume",
      "outputs": [
        {
          "internalType": "uint256",
          "name": "",
          "type": "uint256"
        }
      ],
      "stateMutability": "view",
      "type": "function",
      "constant": true
    },
    {
      "inputs": [],
      "name": "requestVolumeData",
      "outputs": [
        {
          "internalType": "bytes32",
          "name": "requestId",
          "type": "bytes32"
        }
      ],
      "stateMutability": "nonpayable",
      "type": "function"
    },
    {
      "inputs": [
        {
          "internalType": "bytes32",
          "name": "_requestId",
          "type": "bytes32"
        },
        {
          "internalType": "uint256",
          "name": "_volume",
          "type": "uint256"
        }
      ],
      "name": "fulfill",
      "outputs": [],
      "stateMutability": "nonpayable",
      "type": "function"
    }
  ],
  "bytecode": "0x6080604052600160045534801561001557600080fd5b5061003973238bda11edc5cb0fc96a53a6c3953a6415793e966100c860201b60201c565b7206f26f6489ea3b3f58bcdafb65271a30130fdb600760006101000a81548173ffffffffffffffffffffffffffffffffffffffff021916908373ffffffffffffffffffffffffffffffffffffffff1602179055507f636237346530363533356637343461383839323262303031333838623134633360088190555067016345785d8a000060098190555061010c565b80600260006101000a81548173ffffffffffffffffffffffffffffffffffffffff021916908373ffffffffffffffffffffffffffffffffffffffff16021790555050565b6117628061011b6000396000f3fe608060405234801561001057600080fd5b50600436106100625760003560e01c80634357855e146100675780636021abac146100835780637dc0d1d0146100a1578063c2939d97146100bf578063c618a1e4146100dd578063ddca3f43146100fb575b600080fd5b610081600480360381019061007c9190610ee2565b610119565b005b61008b610263565b6040516100989190610f31565b60405180910390f35b6100a96103ea565b6040516100b69190610f8d565b60405180910390f35b6100c7610410565b6040516100d49190610f31565b60405180910390f35b6100e5610416565b6040516100f29190610fb7565b60405180910390f35b61010361041c565b6040516101109190610fb7565b60405180910390f35b816005600082815260200190815260200160002060009054906101000a900473ffffffffffffffffffffffffffffffffffffffff1673ffffffffffffffffffffffffffffffffffffffff163373ffffffffffffffffffffffffffffffffffffffff16146101bb576040517f08c379a00000000000000000000000000000000000000000000000000000000081526004016101b290611055565b60405180910390fd5b6005600082815260200190815260200160002060006101000a81549073ffffffffffffffffffffffffffffffffffffffff0219169055807f7cc135e0cebb02c3480ae5d74d377283180a2601f8f644edf7987b009316c63a60405160405180910390a2816006819055507f221d507243adddffe789060be0e69bff4be830996c6b265bfda5083d86f886326006546040516102569190610fb7565b60405180910390a1505050565b60008061027a60085430634357855e60e01b610422565b90506102de6040518060400160405280600381526020017f67657400000000000000000000000000000000000000000000000000000000008152506040518060800160405280604981526020016116e460499139836104539092919063ffffffff16565b61035d6040518060400160405280600481526020017f70617468000000000000000000000000000000000000000000000000000000008152506040518060400160405280601881526020017f5241572c4554482c5553442c564f4c554d453234484f55520000000000000000815250836104539092919063ffffffff16565b6000670de0b6b3a764000090506103b46040518060400160405280600581526020017f74696d657300000000000000000000000000000000000000000000000000000081525082846104869092919063ffffffff16565b6103e3600760009054906101000a900473ffffffffffffffffffffffffffffffffffffffff16836009546104b9565b9250505090565b600760009054906101000a900473ffffffffffffffffffffffffffffffffffffffff1681565b60085481565b60065481565b60095481565b61042a610dea565b610432610dea565b61044985858584610585909392919063ffffffff16565b9150509392505050565b61046a82846080015161063590919063ffffffff16565b61048181846080015161063590919063ffffffff16565b505050565b61049d82846080015161063590919063ffffffff16565b6104b481846080015161065a90919063ffffffff16565b505050565b60008060045490506001816104ce91906110a4565b6004819055506000634042994660e01b60008087600001513089604001518760018c608001516000015160405160240161050f9897969594939291906111a3565b604051602081830303815290604052907bffffffffffffffffffffffffffffffffffffffffffffffffffffffff19166020820180517bffffffffffffffffffffffffffffffffffffffffffffffffffffffff8381831617835250505050905061057a86838684610707565b925050509392505050565b61058d610dea565b61059d856080015161010061089c565b508385600001818152505082856020019073ffffffffffffffffffffffffffffffffffffffff16908173ffffffffffffffffffffffffffffffffffffffff16815250508185604001907bffffffffffffffffffffffffffffffffffffffffffffffffffffffff191690817bffffffffffffffffffffffffffffffffffffffffffffffffffffffff191681525050849050949350505050565b6106428260038351610906565b6106558183610a8b90919063ffffffff16565b505050565b7fffffffffffffffffffffffffffffffffffffffffffffffff00000000000000008112156106915761068c8282610aad565b610703565b67ffffffffffffffff8113156106b0576106ab8282610b24565b610702565b600081126106c9576106c482600083610906565b610701565b610700826001837fffffffffffffffffffffffffffffffffffffffffffffffffffffffffffffffff6106fb9190611232565b610906565b5b5b5b5050565b6000308460405160200161071c92919061132e565b604051602081830303815290604052805190602001209050846005600083815260200190815260200160002060006101000a81548173ffffffffffffffffffffffffffffffffffffffff021916908373ffffffffffffffffffffffffffffffffffffffff160217905550807fb5e6e01e79f91267dc17b4e6314d5d4d03593d2ceee0fbb452b750bd70ea5af960405160405180910390a2600260009054906101000a900473ffffffffffffffffffffffffffffffffffffffff1673ffffffffffffffffffffffffffffffffffffffff16634000aea08685856040518463ffffffff1660e01b81526004016108129392919061135a565b6020604051808303816000875af1158015610831573d6000803e3d6000fd5b505050506040513d601f19601f8201168201806040525081019061085591906113d0565b610894576040517f08c379a000000000000000000000000000000000000000000000000000000000815260040161088b9061146f565b60405180910390fd5b949350505050565b6108a4610e57565b60006020836108b391906114be565b146108df576020826108c591906114be565b60206108d191906114ef565b826108dc91906110a4565b91505b81836020018181525050604051808452600081528281016020016040525082905092915050565b60178167ffffffffffffffff161161093d576109378160058460ff16901b60ff161784610b7090919063ffffffff16565b50610a86565b60ff8167ffffffffffffffff16116109935761096c601860058460ff16901b1784610b7090919063ffffffff16565b5061098d8167ffffffffffffffff16600185610b909092919063ffffffff16565b50610a85565b61ffff8167ffffffffffffffff16116109ea576109c3601960058460ff16901b1784610b7090919063ffffffff16565b506109e48167ffffffffffffffff16600285610b909092919063ffffffff16565b50610a84565b63ffffffff8167ffffffffffffffff1611610a4357610a1c601a60058460ff16901b1784610b7090919063ffffffff16565b50610a3d8167ffffffffffffffff16600485610b909092919063ffffffff16565b50610a83565b610a60601b60058460ff16901b1784610b7090919063ffffffff16565b50610a818167ffffffffffffffff16600885610b909092919063ffffffff16565b505b5b5b5b505050565b610a93610e57565b610aa583846000015151848551610bb2565b905092915050565b610acb60036005600660ff16901b1783610b7090919063ffffffff16565b50610b2082827fffffffffffffffffffffffffffffffffffffffffffffffffffffffffffffffff610afc9190611232565b604051602001610b0c9190610fb7565b604051602081830303815290604052610ca1565b5050565b610b4260026005600660ff16901b1783610b7090919063ffffffff16565b50610b6c8282604051602001610b589190610fb7565b604051602081830303815290604052610ca1565b5050565b610b78610e57565b610b888384600001515184610cc6565b905092915050565b610b98610e57565b610ba9848560000151518585610d1c565b90509392505050565b610bba610e57565b8251821115610bc857600080fd5b84602001518285610bd991906110a4565b1115610c0e57610c0d856002610bfe88602001518887610bf991906110a4565b610daa565b610c089190611523565b610dc6565b5b600080865180518760208301019350808887011115610c2d5787860182525b60208701925050505b60208410610c745780518252602082610c4f91906110a4565b9150602081610c5e91906110a4565b9050602084610c6d91906114ef565b9350610c36565b60006001856020036101000a03905080198251168184511681811785525050508692505050949350505050565b610cae8260028351610906565b610cc18183610a8b90919063ffffffff16565b505050565b610cce610e57565b83602001518310610cf457610cf38460028660200151610cee9190611523565b610dc6565b5b83518051602085830101848153818603610d0f576001820183525b5050508390509392505050565b610d24610e57565b84602001518483610d3591906110a4565b1115610d5d57610d5c8560028685610d4d91906110a4565b610d579190611523565b610dc6565b5b6000600183610100610d6f9190611698565b610d7991906114ef565b90508551838682010185831982511617815281518588011115610d9c5784870182525b505085915050949350505050565b600081831115610dbc57829050610dc0565b8190505b92915050565b600082600001519050610dd9838361089c565b50610de48382610a8b565b50505050565b6040518060a0016040528060008019168152602001600073ffffffffffffffffffffffffffffffffffffffff16815260200160007bffffffffffffffffffffffffffffffffffffffffffffffffffffffff1916815260200160008152602001610e51610e57565b81525090565b604051806040016040528060608152602001600081525090565b600080fd5b6000819050919050565b610e8981610e76565b8114610e9457600080fd5b50565b600081359050610ea681610e80565b92915050565b6000819050919050565b610ebf81610eac565b8114610eca57600080fd5b50565b600081359050610edc81610eb6565b92915050565b60008060408385031215610ef957610ef8610e71565b5b6000610f0785828601610e97565b9250506020610f1885828601610ecd565b9150509250929050565b610f2b81610e76565b82525050565b6000602082019050610f466000830184610f22565b92915050565b600073ffffffffffffffffffffffffffffffffffffffff82169050919050565b6000610f7782610f4c565b9050919050565b610f8781610f6c565b82525050565b6000602082019050610fa26000830184610f7e565b92915050565b610fb181610eac565b82525050565b6000602082019050610fcc6000830184610fa8565b92915050565b600082825260208201905092915050565b7f536f75726365206d75737420626520746865206f7261636c65206f662074686560008201527f2072657175657374000000000000000000000000000000000000000000000000602082015250565b600061103f602883610fd2565b915061104a82610fe3565b604082019050919050565b6000602082019050818103600083015261106e81611032565b9050919050565b7f4e487b7100000000000000000000000000000000000000000000000000000000600052601160045260246000fd5b60006110af82610eac565b91506110ba83610eac565b92508282019050808211156110d2576110d1611075565b5b92915050565b60007fffffffff0000000000000000000000000000000000000000000000000000000082169050919050565b61110d816110d8565b82525050565b600081519050919050565b600082825260208201905092915050565b60005b8381101561114d578082015181840152602081019050611132565b60008484015250505050565b6000601f19601f8301169050919050565b600061117582611113565b61117f818561111e565b935061118f81856020860161112f565b61119881611159565b840191505092915050565b6000610100820190506111b9600083018b610f7e565b6111c6602083018a610fa8565b6111d36040830189610f22565b6111e06060830188610f7e565b6111ed6080830187611104565b6111fa60a0830186610fa8565b61120760c0830185610fa8565b81810360e0830152611219818461116a565b90509998505050505050505050565b6000819050919050565b600061123d82611228565b915061124883611228565b925082820390508181126000841216828213600085121516171561126f5761126e611075565b5b92915050565b6000819050919050565b600061129a61129561129084610f4c565b611275565b610f4c565b9050919050565b60006112ac8261127f565b9050919050565b60006112be826112a1565b9050919050565b60008160601b9050919050565b60006112dd826112c5565b9050919050565b60006112ef826112d2565b9050919050565b611307611302826112b3565b6112e4565b82525050565b6000819050919050565b61132861132382610eac565b61130d565b82525050565b600061133a82856112f6565b60148201915061134a8284611317565b6020820191508190509392505050565b600060608201905061136f6000830186610f7e565b61137c6020830185610fa8565b818103604083015261138e818461116a565b9050949350505050565b60008115159050919050565b6113ad81611398565b81146113b857600080fd5b50565b6000815190506113ca816113a4565b92915050565b6000602082840312156113e6576113e5610e71565b5b60006113f4848285016113bb565b91505092915050565b7f756e61626c6520746f207472616e73666572416e6443616c6c20746f206f726160008201527f636c650000000000000000000000000000000000000000000000000000000000602082015250565b6000611459602383610fd2565b9150611464826113fd565b604082019050919050565b600060208201905081810360008301526114888161144c565b9050919050565b7f4e487b7100000000000000000000000000000000000000000000000000000000600052601260045260246000fd5b60006114c982610eac565b91506114d483610eac565b9250826114e4576114e361148f565b5b828206905092915050565b60006114fa82610eac565b915061150583610eac565b925082820390508181111561151d5761151c611075565b5b92915050565b600061152e82610eac565b915061153983610eac565b925082820261154781610eac565b9150828204841483151761155e5761155d611075565b5b5092915050565b60008160011c9050919050565b6000808291508390505b60018511156115bc5780860481111561159857611597611075565b5b60018516156115a75780820291505b80810290506115b585611565565b945061157c565b94509492505050565b6000826115d55760019050611691565b816115e35760009050611691565b81600181146115f9576002811461160357611632565b6001915050611691565b60ff84111561161557611614611075565b5b8360020a91508482111561162c5761162b611075565b5b50611691565b5060208310610133831016604e8410600b84101617156116675782820a90508381111561166257611661611075565b5b611691565b6116748484846001611572565b9250905081840481111561168b5761168a611075565b5b81810290505b9392505050565b60006116a382610eac565b91506116ae83610eac565b92506116db7fffffffffffffffffffffffffffffffffffffffffffffffffffffffffffffffff84846115c5565b90509291505056fe68747470733a2f2f6d696e2d6170692e63727970746f636f6d706172652e636f6d2f646174612f70726963656d756c746966756c6c3f6673796d733d455448267473796d733d555344a264697066735822122096e3dfcb615953ce9e27d240bb0d415cff73fb4ad13b880441ba21eed7bfb03464736f6c63430008130033",
  "immutableReferences": {},
  "source": "// SPDX-License-Identifier: MIT\npragma solidity 0.8.19;\n\nimport \"@chainlink/contracts/src/v0.8/ChainlinkClient.sol\";\n\ncontract APIConsumer is ChainlinkClient {\n    using Chainlink for Chainlink.Request;\n    uint256 public volume;\n    address public oracle;\n    bytes32 public jobId;\n    uint256 public fee;\n\n    event DataFullfilled(uint256 volume);\n\n    constructor(\n        // address _oracle,\n        // //bytes32 _jobId,\n        // uint256 _fee,\n        // address _link\n    ) {\n        // if (_link == address(0)) {\n        //     //setPublicChainlinkToken();\n        //     setChainlinkToken(0x238BDA11EDC5CB0fC96a53A6c3953a6415793e96);\n        // } else {\n        //     setChainlinkToken(_link);\n        // }\n        setChainlinkToken(0x238BDA11EDC5CB0fC96a53A6c3953a6415793e96);\n        oracle = 0x0006f26f6489eA3b3f58BCDaFb65271a30130FdB;\n        //jobId = stringToBytes32(_jobId);\n        jobId = \"cb74e06535f744a88922b001388b14c3\";\n        //fee = _fee;\n        fee = 0.1 * 10 ** 18; // 0.1 LINK\n    }\n\n    /**\n     * Create a Chainlink request to retrieve API response, find the target\n     * data, then multiply by 1000000000000000000 (to remove decimal places from data).\n     */\n    function requestVolumeData() public returns (bytes32 requestId) {\n        Chainlink.Request memory request = buildChainlinkRequest(\n            jobId,\n            address(this),\n            this.fulfill.selector\n        );\n\n        // Set the URL to perform the GET request on\n        request.add(\n            \"get\",\n            \"https://min-api.cryptocompare.com/data/pricemultifull?fsyms=ETH&tsyms=USD\"\n        );\n\n        // Set the path to find the desired data in the API response, where the response format is:\n        // {\"RAW\":\n        //   {\"ETH\":\n        //    {\"USD\":\n        //     {\n        //      \"VOLUME24HOUR\": xxx.xxx,\n        //     }\n        //    }\n        //   }\n        //  }\n        request.add(\"path\", \"RAW,ETH,USD,VOLUME24HOUR\");\n\n        // Multiply the result by 1000000000000000000 to remove decimals\n        int timesAmount = 10**18;\n        request.addInt(\"times\", timesAmount);\n\n        // Sends the request\n        return sendChainlinkRequestTo(oracle, request, fee);\n    }\n\n    /**\n     * Receive the response in the form of uint256\n     */\n    function fulfill(bytes32 _requestId, uint256 _volume)\n        public\n        recordChainlinkFulfillment(_requestId)\n    {\n        volume = _volume;\n        emit DataFullfilled(volume);\n    }\n\n    // function stringToBytes32(string memory source) public pure returns (bytes32 result) {\n    //     bytes memory tempEmptyStringTest = bytes(source);\n    //     if (tempEmptyStringTest.length == 0) {\n    //         return 0x0;\n    //     }\n\n    //     assembly {\n    //         result := mload(add(source, 32))\n    //     }\n    // }\n}\n",
  "sourcePath": "/media/fabric-orderer2/ethLink/Public/nodeLink/chainLink-eth/contracts/Oracle-contracts/contracts/APIConsumer.sol",
  "compiler": {
    "name": "solc",
    "version": "0.8.19+commit.7dd6d404.Emscripten.clang"
  },
  "schemaVersion": "3.4.16",
  "updatedAt": "2024-04-18T11:23:12.109Z",
  "networkType": "ethereum",
  "devdoc": {
    "kind": "dev",
    "methods": {},
    "version": 1
  },
  "userdoc": {
    "kind": "user",
    "methods": {
      "fulfill(bytes32,uint256)": {
        "notice": "Receive the response in the form of uint256"
      },
      "requestVolumeData()": {
        "notice": "Create a Chainlink request to retrieve API response, find the target data, then multiply by 1000000000000000000 (to remove decimal places from data)."
      }
    },
    "version": 1
  }
}