{
  "contractName": "ChainlinkOracle",
  "abi": [
    {
      "inputs": [
        {
          "internalType": "address",
          "name": "_link",
          "type": "address"
        },
        {
          "internalType": "address",
          "name": "_oracle",
          "type": "address"
        },
        {
          "internalType": "uint256",
          "name": "_fee",
          "type": "uint256"
        }
      ],
      "stateMutability": "nonpayable",
      "type": "constructor"
    },
    {
      "anonymous": false,
      "inputs": [
        {
          "indexed": true,
          "internalType": "bytes32",
          "name": "id",
          "type": "bytes32"
        }
      ],
      "name": "ChainlinkCancelled",
      "type": "event"
    },
    {
      "anonymous": false,
      "inputs": [
        {
          "indexed": true,
          "internalType": "bytes32",
          "name": "id",
          "type": "bytes32"
        }
      ],
      "name": "ChainlinkFulfilled",
      "type": "event"
    },
    {
      "anonymous": false,
      "inputs": [
        {
          "indexed": true,
          "internalType": "bytes32",
          "name": "id",
          "type": "bytes32"
        }
      ],
      "name": "ChainlinkRequested",
      "type": "event"
    },
    {
      "inputs": [
        {
          "internalType": "bytes32",
          "name": "_jobId",
          "type": "bytes32"
        },
        {
          "internalType": "string",
          "name": "_url",
          "type": "string"
        },
        {
          "internalType": "string",
          "name": "_path",
          "type": "string"
        }
      ],
      "name": "requestVolumeData",
      "outputs": [],
      "stateMutability": "nonpayable",
      "type": "function"
    },
    {
      "inputs": [
        {
          "internalType": "bytes32",
          "name": "_requestId",
          "type": "bytes32"
        },
        {
          "internalType": "uint256",
          "name": "_volume",
          "type": "uint256"
        }
      ],
      "name": "fulfill",
      "outputs": [],
      "stateMutability": "nonpayable",
      "type": "function"
    },
    {
      "inputs": [],
      "name": "withdrawLink",
      "outputs": [],
      "stateMutability": "nonpayable",
      "type": "function"
    }
  ],
  "bytecode": "0x60806040526001600455348015610014575f80fd5b506040516112c43803806112c483398181016040528101906100369190610240565b5f73ffffffffffffffffffffffffffffffffffffffff168373ffffffffffffffffffffffffffffffffffffffff160361007c576100776100db60201b60201c565b61008c565b61008b8361016c60201b60201c565b5b8160075f6101000a81548173ffffffffffffffffffffffffffffffffffffffff021916908373ffffffffffffffffffffffffffffffffffffffff160217905550806006819055505050506102bb565b61016a73c89bd4e1632d3a43cb03aaad5262cbe4038bc57173ffffffffffffffffffffffffffffffffffffffff166338cc48316040518163ffffffff1660e01b8152600401602060405180830381865afa15801561013b573d5f803e3d5ffd5b505050506040513d601f19601f8201168201806040525081019061015f9190610290565b61016c60201b60201c565b565b8060025f6101000a81548173ffffffffffffffffffffffffffffffffffffffff021916908373ffffffffffffffffffffffffffffffffffffffff16021790555050565b5f80fd5b5f73ffffffffffffffffffffffffffffffffffffffff82169050919050565b5f6101dc826101b3565b9050919050565b6101ec816101d2565b81146101f6575f80fd5b50565b5f81519050610207816101e3565b92915050565b5f819050919050565b61021f8161020d565b8114610229575f80fd5b50565b5f8151905061023a81610216565b92915050565b5f805f60608486031215610257576102566101af565b5b5f610264868287016101f9565b9350506020610275868287016101f9565b92505060406102868682870161022c565b9150509250925092565b5f602082840312156102a5576102a46101af565b5b5f6102b2848285016101f9565b91505092915050565b610ffc806102c85f395ff3fe608060405234801561000f575f80fd5b506004361061003f575f3560e01c80634357855e146100435780638dc654a21461005f578063da0e55fc14610069575b5f80fd5b61005d600480360381019061005891906107cf565b610085565b005b610067610189565b005b610083600480360381019061007e9190610949565b6102c8565b005b8160055f8281526020019081526020015f205f9054906101000a900473ffffffffffffffffffffffffffffffffffffffff1673ffffffffffffffffffffffffffffffffffffffff163373ffffffffffffffffffffffffffffffffffffffff1614610124576040517f08c379a000000000000000000000000000000000000000000000000000000000815260040161011b90610a51565b60405180910390fd5b60055f8281526020019081526020015f205f6101000a81549073ffffffffffffffffffffffffffffffffffffffff0219169055807f7cc135e0cebb02c3480ae5d74d377283180a2601f8f644edf7987b009316c63a60405160405180910390a2505050565b5f610192610312565b90508073ffffffffffffffffffffffffffffffffffffffff1663a9059cbb338373ffffffffffffffffffffffffffffffffffffffff166370a08231306040518263ffffffff1660e01b81526004016101ea9190610aae565b602060405180830381865afa158015610205573d5f803e3d5ffd5b505050506040513d601f19601f820116820180604052508101906102299190610adb565b6040518363ffffffff1660e01b8152600401610246929190610b15565b6020604051808303815f875af1158015610262573d5f803e3d5ffd5b505050506040513d601f19601f820116820180604052508101906102869190610b71565b6102c5576040517f08c379a00000000000000000000000000000000000000000000000000000000081526004016102bc90610be6565b60405180910390fd5b50565b5f6102db8430634357855e60e01b61033a565b905061030b60075f9054906101000a900473ffffffffffffffffffffffffffffffffffffffff168260065461036b565b5050505050565b5f60025f9054906101000a900473ffffffffffffffffffffffffffffffffffffffff16905090565b6103426106d6565b61034a6106d6565b61036185858584610432909392919063ffffffff16565b9150509392505050565b5f80600454905060018161037f9190610c31565b6004819055505f634042994660e01b5f80875f01513089604001518760018c608001515f01516040516024016103bc989796959493929190610d0d565b604051602081830303815290604052907bffffffffffffffffffffffffffffffffffffffffffffffffffffffff19166020820180517bffffffffffffffffffffffffffffffffffffffffffffffffffffffff83818316178352505050509050610427868386846104e1565b925050509392505050565b61043a6106d6565b61044a856080015161010061066e565b5083855f01818152505082856020019073ffffffffffffffffffffffffffffffffffffffff16908173ffffffffffffffffffffffffffffffffffffffff16815250508185604001907bffffffffffffffffffffffffffffffffffffffffffffffffffffffff191690817bffffffffffffffffffffffffffffffffffffffffffffffffffffffff191681525050849050949350505050565b5f30846040516020016104f5929190610e41565b6040516020818303038152906040528051906020012090508460055f8381526020019081526020015f205f6101000a81548173ffffffffffffffffffffffffffffffffffffffff021916908373ffffffffffffffffffffffffffffffffffffffff160217905550807fb5e6e01e79f91267dc17b4e6314d5d4d03593d2ceee0fbb452b750bd70ea5af960405160405180910390a260025f9054906101000a900473ffffffffffffffffffffffffffffffffffffffff1673ffffffffffffffffffffffffffffffffffffffff16634000aea08685856040518463ffffffff1660e01b81526004016105e793929190610e6c565b6020604051808303815f875af1158015610603573d5f803e3d5ffd5b505050506040513d601f19601f820116820180604052508101906106279190610b71565b610666576040517f08c379a000000000000000000000000000000000000000000000000000000000815260040161065d90610f18565b60405180910390fd5b949350505050565b61067661073f565b5f6020836106849190610f63565b146106b0576020826106969190610f63565b60206106a29190610f93565b826106ad9190610c31565b91505b818360200181815250506040518084525f81528281016020016040525082905092915050565b6040518060a001604052805f80191681526020015f73ffffffffffffffffffffffffffffffffffffffff1681526020015f7bffffffffffffffffffffffffffffffffffffffffffffffffffffffff191681526020015f815260200161073961073f565b81525090565b6040518060400160405280606081526020015f81525090565b5f604051905090565b5f80fd5b5f80fd5b5f819050919050565b61077b81610769565b8114610785575f80fd5b50565b5f8135905061079681610772565b92915050565b5f819050919050565b6107ae8161079c565b81146107b8575f80fd5b50565b5f813590506107c9816107a5565b92915050565b5f80604083850312156107e5576107e4610761565b5b5f6107f285828601610788565b9250506020610803858286016107bb565b9150509250929050565b5f80fd5b5f80fd5b5f601f19601f8301169050919050565b7f4e487b71000000000000000000000000000000000000000000000000000000005f52604160045260245ffd5b61085b82610815565b810181811067ffffffffffffffff8211171561087a57610879610825565b5b80604052505050565b5f61088c610758565b90506108988282610852565b919050565b5f67ffffffffffffffff8211156108b7576108b6610825565b5b6108c082610815565b9050602081019050919050565b828183375f83830152505050565b5f6108ed6108e88461089d565b610883565b90508281526020810184848401111561090957610908610811565b5b6109148482856108cd565b509392505050565b5f82601f8301126109305761092f61080d565b5b81356109408482602086016108db565b91505092915050565b5f805f606084860312156109605761095f610761565b5b5f61096d86828701610788565b935050602084013567ffffffffffffffff81111561098e5761098d610765565b5b61099a8682870161091c565b925050604084013567ffffffffffffffff8111156109bb576109ba610765565b5b6109c78682870161091c565b9150509250925092565b5f82825260208201905092915050565b7f536f75726365206d75737420626520746865206f7261636c65206f66207468655f8201527f2072657175657374000000000000000000000000000000000000000000000000602082015250565b5f610a3b6028836109d1565b9150610a46826109e1565b604082019050919050565b5f6020820190508181035f830152610a6881610a2f565b9050919050565b5f73ffffffffffffffffffffffffffffffffffffffff82169050919050565b5f610a9882610a6f565b9050919050565b610aa881610a8e565b82525050565b5f602082019050610ac15f830184610a9f565b92915050565b5f81519050610ad5816107a5565b92915050565b5f60208284031215610af057610aef610761565b5b5f610afd84828501610ac7565b91505092915050565b610b0f8161079c565b82525050565b5f604082019050610b285f830185610a9f565b610b356020830184610b06565b9392505050565b5f8115159050919050565b610b5081610b3c565b8114610b5a575f80fd5b50565b5f81519050610b6b81610b47565b92915050565b5f60208284031215610b8657610b85610761565b5b5f610b9384828501610b5d565b91505092915050565b7f556e61626c6520746f207472616e7366657200000000000000000000000000005f82015250565b5f610bd06012836109d1565b9150610bdb82610b9c565b602082019050919050565b5f6020820190508181035f830152610bfd81610bc4565b9050919050565b7f4e487b71000000000000000000000000000000000000000000000000000000005f52601160045260245ffd5b5f610c3b8261079c565b9150610c468361079c565b9250828201905080821115610c5e57610c5d610c04565b5b92915050565b610c6d81610769565b82525050565b5f7fffffffff0000000000000000000000000000000000000000000000000000000082169050919050565b610ca781610c73565b82525050565b5f81519050919050565b5f82825260208201905092915050565b8281835e5f83830152505050565b5f610cdf82610cad565b610ce98185610cb7565b9350610cf9818560208601610cc7565b610d0281610815565b840191505092915050565b5f61010082019050610d215f83018b610a9f565b610d2e602083018a610b06565b610d3b6040830189610c64565b610d486060830188610a9f565b610d556080830187610c9e565b610d6260a0830186610b06565b610d6f60c0830185610b06565b81810360e0830152610d818184610cd5565b90509998505050505050505050565b5f819050919050565b5f610db3610dae610da984610a6f565b610d90565b610a6f565b9050919050565b5f610dc482610d99565b9050919050565b5f610dd582610dba565b9050919050565b5f8160601b9050919050565b5f610df282610ddc565b9050919050565b5f610e0382610de8565b9050919050565b610e1b610e1682610dcb565b610df9565b82525050565b5f819050919050565b610e3b610e368261079c565b610e21565b82525050565b5f610e4c8285610e0a565b601482019150610e5c8284610e2a565b6020820191508190509392505050565b5f606082019050610e7f5f830186610a9f565b610e8c6020830185610b06565b8181036040830152610e9e8184610cd5565b9050949350505050565b7f756e61626c6520746f207472616e73666572416e6443616c6c20746f206f72615f8201527f636c650000000000000000000000000000000000000000000000000000000000602082015250565b5f610f026023836109d1565b9150610f0d82610ea8565b604082019050919050565b5f6020820190508181035f830152610f2f81610ef6565b9050919050565b7f4e487b71000000000000000000000000000000000000000000000000000000005f52601260045260245ffd5b5f610f6d8261079c565b9150610f788361079c565b925082610f8857610f87610f36565b5b828206905092915050565b5f610f9d8261079c565b9150610fa88361079c565b9250828203905081811115610fc057610fbf610c04565b5b9291505056fea26469706673582212202212f4044646bd2bb05dd2d8d8fe166346e9fc1231c106207a3a91865ee0d1b764736f6c63430008190033",
  "immutableReferences": {},
  "source": "// SPDX-License-Identifier: MIT\r\npragma solidity ^0.8.19;\r\n\r\nimport \"@chainlink/contracts/src/v0.8/ChainlinkClient.sol\";\r\n\r\n\r\ncontract ChainlinkOracle is ChainlinkClient {\r\n    uint256 private fee;\r\n    address private oracle;\r\n\r\n    constructor(address _link, address _oracle, uint256 _fee) {\r\n        if (_link == address(0)) {\r\n            setPublicChainlinkToken();\r\n        } else {\r\n            setChainlinkToken(_link);\r\n        }\r\n        oracle = _oracle;\r\n        fee = _fee;\r\n    }\r\n\r\n    function requestVolumeData(bytes32 _jobId, string memory _url, string memory _path) public  {\r\n        Chainlink.Request memory req = buildChainlinkRequest(_jobId, address(this), this.fulfill.selector);\r\n        // req.add(\"get\", _url);\r\n        // req.add(\"path\", _path);\r\n        sendChainlinkRequestTo(oracle, req, fee);\r\n    }\r\n\r\n    function fulfill(bytes32 _requestId, uint256 _volume) public recordChainlinkFulfillment(_requestId) {\r\n        // Handle the fulfillment data here\r\n    }\r\n\r\n    function withdrawLink() public  {\r\n        LinkTokenInterface link = LinkTokenInterface(chainlinkTokenAddress());\r\n        require(link.transfer(msg.sender, link.balanceOf(address(this))), \"Unable to transfer\");\r\n    }\r\n}",
  "sourcePath": "/media/fabric-orderer2/ethLink/Public/nodeLink/chainLink-eth/contracts/chainlinkOracle.sol",
  "compiler": {
    "name": "solc",
    "version": "0.8.25+commit.b61c2a91.Emscripten.clang"
  },
  "schemaVersion": "3.4.16",
  "updatedAt": "2024-04-12T08:40:31.815Z",
  "devdoc": {
    "kind": "dev",
    "methods": {},
    "version": 1
  },
  "userdoc": {
    "kind": "user",
    "methods": {},
    "version": 1
  }
}