{
  "contractName": "Counter",
  "abi": [
    {
      "inputs": [
        {
          "internalType": "uint256",
          "name": "updateInterval",
          "type": "uint256"
        }
      ],
      "stateMutability": "nonpayable",
      "type": "constructor"
    },
    {
      "inputs": [],
      "name": "counter",
      "outputs": [
        {
          "internalType": "uint256",
          "name": "",
          "type": "uint256"
        }
      ],
      "stateMutability": "view",
      "type": "function"
    },
    {
      "inputs": [],
      "name": "interval",
      "outputs": [
        {
          "internalType": "uint256",
          "name": "",
          "type": "uint256"
        }
      ],
      "stateMutability": "view",
      "type": "function"
    },
    {
      "inputs": [],
      "name": "lastTimeStamp",
      "outputs": [
        {
          "internalType": "uint256",
          "name": "",
          "type": "uint256"
        }
      ],
      "stateMutability": "view",
      "type": "function"
    },
    {
      "inputs": [
        {
          "internalType": "bytes",
          "name": "checkData",
          "type": "bytes"
        }
      ],
      "name": "checkUpkeep",
      "outputs": [
        {
          "internalType": "bool",
          "name": "upkeepNeeded",
          "type": "bool"
        },
        {
          "internalType": "bytes",
          "name": "performData",
          "type": "bytes"
        }
      ],
      "stateMutability": "nonpayable",
      "type": "function"
    },
    {
      "inputs": [
        {
          "internalType": "bytes",
          "name": "performData",
          "type": "bytes"
        }
      ],
      "name": "performUpkeep",
      "outputs": [],
      "stateMutability": "nonpayable",
      "type": "function"
    }
  ],
  "bytecode": "0x60a0604052348015600e575f80fd5b506040516105313803806105318339818101604052810190602e9190607a565b8060808181525050426001819055505f80819055505060a0565b5f80fd5b5f819050919050565b605c81604c565b81146065575f80fd5b50565b5f815190506074816055565b92915050565b5f60208284031215608c57608b6048565b5b5f6097848285016068565b91505092915050565b60805161046b6100c65f395f81816101080152818161016401526101e3015261046b5ff3fe608060405234801561000f575f80fd5b5060043610610055575f3560e01c80633f3b3b27146100595780634585e33b1461007757806361bc221a146100935780636e04ff0d146100b1578063947a36fb146100e2575b5f80fd5b610061610100565b60405161006e919061021d565b60405180910390f35b610091600480360381019061008c919061029f565b610106565b005b61009b61015a565b6040516100a8919061021d565b60405180910390f35b6100cb60048036038101906100c6919061029f565b61015f565b6040516100d9929190610374565b60405180910390f35b6100ea6101e1565b6040516100f7919061021d565b60405180910390f35b60015481565b7f00000000000000000000000000000000000000000000000000000000000000006001544261013591906103cf565b1115610156574260018190555060015f546101509190610402565b5f819055505b5050565b5f5481565b5f60607f00000000000000000000000000000000000000000000000000000000000000006001544261019191906103cf565b11915083838080601f0160208091040260200160405190810160405280939291908181526020018383808284375f81840152601f19601f8201169050808301925050505050505090509250929050565b7f000000000000000000000000000000000000000000000000000000000000000081565b5f819050919050565b61021781610205565b82525050565b5f6020820190506102305f83018461020e565b92915050565b5f80fd5b5f80fd5b5f80fd5b5f80fd5b5f80fd5b5f8083601f84011261025f5761025e61023e565b5b8235905067ffffffffffffffff81111561027c5761027b610242565b5b60208301915083600182028301111561029857610297610246565b5b9250929050565b5f80602083850312156102b5576102b4610236565b5b5f83013567ffffffffffffffff8111156102d2576102d161023a565b5b6102de8582860161024a565b92509250509250929050565b5f8115159050919050565b6102fe816102ea565b82525050565b5f81519050919050565b5f82825260208201905092915050565b8281835e5f83830152505050565b5f601f19601f8301169050919050565b5f61034682610304565b610350818561030e565b935061036081856020860161031e565b6103698161032c565b840191505092915050565b5f6040820190506103875f8301856102f5565b8181036020830152610399818461033c565b90509392505050565b7f4e487b71000000000000000000000000000000000000000000000000000000005f52601160045260245ffd5b5f6103d982610205565b91506103e483610205565b92508282039050818111156103fc576103fb6103a2565b5b92915050565b5f61040c82610205565b915061041783610205565b925082820190508082111561042f5761042e6103a2565b5b9291505056fea264697066735822122072ccf49900d23f6e5b73afd5d5f9d3b2be57a31c4d7aa423548c57a8aea1e81f64736f6c63430008190033",
  "immutableReferences": {
    "2583": [
      {
        "length": 32,
        "start": 264
      },
      {
        "length": 32,
        "start": 356
      },
      {
        "length": 32,
        "start": 483
      }
    ]
  },
  "source": "// SPDX-License-Identifier: MIT\npragma solidity ^0.8.0;\n\nimport \"@chainlink/contracts/src/v0.8/AutomationCompatible.sol\";\n\ncontract Counter is AutomationCompatibleInterface {\n    /**\n     * Public counter variable\n     */\n    uint public counter;\n\n    /**\n     * Use an interval in seconds and a timestamp to slow execution of Upkeep\n     */\n    uint public immutable interval;\n    uint public lastTimeStamp;\n\n    constructor(uint updateInterval) {\n        interval = updateInterval;\n        lastTimeStamp = block.timestamp;\n\n        counter = 0;\n    }\n\n    function checkUpkeep(\n        bytes calldata checkData\n    ) external override returns (bool upkeepNeeded, bytes memory performData) {\n        upkeepNeeded = (block.timestamp - lastTimeStamp) > interval;\n\n        // We don't use the checkData in this example\n        // checkData was defined when the Upkeep was registered\n        performData = checkData;\n    }\n\n    function performUpkeep(bytes calldata performData) external override {\n        //We highly recommend revalidating the upkeep in the performUpkeep function\n        if ((block.timestamp - lastTimeStamp) > interval) {\n            lastTimeStamp = block.timestamp;\n            counter = counter + 1;\n        }\n\n        // We don't use the performData in this example\n        // performData is generated by the Automation Node's call to your `checkUpkeep` function\n        performData;\n    }\n}\n",
  "sourcePath": "/media/fabric-orderer2/ethLink/Public/nodeLink/chainLink-eth/contracts/Oracle-contracts/contracts/Counter.sol",
  "compiler": {
    "name": "solc",
    "version": "0.8.25+commit.b61c2a91.Emscripten.clang"
  },
  "schemaVersion": "3.4.16",
  "updatedAt": "2024-04-12T08:40:31.682Z",
  "devdoc": {
    "kind": "dev",
    "methods": {
      "checkUpkeep(bytes)": {
        "details": "To ensure that it is never called, you may want to add the cannotExecute modifier from KeeperBase to your implementation of this method.",
        "params": {
          "checkData": "specified in the upkeep registration so it is always the same for a registered upkeep. This can easily be broken down into specific arguments using `abi.decode`, so multiple upkeeps can be registered on the same contract and easily differentiated by the contract."
        },
        "returns": {
          "performData": "bytes that the keeper should call performUpkeep with, if upkeep is needed. If you would like to encode data to decode later, try `abi.encode`.",
          "upkeepNeeded": "boolean to indicate whether the keeper should call performUpkeep or not."
        }
      },
      "performUpkeep(bytes)": {
        "details": "The input to this method should not be trusted, and the caller of the method should not even be restricted to any single registry. Anyone should be able call it, and the input should be validated, there is no guarantee that the data passed in is the performData returned from checkUpkeep. This could happen due to malicious keepers, racing keepers, or simply a state change while the performUpkeep transaction is waiting for confirmation. Always validate the data passed in.",
        "params": {
          "performData": "is the data which was passed back from the checkData simulation. If it is encoded, it can easily be decoded into other types by calling `abi.decode`. This data should not be trusted, and should be validated against the contract's current state."
        }
      }
    },
    "version": 1
  },
  "userdoc": {
    "kind": "user",
    "methods": {
      "checkUpkeep(bytes)": {
        "notice": "method that is simulated by the keepers to see if any work actually needs to be performed. This method does does not actually need to be executable, and since it is only ever simulated it can consume lots of gas."
      },
      "counter()": {
        "notice": "Public counter variable"
      },
      "interval()": {
        "notice": "Use an interval in seconds and a timestamp to slow execution of Upkeep"
      },
      "performUpkeep(bytes)": {
        "notice": "method that is actually executed by the keepers, via the registry. The data returned by the checkUpkeep simulation will be passed into this method to actually be executed."
      }
    },
    "version": 1
  }
}