{
  "contractName": "getAddressTemplate2",
  "abi": [
    {
      "inputs": [],
      "stateMutability": "nonpayable",
      "type": "constructor"
    },
    {
      "anonymous": false,
      "inputs": [
        {
          "indexed": true,
          "internalType": "bytes32",
          "name": "id",
          "type": "bytes32"
        }
      ],
      "name": "ChainlinkCancelled",
      "type": "event"
    },
    {
      "anonymous": false,
      "inputs": [
        {
          "indexed": true,
          "internalType": "bytes32",
          "name": "id",
          "type": "bytes32"
        }
      ],
      "name": "ChainlinkFulfilled",
      "type": "event"
    },
    {
      "anonymous": false,
      "inputs": [
        {
          "indexed": true,
          "internalType": "bytes32",
          "name": "id",
          "type": "bytes32"
        }
      ],
      "name": "ChainlinkRequested",
      "type": "event"
    },
    {
      "anonymous": false,
      "inputs": [
        {
          "indexed": true,
          "internalType": "bytes32",
          "name": "requestId",
          "type": "bytes32"
        },
        {
          "indexed": true,
          "internalType": "address",
          "name": "addressVariable",
          "type": "address"
        }
      ],
      "name": "RequestFulfilled",
      "type": "event"
    },
    {
      "inputs": [],
      "name": "addressVariable",
      "outputs": [
        {
          "internalType": "address",
          "name": "",
          "type": "address"
        }
      ],
      "stateMutability": "view",
      "type": "function",
      "constant": true
    },
    {
      "inputs": [],
      "name": "RequestAddress",
      "outputs": [],
      "stateMutability": "nonpayable",
      "type": "function"
    },
    {
      "inputs": [
        {
          "internalType": "bytes32",
          "name": "requestId",
          "type": "bytes32"
        },
        {
          "internalType": "address",
          "name": "_addressVariable",
          "type": "address"
        }
      ],
      "name": "fulfillAddress",
      "outputs": [],
      "stateMutability": "nonpayable",
      "type": "function"
    }
  ],
  "bytecode": "0x608060405260016004553480156200001657600080fd5b506200003c733f5cba916576a6ce277da066fd210d895a595f71620000b960201b60201c565b620000617388e384acf40052ab9a59a1752560c295151e2240620000fd60201b60201c565b7f3136326235353735656366373438346139396337343333383462643962643637600781905550600a670de0b6b3a7640000600e620000a191906200017a565b620000ad9190620001f4565b6008819055506200022c565b80600260006101000a81548173ffffffffffffffffffffffffffffffffffffffff021916908373ffffffffffffffffffffffffffffffffffffffff16021790555050565b80600360006101000a81548173ffffffffffffffffffffffffffffffffffffffff021916908373ffffffffffffffffffffffffffffffffffffffff16021790555050565b6000819050919050565b7f4e487b7100000000000000000000000000000000000000000000000000000000600052601160045260246000fd5b6000620001878262000141565b9150620001948362000141565b9250828202620001a48162000141565b91508282048414831517620001be57620001bd6200014b565b5b5092915050565b7f4e487b7100000000000000000000000000000000000000000000000000000000600052601260045260246000fd5b6000620002018262000141565b91506200020e8362000141565b925082620002215762000220620001c5565b5b828204905092915050565b611482806200023c6000396000f3fe608060405234801561001057600080fd5b50600436106100415760003560e01c80636b8e2096146100465780636fa36bc614610050578063de5477fd1461006c575b600080fd5b61004e61008a565b005b61006a60048036038101906100659190610c9d565b610193565b005b610074610322565b6040516100819190610cec565b60405180910390f35b60006100a060075430636fa36bc660e01b610348565b90506101046040518060400160405280600381526020017f67657400000000000000000000000000000000000000000000000000000000008152506040518060a00160405280606881526020016113e560689139836103799092919063ffffffff16565b6101836040518060400160405280600581526020017f70617468310000000000000000000000000000000000000000000000000000008152506040518060400160405280600c81526020017f646174615f616464726573730000000000000000000000000000000000000000815250836103799092919063ffffffff16565b61018f816008546103ac565b5050565b816005600082815260200190815260200160002060009054906101000a900473ffffffffffffffffffffffffffffffffffffffff1673ffffffffffffffffffffffffffffffffffffffff163373ffffffffffffffffffffffffffffffffffffffff1614610235576040517f08c379a000000000000000000000000000000000000000000000000000000000815260040161022c90610d8a565b60405180910390fd5b6005600082815260200190815260200160002060006101000a81549073ffffffffffffffffffffffffffffffffffffffff0219169055807f7cc135e0cebb02c3480ae5d74d377283180a2601f8f644edf7987b009316c63a60405160405180910390a28173ffffffffffffffffffffffffffffffffffffffff16837f830b60a027ae5718542482d9a0dff6192a316ad1720cd40a5b45aa1e21ab543a60405160405180910390a381600660006101000a81548173ffffffffffffffffffffffffffffffffffffffff021916908373ffffffffffffffffffffffffffffffffffffffff160217905550505050565b600660009054906101000a900473ffffffffffffffffffffffffffffffffffffffff1681565b610350610b7d565b610358610b7d565b61036f858585846103e3909392919063ffffffff16565b9150509392505050565b61039082846080015161049390919063ffffffff16565b6103a781846080015161049390919063ffffffff16565b505050565b60006103db600360009054906101000a900473ffffffffffffffffffffffffffffffffffffffff1684846104b8565b905092915050565b6103eb610b7d565b6103fb8560800151610100610582565b508385600001818152505082856020019073ffffffffffffffffffffffffffffffffffffffff16908173ffffffffffffffffffffffffffffffffffffffff16815250508185604001907bffffffffffffffffffffffffffffffffffffffffffffffffffffffff191690817bffffffffffffffffffffffffffffffffffffffffffffffffffffffff191681525050849050949350505050565b6104a082600383516105ec565b6104b3818361077190919063ffffffff16565b505050565b60008060045490506001816104cd9190610de3565b6004819055506000633c6d41b960e01b600080876000015188604001518660028b608001516000015160405160240161050c9796959493929190610f00565b604051602081830303815290604052907bffffffffffffffffffffffffffffffffffffffffffffffffffffffff19166020820180517bffffffffffffffffffffffffffffffffffffffffffffffffffffffff8381831617835250505050905061057786838684610793565b925050509392505050565b61058a610bea565b60006020836105999190610fa5565b146105c5576020826105ab9190610fa5565b60206105b79190610fd6565b826105c29190610de3565b91505b81836020018181525050604051808452600081528281016020016040525082905092915050565b60178167ffffffffffffffff16116106235761061d8160058460ff16901b60ff16178461092890919063ffffffff16565b5061076c565b60ff8167ffffffffffffffff161161067957610652601860058460ff16901b178461092890919063ffffffff16565b506106738167ffffffffffffffff166001856109489092919063ffffffff16565b5061076b565b61ffff8167ffffffffffffffff16116106d0576106a9601960058460ff16901b178461092890919063ffffffff16565b506106ca8167ffffffffffffffff166002856109489092919063ffffffff16565b5061076a565b63ffffffff8167ffffffffffffffff161161072957610702601a60058460ff16901b178461092890919063ffffffff16565b506107238167ffffffffffffffff166004856109489092919063ffffffff16565b50610769565b610746601b60058460ff16901b178461092890919063ffffffff16565b506107678167ffffffffffffffff166008856109489092919063ffffffff16565b505b5b5b5b505050565b610779610bea565b61078b8384600001515184855161096a565b905092915050565b600030846040516020016107a89291906110c3565b604051602081830303815290604052805190602001209050846005600083815260200190815260200160002060006101000a81548173ffffffffffffffffffffffffffffffffffffffff021916908373ffffffffffffffffffffffffffffffffffffffff160217905550807fb5e6e01e79f91267dc17b4e6314d5d4d03593d2ceee0fbb452b750bd70ea5af960405160405180910390a2600260009054906101000a900473ffffffffffffffffffffffffffffffffffffffff1673ffffffffffffffffffffffffffffffffffffffff16634000aea08685856040518463ffffffff1660e01b815260040161089e939291906110ef565b6020604051808303816000875af11580156108bd573d6000803e3d6000fd5b505050506040513d601f19601f820116820180604052508101906108e19190611165565b610920576040517f08c379a000000000000000000000000000000000000000000000000000000000815260040161091790611204565b60405180910390fd5b949350505050565b610930610bea565b6109408384600001515184610a59565b905092915050565b610950610bea565b610961848560000151518585610aaf565b90509392505050565b610972610bea565b825182111561098057600080fd5b846020015182856109919190610de3565b11156109c6576109c58560026109b6886020015188876109b19190610de3565b610b3d565b6109c09190611224565b610b59565b5b6000808651805187602083010193508088870111156109e55787860182525b60208701925050505b60208410610a2c5780518252602082610a079190610de3565b9150602081610a169190610de3565b9050602084610a259190610fd6565b93506109ee565b60006001856020036101000a03905080198251168184511681811785525050508692505050949350505050565b610a61610bea565b83602001518310610a8757610a868460028660200151610a819190611224565b610b59565b5b83518051602085830101848153818603610aa2576001820183525b5050508390509392505050565b610ab7610bea565b84602001518483610ac89190610de3565b1115610af057610aef8560028685610ae09190610de3565b610aea9190611224565b610b59565b5b6000600183610100610b029190611399565b610b0c9190610fd6565b90508551838682010185831982511617815281518588011115610b2f5784870182525b505085915050949350505050565b600081831115610b4f57829050610b53565b8190505b92915050565b600082600001519050610b6c8383610582565b50610b778382610771565b50505050565b6040518060a0016040528060008019168152602001600073ffffffffffffffffffffffffffffffffffffffff16815260200160007bffffffffffffffffffffffffffffffffffffffffffffffffffffffff1916815260200160008152602001610be4610bea565b81525090565b604051806040016040528060608152602001600081525090565b600080fd5b6000819050919050565b610c1c81610c09565b8114610c2757600080fd5b50565b600081359050610c3981610c13565b92915050565b600073ffffffffffffffffffffffffffffffffffffffff82169050919050565b6000610c6a82610c3f565b9050919050565b610c7a81610c5f565b8114610c8557600080fd5b50565b600081359050610c9781610c71565b92915050565b60008060408385031215610cb457610cb3610c04565b5b6000610cc285828601610c2a565b9250506020610cd385828601610c88565b9150509250929050565b610ce681610c5f565b82525050565b6000602082019050610d016000830184610cdd565b92915050565b600082825260208201905092915050565b7f536f75726365206d75737420626520746865206f7261636c65206f662074686560008201527f2072657175657374000000000000000000000000000000000000000000000000602082015250565b6000610d74602883610d07565b9150610d7f82610d18565b604082019050919050565b60006020820190508181036000830152610da381610d67565b9050919050565b6000819050919050565b7f4e487b7100000000000000000000000000000000000000000000000000000000600052601160045260246000fd5b6000610dee82610daa565b9150610df983610daa565b9250828201905080821115610e1157610e10610db4565b5b92915050565b610e2081610daa565b82525050565b610e2f81610c09565b82525050565b60007fffffffff0000000000000000000000000000000000000000000000000000000082169050919050565b610e6a81610e35565b82525050565b600081519050919050565b600082825260208201905092915050565b60005b83811015610eaa578082015181840152602081019050610e8f565b60008484015250505050565b6000601f19601f8301169050919050565b6000610ed282610e70565b610edc8185610e7b565b9350610eec818560208601610e8c565b610ef581610eb6565b840191505092915050565b600060e082019050610f15600083018a610cdd565b610f226020830189610e17565b610f2f6040830188610e26565b610f3c6060830187610e61565b610f496080830186610e17565b610f5660a0830185610e17565b81810360c0830152610f688184610ec7565b905098975050505050505050565b7f4e487b7100000000000000000000000000000000000000000000000000000000600052601260045260246000fd5b6000610fb082610daa565b9150610fbb83610daa565b925082610fcb57610fca610f76565b5b828206905092915050565b6000610fe182610daa565b9150610fec83610daa565b925082820390508181111561100457611003610db4565b5b92915050565b6000819050919050565b600061102f61102a61102584610c3f565b61100a565b610c3f565b9050919050565b600061104182611014565b9050919050565b600061105382611036565b9050919050565b60008160601b9050919050565b60006110728261105a565b9050919050565b600061108482611067565b9050919050565b61109c61109782611048565b611079565b82525050565b6000819050919050565b6110bd6110b882610daa565b6110a2565b82525050565b60006110cf828561108b565b6014820191506110df82846110ac565b6020820191508190509392505050565b60006060820190506111046000830186610cdd565b6111116020830185610e17565b81810360408301526111238184610ec7565b9050949350505050565b60008115159050919050565b6111428161112d565b811461114d57600080fd5b50565b60008151905061115f81611139565b92915050565b60006020828403121561117b5761117a610c04565b5b600061118984828501611150565b91505092915050565b7f756e61626c6520746f207472616e73666572416e6443616c6c20746f206f726160008201527f636c650000000000000000000000000000000000000000000000000000000000602082015250565b60006111ee602383610d07565b91506111f982611192565b604082019050919050565b6000602082019050818103600083015261121d816111e1565b9050919050565b600061122f82610daa565b915061123a83610daa565b925082820261124881610daa565b9150828204841483151761125f5761125e610db4565b5b5092915050565b60008160011c9050919050565b6000808291508390505b60018511156112bd5780860481111561129957611298610db4565b5b60018516156112a85780820291505b80810290506112b685611266565b945061127d565b94509492505050565b6000826112d65760019050611392565b816112e45760009050611392565b81600181146112fa576002811461130457611333565b6001915050611392565b60ff84111561131657611315610db4565b5b8360020a91508482111561132d5761132c610db4565b5b50611392565b5060208310610133831016604e8410600b84101617156113685782820a90508381111561136357611362610db4565b5b611392565b6113758484846001611273565b9250905081840481111561138c5761138b610db4565b5b81810290505b9392505050565b60006113a482610daa565b91506113af83610daa565b92506113dc7fffffffffffffffffffffffffffffffffffffffffffffffffffffffffffffffff84846112c6565b90509291505056fe68747470733a2f2f7261772e67697468756275736572636f6e74656e742e636f6d2f676c696e6b6e6f64652f636861696e6c696e6b2d7075626c69632d6a6f62732f6d61696e2f6578616d706c652d6a736f6e2f6578616d706c652d616464726573732e6a736f6ea26469706673582212203466935618f10bb5572f952d47f1862b2ea19173d3a8da1d394beb1c3422db7b64736f6c63430008130033",
  "immutableReferences": {},
  "source": "// SPDX-License-Identifier: MIT\r\n// https://glink.solutions\r\n// Discord=https://discord.gg/KmZVYhYJUy\r\n\r\n/**\r\n * THIS IS AN EXAMPLE CONTRACT WHICH USES HARDCODED VALUES FOR CLARITY.\r\n * THIS EXAMPLE USES UN-AUDITED CODE.\r\n * DO NOT USE THIS CODE IN PRODUCTION.\r\n */\r\n\r\npragma solidity ^0.8.7;\r\n\r\nimport \"@chainlink/contracts/src/v0.8/ChainlinkClient.sol\";\r\n\r\ncontract getAddressTemplate2 is ChainlinkClient {\r\n  using Chainlink for Chainlink.Request;\r\n\r\n  address public addressVariable;\r\n\r\n  bytes32 private externalJobId;\r\n  uint256 private oraclePayment;\r\n\r\n  event RequestFulfilled(bytes32 indexed requestId,address indexed addressVariable);\r\n\r\n  constructor() {\r\n    setChainlinkToken(0x3f5CBA916576A6Ce277dA066fD210D895a595F71);\r\n    setChainlinkOracle(0x88e384AcF40052Ab9A59a1752560c295151e2240);\r\n    externalJobId = \"162b5575ecf7484a99c743384bd9bd67\";\r\n    oraclePayment = ((14 * LINK_DIVISIBILITY) / 10); // n * 10**18\r\n  }\r\n\r\n  function RequestAddress()\r\n    public\r\n  {\r\n    Chainlink.Request memory req = buildChainlinkRequest(externalJobId, address(this), this.fulfillAddress.selector);\r\n    req.add(\"get\", \"https://raw.githubusercontent.com/glinknode/chainlink-public-jobs/main/example-json/example-address.json\");\r\n    req.add(\"path1\", \"data_address\");\r\n    sendOperatorRequest(req, oraclePayment);\r\n  }\r\n\r\n  function fulfillAddress(bytes32 requestId,address _addressVariable)\r\n    public\r\n    recordChainlinkFulfillment(requestId)\r\n  {\r\n    emit RequestFulfilled(requestId, _addressVariable);\r\n    addressVariable = _addressVariable;\r\n  }\r\n\r\n}",
  "sourcePath": "/media/fabric-orderer2/ethLink/Public/nodeLink/chainLink-eth/contracts/getAddress.sol",
  "compiler": {
    "name": "solc",
    "version": "0.8.19+commit.7dd6d404.Emscripten.clang"
  },
  "schemaVersion": "3.4.16",
  "updatedAt": "2024-04-18T11:23:12.053Z",
  "networkType": "ethereum",
  "devdoc": {
    "kind": "dev",
    "methods": {},
    "version": 1
  },
  "userdoc": {
    "kind": "user",
    "methods": {},
    "version": 1
  }
}