{
  "contractName": "getAddressTemplate",
  "abi": [
    {
      "inputs": [],
      "stateMutability": "nonpayable",
      "type": "constructor"
    },
    {
      "anonymous": false,
      "inputs": [
        {
          "indexed": true,
          "internalType": "bytes32",
          "name": "id",
          "type": "bytes32"
        }
      ],
      "name": "ChainlinkCancelled",
      "type": "event"
    },
    {
      "anonymous": false,
      "inputs": [
        {
          "indexed": true,
          "internalType": "bytes32",
          "name": "id",
          "type": "bytes32"
        }
      ],
      "name": "ChainlinkFulfilled",
      "type": "event"
    },
    {
      "anonymous": false,
      "inputs": [
        {
          "indexed": true,
          "internalType": "bytes32",
          "name": "id",
          "type": "bytes32"
        }
      ],
      "name": "ChainlinkRequested",
      "type": "event"
    },
    {
      "anonymous": false,
      "inputs": [
        {
          "indexed": true,
          "internalType": "bytes32",
          "name": "requestId",
          "type": "bytes32"
        },
        {
          "indexed": true,
          "internalType": "address",
          "name": "addressVariable",
          "type": "address"
        }
      ],
      "name": "RequestFulfilled",
      "type": "event"
    },
    {
      "inputs": [],
      "name": "addressVariable",
      "outputs": [
        {
          "internalType": "address",
          "name": "",
          "type": "address"
        }
      ],
      "stateMutability": "view",
      "type": "function",
      "constant": true
    },
    {
      "inputs": [],
      "name": "RequestAddress",
      "outputs": [],
      "stateMutability": "nonpayable",
      "type": "function"
    },
    {
      "inputs": [
        {
          "internalType": "bytes32",
          "name": "requestId",
          "type": "bytes32"
        },
        {
          "internalType": "address",
          "name": "_addressVariable",
          "type": "address"
        }
      ],
      "name": "fulfillAddress",
      "outputs": [],
      "stateMutability": "nonpayable",
      "type": "function"
    }
  ],
  "bytecode": "0x6080604052600160045534801561001557600080fd5b50610039731b792475319e97186f676bea61280388c0a12e7a61009760201b60201c565b61005c737688f589e82b96d800d542fcf2a039802ef3bf186100db60201b60201c565b7f313265626632663163336434343163346231303732386137306263636563633360078190555067136dcc951d8c000060088190555061011f565b80600260006101000a81548173ffffffffffffffffffffffffffffffffffffffff021916908373ffffffffffffffffffffffffffffffffffffffff16021790555050565b80600360006101000a81548173ffffffffffffffffffffffffffffffffffffffff021916908373ffffffffffffffffffffffffffffffffffffffff16021790555050565b6114378061012e6000396000f3fe608060405234801561001057600080fd5b50600436106100415760003560e01c80636b8e2096146100465780636fa36bc614610050578063de5477fd1461006c575b600080fd5b61004e61008a565b005b61006a60048036038101906100659190610cba565b6101b0565b005b61007461033f565b6040516100819190610d09565b60405180910390f35b60006100a060075430636fa36bc660e01b610365565b90506101216040518060400160405280600381526020017f67657400000000000000000000000000000000000000000000000000000000008152506040518060400160405280601481526020017f68747470733a2f2f3139322e3136382e332e3636000000000000000000000000815250836103969092919063ffffffff16565b6101a06040518060400160405280600581526020017f70617468310000000000000000000000000000000000000000000000000000008152506040518060400160405280600c81526020017f646174612c726573756c74730000000000000000000000000000000000000000815250836103969092919063ffffffff16565b6101ac816008546103c9565b5050565b816005600082815260200190815260200160002060009054906101000a900473ffffffffffffffffffffffffffffffffffffffff1673ffffffffffffffffffffffffffffffffffffffff163373ffffffffffffffffffffffffffffffffffffffff1614610252576040517f08c379a000000000000000000000000000000000000000000000000000000000815260040161024990610da7565b60405180910390fd5b6005600082815260200190815260200160002060006101000a81549073ffffffffffffffffffffffffffffffffffffffff0219169055807f7cc135e0cebb02c3480ae5d74d377283180a2601f8f644edf7987b009316c63a60405160405180910390a28173ffffffffffffffffffffffffffffffffffffffff16837f830b60a027ae5718542482d9a0dff6192a316ad1720cd40a5b45aa1e21ab543a60405160405180910390a381600660006101000a81548173ffffffffffffffffffffffffffffffffffffffff021916908373ffffffffffffffffffffffffffffffffffffffff160217905550505050565b600660009054906101000a900473ffffffffffffffffffffffffffffffffffffffff1681565b61036d610b9a565b610375610b9a565b61038c85858584610400909392919063ffffffff16565b9150509392505050565b6103ad8284608001516104b090919063ffffffff16565b6103c48184608001516104b090919063ffffffff16565b505050565b60006103f8600360009054906101000a900473ffffffffffffffffffffffffffffffffffffffff1684846104d5565b905092915050565b610408610b9a565b610418856080015161010061059f565b508385600001818152505082856020019073ffffffffffffffffffffffffffffffffffffffff16908173ffffffffffffffffffffffffffffffffffffffff16815250508185604001907bffffffffffffffffffffffffffffffffffffffffffffffffffffffff191690817bffffffffffffffffffffffffffffffffffffffffffffffffffffffff191681525050849050949350505050565b6104bd8260038351610609565b6104d0818361078e90919063ffffffff16565b505050565b60008060045490506001816104ea9190610e00565b6004819055506000633c6d41b960e01b600080876000015188604001518660028b60800151600001516040516024016105299796959493929190610f1d565b604051602081830303815290604052907bffffffffffffffffffffffffffffffffffffffffffffffffffffffff19166020820180517bffffffffffffffffffffffffffffffffffffffffffffffffffffffff83818316178352505050509050610594868386846107b0565b925050509392505050565b6105a7610c07565b60006020836105b69190610fc2565b146105e2576020826105c89190610fc2565b60206105d49190610ff3565b826105df9190610e00565b91505b81836020018181525050604051808452600081528281016020016040525082905092915050565b60178167ffffffffffffffff16116106405761063a8160058460ff16901b60ff16178461094590919063ffffffff16565b50610789565b60ff8167ffffffffffffffff16116106965761066f601860058460ff16901b178461094590919063ffffffff16565b506106908167ffffffffffffffff166001856109659092919063ffffffff16565b50610788565b61ffff8167ffffffffffffffff16116106ed576106c6601960058460ff16901b178461094590919063ffffffff16565b506106e78167ffffffffffffffff166002856109659092919063ffffffff16565b50610787565b63ffffffff8167ffffffffffffffff16116107465761071f601a60058460ff16901b178461094590919063ffffffff16565b506107408167ffffffffffffffff166004856109659092919063ffffffff16565b50610786565b610763601b60058460ff16901b178461094590919063ffffffff16565b506107848167ffffffffffffffff166008856109659092919063ffffffff16565b505b5b5b5b505050565b610796610c07565b6107a883846000015151848551610987565b905092915050565b600030846040516020016107c59291906110e0565b604051602081830303815290604052805190602001209050846005600083815260200190815260200160002060006101000a81548173ffffffffffffffffffffffffffffffffffffffff021916908373ffffffffffffffffffffffffffffffffffffffff160217905550807fb5e6e01e79f91267dc17b4e6314d5d4d03593d2ceee0fbb452b750bd70ea5af960405160405180910390a2600260009054906101000a900473ffffffffffffffffffffffffffffffffffffffff1673ffffffffffffffffffffffffffffffffffffffff16634000aea08685856040518463ffffffff1660e01b81526004016108bb9392919061110c565b6020604051808303816000875af11580156108da573d6000803e3d6000fd5b505050506040513d601f19601f820116820180604052508101906108fe9190611182565b61093d576040517f08c379a000000000000000000000000000000000000000000000000000000000815260040161093490611221565b60405180910390fd5b949350505050565b61094d610c07565b61095d8384600001515184610a76565b905092915050565b61096d610c07565b61097e848560000151518585610acc565b90509392505050565b61098f610c07565b825182111561099d57600080fd5b846020015182856109ae9190610e00565b11156109e3576109e28560026109d3886020015188876109ce9190610e00565b610b5a565b6109dd9190611241565b610b76565b5b600080865180518760208301019350808887011115610a025787860182525b60208701925050505b60208410610a495780518252602082610a249190610e00565b9150602081610a339190610e00565b9050602084610a429190610ff3565b9350610a0b565b60006001856020036101000a03905080198251168184511681811785525050508692505050949350505050565b610a7e610c07565b83602001518310610aa457610aa38460028660200151610a9e9190611241565b610b76565b5b83518051602085830101848153818603610abf576001820183525b5050508390509392505050565b610ad4610c07565b84602001518483610ae59190610e00565b1115610b0d57610b0c8560028685610afd9190610e00565b610b079190611241565b610b76565b5b6000600183610100610b1f91906113b6565b610b299190610ff3565b90508551838682010185831982511617815281518588011115610b4c5784870182525b505085915050949350505050565b600081831115610b6c57829050610b70565b8190505b92915050565b600082600001519050610b89838361059f565b50610b94838261078e565b50505050565b6040518060a0016040528060008019168152602001600073ffffffffffffffffffffffffffffffffffffffff16815260200160007bffffffffffffffffffffffffffffffffffffffffffffffffffffffff1916815260200160008152602001610c01610c07565b81525090565b604051806040016040528060608152602001600081525090565b600080fd5b6000819050919050565b610c3981610c26565b8114610c4457600080fd5b50565b600081359050610c5681610c30565b92915050565b600073ffffffffffffffffffffffffffffffffffffffff82169050919050565b6000610c8782610c5c565b9050919050565b610c9781610c7c565b8114610ca257600080fd5b50565b600081359050610cb481610c8e565b92915050565b60008060408385031215610cd157610cd0610c21565b5b6000610cdf85828601610c47565b9250506020610cf085828601610ca5565b9150509250929050565b610d0381610c7c565b82525050565b6000602082019050610d1e6000830184610cfa565b92915050565b600082825260208201905092915050565b7f536f75726365206d75737420626520746865206f7261636c65206f662074686560008201527f2072657175657374000000000000000000000000000000000000000000000000602082015250565b6000610d91602883610d24565b9150610d9c82610d35565b604082019050919050565b60006020820190508181036000830152610dc081610d84565b9050919050565b6000819050919050565b7f4e487b7100000000000000000000000000000000000000000000000000000000600052601160045260246000fd5b6000610e0b82610dc7565b9150610e1683610dc7565b9250828201905080821115610e2e57610e2d610dd1565b5b92915050565b610e3d81610dc7565b82525050565b610e4c81610c26565b82525050565b60007fffffffff0000000000000000000000000000000000000000000000000000000082169050919050565b610e8781610e52565b82525050565b600081519050919050565b600082825260208201905092915050565b60005b83811015610ec7578082015181840152602081019050610eac565b60008484015250505050565b6000601f19601f8301169050919050565b6000610eef82610e8d565b610ef98185610e98565b9350610f09818560208601610ea9565b610f1281610ed3565b840191505092915050565b600060e082019050610f32600083018a610cfa565b610f3f6020830189610e34565b610f4c6040830188610e43565b610f596060830187610e7e565b610f666080830186610e34565b610f7360a0830185610e34565b81810360c0830152610f858184610ee4565b905098975050505050505050565b7f4e487b7100000000000000000000000000000000000000000000000000000000600052601260045260246000fd5b6000610fcd82610dc7565b9150610fd883610dc7565b925082610fe857610fe7610f93565b5b828206905092915050565b6000610ffe82610dc7565b915061100983610dc7565b925082820390508181111561102157611020610dd1565b5b92915050565b6000819050919050565b600061104c61104761104284610c5c565b611027565b610c5c565b9050919050565b600061105e82611031565b9050919050565b600061107082611053565b9050919050565b60008160601b9050919050565b600061108f82611077565b9050919050565b60006110a182611084565b9050919050565b6110b96110b482611065565b611096565b82525050565b6000819050919050565b6110da6110d582610dc7565b6110bf565b82525050565b60006110ec82856110a8565b6014820191506110fc82846110c9565b6020820191508190509392505050565b60006060820190506111216000830186610cfa565b61112e6020830185610e34565b81810360408301526111408184610ee4565b9050949350505050565b60008115159050919050565b61115f8161114a565b811461116a57600080fd5b50565b60008151905061117c81611156565b92915050565b60006020828403121561119857611197610c21565b5b60006111a68482850161116d565b91505092915050565b7f756e61626c6520746f207472616e73666572416e6443616c6c20746f206f726160008201527f636c650000000000000000000000000000000000000000000000000000000000602082015250565b600061120b602383610d24565b9150611216826111af565b604082019050919050565b6000602082019050818103600083015261123a816111fe565b9050919050565b600061124c82610dc7565b915061125783610dc7565b925082820261126581610dc7565b9150828204841483151761127c5761127b610dd1565b5b5092915050565b60008160011c9050919050565b6000808291508390505b60018511156112da578086048111156112b6576112b5610dd1565b5b60018516156112c55780820291505b80810290506112d385611283565b945061129a565b94509492505050565b6000826112f357600190506113af565b8161130157600090506113af565b8160018114611317576002811461132157611350565b60019150506113af565b60ff84111561133357611332610dd1565b5b8360020a91508482111561134a57611349610dd1565b5b506113af565b5060208310610133831016604e8410600b84101617156113855782820a9050838111156113805761137f610dd1565b5b6113af565b6113928484846001611290565b925090508184048111156113a9576113a8610dd1565b5b81810290505b9392505050565b60006113c182610dc7565b91506113cc83610dc7565b92506113f97fffffffffffffffffffffffffffffffffffffffffffffffffffffffffffffffff84846112e3565b90509291505056fea26469706673582212207cc52cfb29842707a61fbe9ba4bf9b9e5fc29a71ddf8185663fe298562d9c16764736f6c63430008130033",
  "immutableReferences": {},
  "source": "// SPDX-License-Identifier: MIT\r\n// https://glink.solutions\r\n// Discord=https://discord.gg/KmZVYhYJUy\r\n\r\n/**\r\n * THIS IS AN EXAMPLE CONTRACT WHICH USES HARDCODED VALUES FOR CLARITY.\r\n * THIS EXAMPLE USES UN-AUDITED CODE.\r\n * DO NOT USE THIS CODE IN PRODUCTION.\r\n */\r\n\r\npragma solidity ^0.8.7;\r\n\r\nimport \"@chainlink/contracts/src/v0.8/ChainlinkClient.sol\";\r\n\r\ncontract getAddressTemplate is ChainlinkClient {\r\n  using Chainlink for Chainlink.Request;\r\n\r\n  address public addressVariable;\r\n\r\n  bytes32 private externalJobId;\r\n  uint256 private oraclePayment;\r\n\r\n  constructor() {\r\n    setChainlinkToken(0x1B792475319E97186F676Bea61280388C0A12E7a); // main0x514910771AF9Ca656af840dff83E8264EcF986CA);\r\n    setChainlinkOracle(0x7688f589e82B96D800d542fCF2A039802ef3bf18);//(0x1db329cDE457D68B872766F4e12F9532BCA9149b);\r\n    externalJobId = \"12ebf2f1c3d441c4b10728a70bccecc3\";\r\n    //oraclePayment = ((14 * LINK_DIVISIBILITY) / 10); // n * 10**18\r\n    oraclePayment = 14 * 10**17; // 1.4 LINK tokens\r\n  }\r\n\r\n  event RequestFulfilled(bytes32 indexed requestId,address indexed addressVariable);\r\n\r\n  function RequestAddress()\r\n    public\r\n  {\r\n    Chainlink.Request memory req = buildChainlinkRequest(externalJobId, address(this), this.fulfillAddress.selector);\r\n    req.add(\"get\", \"https://192.168.3.66\");\r\n    req.add(\"path1\", \"data,results\");\r\n    sendOperatorRequest(req, oraclePayment);\r\n  }\r\n\r\n  function fulfillAddress(bytes32 requestId,address _addressVariable)\r\n    public\r\n    recordChainlinkFulfillment(requestId)\r\n  {\r\n    emit RequestFulfilled(requestId, _addressVariable);\r\n    addressVariable = _addressVariable;\r\n  }\r\n\r\n}",
  "sourcePath": "/media/fabric-orderer2/ethLink/Public/nodeLink/chainLink-eth/contracts/Address.sol",
  "compiler": {
    "name": "solc",
    "version": "0.8.19+commit.7dd6d404.Emscripten.clang"
  },
  "schemaVersion": "3.4.16",
  "updatedAt": "2024-03-25T15:54:51.605Z",
  "networkType": "ethereum",
  "devdoc": {
    "kind": "dev",
    "methods": {},
    "version": 1
  },
  "userdoc": {
    "kind": "user",
    "methods": {},
    "version": 1
  }
}