{
  "contractName": "getAddressTemplateOrigin",
  "abi": [
    {
      "inputs": [],
      "stateMutability": "nonpayable",
      "type": "constructor"
    },
    {
      "anonymous": false,
      "inputs": [
        {
          "indexed": true,
          "internalType": "bytes32",
          "name": "id",
          "type": "bytes32"
        }
      ],
      "name": "ChainlinkCancelled",
      "type": "event"
    },
    {
      "anonymous": false,
      "inputs": [
        {
          "indexed": true,
          "internalType": "bytes32",
          "name": "id",
          "type": "bytes32"
        }
      ],
      "name": "ChainlinkFulfilled",
      "type": "event"
    },
    {
      "anonymous": false,
      "inputs": [
        {
          "indexed": true,
          "internalType": "bytes32",
          "name": "id",
          "type": "bytes32"
        }
      ],
      "name": "ChainlinkRequested",
      "type": "event"
    },
    {
      "anonymous": false,
      "inputs": [
        {
          "indexed": false,
          "internalType": "uint256",
          "name": "volume",
          "type": "uint256"
        }
      ],
      "name": "DataFullfilled",
      "type": "event"
    },
    {
      "anonymous": false,
      "inputs": [
        {
          "indexed": false,
          "internalType": "string",
          "name": "message",
          "type": "string"
        }
      ],
      "name": "Log",
      "type": "event"
    },
    {
      "anonymous": false,
      "inputs": [
        {
          "indexed": true,
          "internalType": "bytes32",
          "name": "requestId",
          "type": "bytes32"
        },
        {
          "indexed": true,
          "internalType": "address",
          "name": "addressVariable",
          "type": "address"
        }
      ],
      "name": "RequestFulfilled",
      "type": "event"
    },
    {
      "inputs": [],
      "name": "addressVariable",
      "outputs": [
        {
          "internalType": "address",
          "name": "",
          "type": "address"
        }
      ],
      "stateMutability": "view",
      "type": "function",
      "constant": true
    },
    {
      "inputs": [],
      "name": "oracle",
      "outputs": [
        {
          "internalType": "address",
          "name": "",
          "type": "address"
        }
      ],
      "stateMutability": "view",
      "type": "function",
      "constant": true
    },
    {
      "inputs": [],
      "name": "test",
      "outputs": [
        {
          "internalType": "int256",
          "name": "",
          "type": "int256"
        }
      ],
      "stateMutability": "view",
      "type": "function",
      "constant": true
    },
    {
      "inputs": [],
      "name": "volume",
      "outputs": [
        {
          "internalType": "uint256",
          "name": "",
          "type": "uint256"
        }
      ],
      "stateMutability": "view",
      "type": "function",
      "constant": true
    },
    {
      "inputs": [],
      "name": "RequestAddress",
      "outputs": [
        {
          "internalType": "bytes32",
          "name": "requestId",
          "type": "bytes32"
        }
      ],
      "stateMutability": "nonpayable",
      "type": "function"
    },
    {
      "inputs": [
        {
          "internalType": "bytes32",
          "name": "requestId",
          "type": "bytes32"
        },
        {
          "internalType": "address",
          "name": "_addressVariable",
          "type": "address"
        }
      ],
      "name": "fulfillAddress",
      "outputs": [],
      "stateMutability": "nonpayable",
      "type": "function"
    },
    {
      "inputs": [],
      "name": "requestVolumeData",
      "outputs": [
        {
          "internalType": "bytes32",
          "name": "requestId",
          "type": "bytes32"
        }
      ],
      "stateMutability": "nonpayable",
      "type": "function"
    },
    {
      "inputs": [
        {
          "internalType": "bytes32",
          "name": "_requestId",
          "type": "bytes32"
        },
        {
          "internalType": "uint256",
          "name": "_volume",
          "type": "uint256"
        }
      ],
      "name": "fulfill",
      "outputs": [],
      "stateMutability": "nonpayable",
      "type": "function"
    },
    {
      "inputs": [],
      "name": "getVolume",
      "outputs": [
        {
          "internalType": "uint256",
          "name": "",
          "type": "uint256"
        }
      ],
      "stateMutability": "view",
      "type": "function",
      "constant": true
    }
  ],
  "bytecode": "0x608060405260016004553480156200001657600080fd5b506200003c733f5cba916576a6ce277da066fd210d895a595f716200011660201b60201c565b6200006173238bda11edc5cb0fc96a53a6c3953a6415793e966200015a60201b60201c565b7f3932343336636531396165363437363962363063366238343136623833303466600881905550600a670de0b6b3a7640000600e620000a19190620001d6565b620000ad91906200019e565b60098190555073238bda11edc5cb0fc96a53a6c3953a6415793e96600760006101000a81548173ffffffffffffffffffffffffffffffffffffffff021916908373ffffffffffffffffffffffffffffffffffffffff1602179055506000600a819055506200029f565b80600260006101000a81548173ffffffffffffffffffffffffffffffffffffffff021916908373ffffffffffffffffffffffffffffffffffffffff16021790555050565b80600360006101000a81548173ffffffffffffffffffffffffffffffffffffffff021916908373ffffffffffffffffffffffffffffffffffffffff16021790555050565b6000620001ab8262000237565b9150620001b88362000237565b925082620001cb57620001ca62000270565b5b828204905092915050565b6000620001e38262000237565b9150620001f08362000237565b9250817fffffffffffffffffffffffffffffffffffffffffffffffffffffffffffffffff04831182151516156200022c576200022b62000241565b5b828202905092915050565b6000819050919050565b7f4e487b7100000000000000000000000000000000000000000000000000000000600052601160045260246000fd5b7f4e487b7100000000000000000000000000000000000000000000000000000000600052601260045260246000fd5b611fe480620002af6000396000f3fe608060405234801561001057600080fd5b50600436106100935760003560e01c80637dc0d1d0116100665780637dc0d1d01461010c578063c618a1e41461012a578063c67bbc2414610148578063de5477fd14610166578063f8a8fd6d1461018457610093565b80634357855e146100985780636021abac146100b45780636b8e2096146100d25780636fa36bc6146100f0575b600080fd5b6100b260048036038101906100ad9190611482565b6101a2565b005b6100bc6102f4565b6040516100c991906117a3565b60405180910390f35b6100da610484565b6040516100e791906117a3565b60405180910390f35b61010a60048036038101906101059190611442565b610633565b005b6101146107ff565b604051610121919061164f565b60405180910390f35b610132610825565b60405161013f9190611879565b60405180910390f35b61015061082b565b60405161015d9190611879565b60405180910390f35b61016e610835565b60405161017b919061164f565b60405180910390f35b61018c61085b565b60405161019991906117be565b60405180910390f35b816005600082815260200190815260200160002060009054906101000a900473ffffffffffffffffffffffffffffffffffffffff1673ffffffffffffffffffffffffffffffffffffffff163373ffffffffffffffffffffffffffffffffffffffff1614610244576040517f08c379a000000000000000000000000000000000000000000000000000000000815260040161023b90611839565b60405180910390fd5b6005600082815260200190815260200160002060006101000a81549073ffffffffffffffffffffffffffffffffffffffff0219169055807f7cc135e0cebb02c3480ae5d74d377283180a2601f8f644edf7987b009316c63a60405160405180910390a26002600a8190555081600b819055507f221d507243adddffe789060be0e69bff4be830996c6b265bfda5083d86f88632600b546040516102e79190611879565b60405180910390a1505050565b60006001600a81905550600061031460085430634357855e60e01b610861565b90506103786040518060400160405280600381526020017f6765740000000000000000000000000000000000000000000000000000000000815250604051806080016040528060498152602001611f6660499139836108929092919063ffffffff16565b6103f76040518060400160405280600481526020017f70617468000000000000000000000000000000000000000000000000000000008152506040518060400160405280601881526020017f5241572c4554482c5553442c564f4c554d453234484f55520000000000000000815250836108929092919063ffffffff16565b6000670de0b6b3a7640000905061044e6040518060400160405280600581526020017f74696d657300000000000000000000000000000000000000000000000000000081525082846108c59092919063ffffffff16565b61047d600760009054906101000a900473ffffffffffffffffffffffffffffffffffffffff16836009546108f8565b9250505090565b60006001600a819055507fcf34ef537ac33ee1ac626ca1587a0a7e8e51561e5514f8cb36afa1c5102b3bab6040516104bb90611819565b60405180910390a160006104d960085430636fa36bc660e01b610861565b905061053d6040518060400160405280600381526020017f67657400000000000000000000000000000000000000000000000000000000008152506040518060a0016040528060688152602001611efe60689139836108929092919063ffffffff16565b6105bc6040518060400160405280600581526020017f70617468310000000000000000000000000000000000000000000000000000008152506040518060400160405280600c81526020017f646174615f616464726573730000000000000000000000000000000000000000815250836108929092919063ffffffff16565b7fcf34ef537ac33ee1ac626ca1587a0a7e8e51561e5514f8cb36afa1c5102b3bab6040516105e9906117d9565b60405180910390a16105fd816009546109c4565b5061062d600760009054906101000a900473ffffffffffffffffffffffffffffffffffffffff16826009546108f8565b91505090565b816005600082815260200190815260200160002060009054906101000a900473ffffffffffffffffffffffffffffffffffffffff1673ffffffffffffffffffffffffffffffffffffffff163373ffffffffffffffffffffffffffffffffffffffff16146106d5576040517f08c379a00000000000000000000000000000000000000000000000000000000081526004016106cc90611839565b60405180910390fd5b6005600082815260200190815260200160002060006101000a81549073ffffffffffffffffffffffffffffffffffffffff0219169055807f7cc135e0cebb02c3480ae5d74d377283180a2601f8f644edf7987b009316c63a60405160405180910390a26002600a819055507fcf34ef537ac33ee1ac626ca1587a0a7e8e51561e5514f8cb36afa1c5102b3bab60405161076d90611859565b60405180910390a18173ffffffffffffffffffffffffffffffffffffffff16837f830b60a027ae5718542482d9a0dff6192a316ad1720cd40a5b45aa1e21ab543a60405160405180910390a381600660006101000a81548173ffffffffffffffffffffffffffffffffffffffff021916908373ffffffffffffffffffffffffffffffffffffffff160217905550505050565b600760009054906101000a900473ffffffffffffffffffffffffffffffffffffffff1681565b600b5481565b6000600b54905090565b600660009054906101000a900473ffffffffffffffffffffffffffffffffffffffff1681565b600a5481565b61086961133a565b61087161133a565b610888858585846109fb909392919063ffffffff16565b9150509392505050565b6108a9828460800151610aab90919063ffffffff16565b6108c0818460800151610aab90919063ffffffff16565b505050565b6108dc828460800151610aab90919063ffffffff16565b6108f3818460800151610ad090919063ffffffff16565b505050565b600080600454905060018161090d91906118c1565b6004819055506000634042994660e01b60008087600001513089604001518760018c608001516000015160405160240161094e98979695949392919061166a565b604051602081830303815290604052907bffffffffffffffffffffffffffffffffffffffffffffffffffffffff19166020820180517bffffffffffffffffffffffffffffffffffffffffffffffffffffffff838183161783525050505090506109b986838684610b7d565b925050509392505050565b60006109f3600360009054906101000a900473ffffffffffffffffffffffffffffffffffffffff168484610d21565b905092915050565b610a0361133a565b610a138560800151610100610deb565b508385600001818152505082856020019073ffffffffffffffffffffffffffffffffffffffff16908173ffffffffffffffffffffffffffffffffffffffff16815250508185604001907bffffffffffffffffffffffffffffffffffffffffffffffffffffffff191690817bffffffffffffffffffffffffffffffffffffffffffffffffffffffff191681525050849050949350505050565b610ab88260038351610e55565b610acb8183610fda90919063ffffffff16565b505050565b7fffffffffffffffffffffffffffffffffffffffffffffffff0000000000000000811215610b0757610b028282610ffc565b610b79565b67ffffffffffffffff811315610b2657610b218282611073565b610b78565b60008112610b3f57610b3a82600083610e55565b610b77565b610b76826001837fffffffffffffffffffffffffffffffffffffffffffffffffffffffffffffffff610b719190611ae2565b610e55565b5b5b5b5050565b60003084604051602001610b92929190611623565b604051602081830303815290604052805190602001209050846005600083815260200190815260200160002060006101000a81548173ffffffffffffffffffffffffffffffffffffffff021916908373ffffffffffffffffffffffffffffffffffffffff160217905550807fb5e6e01e79f91267dc17b4e6314d5d4d03593d2ceee0fbb452b750bd70ea5af960405160405180910390a2600260009054906101000a900473ffffffffffffffffffffffffffffffffffffffff1673ffffffffffffffffffffffffffffffffffffffff16634000aea08685856040518463ffffffff1660e01b8152600401610c8893929190611765565b602060405180830381600087803b158015610ca257600080fd5b505af1158015610cb6573d6000803e3d6000fd5b505050506040513d601f19601f82011682018060405250810190610cda9190611415565b610d19576040517f08c379a0000000000000000000000000000000000000000000000000000000008152600401610d10906117f9565b60405180910390fd5b949350505050565b6000806004549050600181610d3691906118c1565b6004819055506000633c6d41b960e01b600080876000015188604001518660028b6080015160000151604051602401610d7597969594939291906116ef565b604051602081830303815290604052907bffffffffffffffffffffffffffffffffffffffffffffffffffffffff19166020820180517bffffffffffffffffffffffffffffffffffffffffffffffffffffffff83818316178352505050509050610de086838684610b7d565b925050509392505050565b610df36113a7565b6000602083610e029190611cc9565b14610e2e57602082610e149190611cc9565b6020610e209190611b76565b82610e2b91906118c1565b91505b81836020018181525050604051808452600081528281016020016040525082905092915050565b60178167ffffffffffffffff1611610e8c57610e868160058460ff16901b60ff1617846110bf90919063ffffffff16565b50610fd5565b60ff8167ffffffffffffffff1611610ee257610ebb601860058460ff16901b17846110bf90919063ffffffff16565b50610edc8167ffffffffffffffff166001856110df9092919063ffffffff16565b50610fd4565b61ffff8167ffffffffffffffff1611610f3957610f12601960058460ff16901b17846110bf90919063ffffffff16565b50610f338167ffffffffffffffff166002856110df9092919063ffffffff16565b50610fd3565b63ffffffff8167ffffffffffffffff1611610f9257610f6b601a60058460ff16901b17846110bf90919063ffffffff16565b50610f8c8167ffffffffffffffff166004856110df9092919063ffffffff16565b50610fd2565b610faf601b60058460ff16901b17846110bf90919063ffffffff16565b50610fd08167ffffffffffffffff166008856110df9092919063ffffffff16565b505b5b5b5b505050565b610fe26113a7565b610ff483846000015151848551611101565b905092915050565b61101a60036005600660ff16901b17836110bf90919063ffffffff16565b5061106f82827fffffffffffffffffffffffffffffffffffffffffffffffffffffffffffffffff61104b9190611ae2565b60405160200161105b9190611879565b6040516020818303038152906040526111f0565b5050565b61109160026005600660ff16901b17836110bf90919063ffffffff16565b506110bb82826040516020016110a79190611879565b6040516020818303038152906040526111f0565b5050565b6110c76113a7565b6110d78384600001515184611215565b905092915050565b6110e76113a7565b6110f884856000015151858561126c565b90509392505050565b6111096113a7565b825182111561111757600080fd5b8460200151828561112891906118c1565b111561115d5761115c85600261114d8860200151888761114891906118c1565b6112fa565b6111579190611a88565b611316565b5b60008086518051876020830101935080888701111561117c5787860182525b60208701925050505b602084106111c3578051825260208261119e91906118c1565b91506020816111ad91906118c1565b90506020846111bc9190611b76565b9350611185565b60006001856020036101000a03905080198251168184511681811785525050508692505050949350505050565b6111fd8260028351610e55565b6112108183610fda90919063ffffffff16565b505050565b61121d6113a7565b8360200151831061124357611242846002866020015161123d9190611a88565b611316565b5b835180516020858301018481538186141561125f576001820183525b5050508390509392505050565b6112746113a7565b8460200151848361128591906118c1565b11156112ad576112ac856002868561129d91906118c1565b6112a79190611a88565b611316565b5b60006001836101006112bf919061196a565b6112c99190611b76565b905085518386820101858319825116178152815185880111156112ec5784870182525b505085915050949350505050565b60008183111561130c57829050611310565b8190505b92915050565b6000826000015190506113298383610deb565b506113348382610fda565b50505050565b6040518060a0016040528060008019168152602001600073ffffffffffffffffffffffffffffffffffffffff16815260200160007bffffffffffffffffffffffffffffffffffffffffffffffffffffffff19168152602001600081526020016113a16113a7565b81525090565b604051806040016040528060608152602001600081525090565b6000813590506113d081611ea1565b92915050565b6000815190506113e581611eb8565b92915050565b6000813590506113fa81611ecf565b92915050565b60008135905061140f81611ee6565b92915050565b60006020828403121561142b5761142a611d58565b5b6000611439848285016113d6565b91505092915050565b6000806040838503121561145957611458611d58565b5b6000611467858286016113eb565b9250506020611478858286016113c1565b9150509250929050565b6000806040838503121561149957611498611d58565b5b60006114a7858286016113eb565b92505060206114b885828601611400565b9150509250929050565b6114cb81611baa565b82525050565b6114da81611bc8565b82525050565b6114e981611bd2565b82525050565b60006114fa82611894565b611504818561189f565b9350611514818560208601611c68565b61151d81611d5d565b840191505092915050565b61153961153482611c32565b611c9b565b82525050565b61154881611bfe565b82525050565b600061155b6013836118b0565b915061156682611d88565b602082019050919050565b600061157e6023836118b0565b915061158982611db1565b604082019050919050565b60006115a1600e836118b0565b91506115ac82611e00565b602082019050919050565b60006115c46028836118b0565b91506115cf82611e29565b604082019050919050565b60006115e7600e836118b0565b91506115f282611e78565b602082019050919050565b61160681611c28565b82525050565b61161d61161882611c28565b611cbf565b82525050565b600061162f8285611528565b60148201915061163f828461160c565b6020820191508190509392505050565b600060208201905061166460008301846114c2565b92915050565b600061010082019050611680600083018b6114c2565b61168d602083018a6115fd565b61169a60408301896114d1565b6116a760608301886114c2565b6116b460808301876114e0565b6116c160a08301866115fd565b6116ce60c08301856115fd565b81810360e08301526116e081846114ef565b90509998505050505050505050565b600060e082019050611704600083018a6114c2565b61171160208301896115fd565b61171e60408301886114d1565b61172b60608301876114e0565b61173860808301866115fd565b61174560a08301856115fd565b81810360c083015261175781846114ef565b905098975050505050505050565b600060608201905061177a60008301866114c2565b61178760208301856115fd565b818103604083015261179981846114ef565b9050949350505050565b60006020820190506117b860008301846114d1565b92915050565b60006020820190506117d3600083018461153f565b92915050565b600060208201905081810360008301526117f28161154e565b9050919050565b6000602082019050818103600083015261181281611571565b9050919050565b6000602082019050818103600083015261183281611594565b9050919050565b60006020820190508181036000830152611852816115b7565b9050919050565b60006020820190508181036000830152611872816115da565b9050919050565b600060208201905061188e60008301846115fd565b92915050565b600081519050919050565b600082825260208201905092915050565b600082825260208201905092915050565b60006118cc82611c28565b91506118d783611c28565b9250827fffffffffffffffffffffffffffffffffffffffffffffffffffffffffffffffff0382111561190c5761190b611cfa565b5b828201905092915050565b6000808291508390505b60018511156119615780860481111561193d5761193c611cfa565b5b600185161561194c5780820291505b808102905061195a85611d7b565b9450611921565b94509492505050565b600061197582611c28565b915061198083611c28565b92506119ad7fffffffffffffffffffffffffffffffffffffffffffffffffffffffffffffffff84846119b5565b905092915050565b6000826119c55760019050611a81565b816119d35760009050611a81565b81600181146119e957600281146119f357611a22565b6001915050611a81565b60ff841115611a0557611a04611cfa565b5b8360020a915084821115611a1c57611a1b611cfa565b5b50611a81565b5060208310610133831016604e8410600b8410161715611a575782820a905083811115611a5257611a51611cfa565b5b611a81565b611a648484846001611917565b92509050818404811115611a7b57611a7a611cfa565b5b81810290505b9392505050565b6000611a9382611c28565b9150611a9e83611c28565b9250817fffffffffffffffffffffffffffffffffffffffffffffffffffffffffffffffff0483118215151615611ad757611ad6611cfa565b5b828202905092915050565b6000611aed82611bfe565b9150611af883611bfe565b9250827f800000000000000000000000000000000000000000000000000000000000000001821260008412151615611b3357611b32611cfa565b5b827f7fffffffffffffffffffffffffffffffffffffffffffffffffffffffffffffff018213600084121615611b6b57611b6a611cfa565b5b828203905092915050565b6000611b8182611c28565b9150611b8c83611c28565b925082821015611b9f57611b9e611cfa565b5b828203905092915050565b6000611bb582611c08565b9050919050565b60008115159050919050565b6000819050919050565b60007fffffffff0000000000000000000000000000000000000000000000000000000082169050919050565b6000819050919050565b600073ffffffffffffffffffffffffffffffffffffffff82169050919050565b6000819050919050565b6000611c3d82611c44565b9050919050565b6000611c4f82611c56565b9050919050565b6000611c6182611c08565b9050919050565b60005b83811015611c86578082015181840152602081019050611c6b565b83811115611c95576000848401525b50505050565b6000611ca682611cad565b9050919050565b6000611cb882611d6e565b9050919050565b6000819050919050565b6000611cd482611c28565b9150611cdf83611c28565b925082611cef57611cee611d29565b5b828206905092915050565b7f4e487b7100000000000000000000000000000000000000000000000000000000600052601160045260246000fd5b7f4e487b7100000000000000000000000000000000000000000000000000000000600052601260045260246000fd5b600080fd5b6000601f19601f8301169050919050565b60008160601b9050919050565b60008160011c9050919050565b7f73656e644f70657261746f725265717565737400000000000000000000000000600082015250565b7f756e61626c6520746f207472616e73666572416e6443616c6c20746f206f726160008201527f636c650000000000000000000000000000000000000000000000000000000000602082015250565b7f5265717565737441646472657373000000000000000000000000000000000000600082015250565b7f536f75726365206d75737420626520746865206f7261636c65206f662074686560008201527f2072657175657374000000000000000000000000000000000000000000000000602082015250565b7f66756c66696c6c41646472657373000000000000000000000000000000000000600082015250565b611eaa81611baa565b8114611eb557600080fd5b50565b611ec181611bbc565b8114611ecc57600080fd5b50565b611ed881611bc8565b8114611ee357600080fd5b50565b611eef81611c28565b8114611efa57600080fd5b5056fe68747470733a2f2f7261772e67697468756275736572636f6e74656e742e636f6d2f676c696e6b6e6f64652f636861696e6c696e6b2d7075626c69632d6a6f62732f6d61696e2f6578616d706c652d6a736f6e2f6578616d706c652d616464726573732e6a736f6e68747470733a2f2f6d696e2d6170692e63727970746f636f6d706172652e636f6d2f646174612f70726963656d756c746966756c6c3f6673796d733d455448267473796d733d555344a26469706673582212207f7c977a0b08a977fc146ea0d2c494f739f439fa4fbe604ba6787f763a07cb4164736f6c63430008070033",
  "immutableReferences": {},
  "source": "// SPDX-License-Identifier: MIT\r\n// https://glink.solutions\r\n// Discord=https://discord.gg/KmZVYhYJUy\r\n\r\n/**\r\n * THIS IS AN EXAMPLE CONTRACT WHICH USES HARDCODED VALUES FOR CLARITY.\r\n * THIS EXAMPLE USES UN-AUDITED CODE.\r\n * DO NOT USE THIS CODE IN PRODUCTION.\r\n */\r\n\r\npragma solidity 0.8.7;\r\n\r\nimport \"@chainlink/contracts/src/v0.8/ChainlinkClient.sol\";\r\n\r\ncontract getAddressTemplateOrigin is ChainlinkClient {\r\n  using Chainlink for Chainlink.Request;\r\n\r\n  address public addressVariable;\r\n  address public oracle;\r\n\r\n  bytes32 private externalJobId;\r\n  uint256 private oraclePayment;\r\n\r\n  int public test;\r\n\r\n  uint256 public volume;\r\n\r\n  event RequestFulfilled(bytes32 indexed requestId,address indexed addressVariable);\r\n  event Log(string message); // log event\r\n\r\n  event DataFullfilled(uint256 volume);\r\n\r\n  constructor() {\r\n    //setPublicChainlinkToken();\r\n    setChainlinkToken(0x3f5CBA916576A6Ce277dA066fD210D895a595F71);\r\n    //oracle = \"0x0006f26f6489eA3b3f58BCDaFb65271a30130FdB\"; // This should be the oracle address\r\n    setChainlinkOracle(0x238BDA11EDC5CB0fC96a53A6c3953a6415793e96);\r\n    externalJobId = \"92436ce19ae64769b60c6b8416b8304f\"; // This should be the job id\r\n\r\n    oraclePayment = ((14 * LINK_DIVISIBILITY) / 10); // n * 10**18\r\n    oracle = 0x238BDA11EDC5CB0fC96a53A6c3953a6415793e96;\r\n    test = 0;\r\n  }\r\n\r\n  function RequestAddress()\r\n    public returns (bytes32 requestId) \r\n  {\r\n    test = 1;\r\n    emit Log(\"RequestAddress\");\r\n    Chainlink.Request memory req = buildChainlinkRequest(externalJobId, address(this), this.fulfillAddress.selector);\r\n    req.add(\"get\", \"https://raw.githubusercontent.com/glinknode/chainlink-public-jobs/main/example-json/example-address.json\");\r\n    req.add(\"path1\", \"data_address\");\r\n\r\n    emit Log(\"sendOperatorRequest\");\r\n    sendOperatorRequest(req, oraclePayment);\r\n    //sendOperatorRequest(req, oraclePayment);\r\n    // Sends the request\r\n    return sendChainlinkRequestTo(oracle, req, oraclePayment);\r\n  }\r\n\r\n  function fulfillAddress(bytes32 requestId,address _addressVariable)\r\n    public\r\n    recordChainlinkFulfillment(requestId)\r\n  {\r\n    test = 2;    \r\n    emit Log(\"fulfillAddress\");\r\n    emit RequestFulfilled(requestId, _addressVariable);\r\n    addressVariable = _addressVariable;\r\n  }\r\n\r\n  /**\r\n    * Create a Chainlink request to retrieve API response, find the target\r\n    * data, then multiply by 1000000000000000000 (to remove decimal places from data).\r\n    */\r\n  function requestVolumeData() public returns (bytes32 requestId) {\r\n    test = 1;\r\n    Chainlink.Request memory request = buildChainlinkRequest(\r\n        externalJobId,\r\n        address(this),\r\n        this.fulfill.selector\r\n    );\r\n\r\n    // Set the URL to perform the GET request on\r\n    request.add(\r\n        \"get\",\r\n        \"https://min-api.cryptocompare.com/data/pricemultifull?fsyms=ETH&tsyms=USD\"\r\n    );\r\n\r\n    // Set the path to find the desired data in the API response, where the response format is:\r\n    // {\"RAW\":\r\n    //   {\"ETH\":\r\n    //    {\"USD\":\r\n    //     {\r\n    //      \"VOLUME24HOUR\": xxx.xxx,\r\n    //     }\r\n    //    }\r\n    //   }\r\n    //  }\r\n    request.add(\"path\", \"RAW,ETH,USD,VOLUME24HOUR\");\r\n\r\n    // Multiply the result by 1000000000000000000 to remove decimals\r\n    int timesAmount = 10**18;\r\n    request.addInt(\"times\", timesAmount);\r\n\r\n    // Sends the request\r\n    return sendChainlinkRequestTo(oracle, request, oraclePayment);\r\n  }\r\n  /**\r\n    * Receive the response in the form of uint256\r\n    */\r\n  function fulfill(bytes32 _requestId, uint256 _volume)\r\n      public\r\n      recordChainlinkFulfillment(_requestId)\r\n  {\r\n      test = 2;\r\n      volume = _volume;\r\n      emit DataFullfilled(volume);\r\n  }\r\n\r\n  function getVolume() public view returns (uint256) {\r\n    return volume;\r\n  }\r\n}",
  "sourcePath": "/media/fabric-orderer2/ethLink/Public/nodeLink/chainLink-eth/contracts/getAddressTemplateOrigin.sol",
  "compiler": {
    "name": "solc",
    "version": "0.8.7+commit.e28d00a7.Emscripten.clang"
  },
  "schemaVersion": "3.4.16",
  "updatedAt": "2024-04-18T11:23:12.167Z",
  "networkType": "ethereum",
  "devdoc": {
    "kind": "dev",
    "methods": {},
    "version": 1
  },
  "userdoc": {
    "kind": "user",
    "methods": {
      "fulfill(bytes32,uint256)": {
        "notice": "Receive the response in the form of uint256"
      },
      "requestVolumeData()": {
        "notice": "Create a Chainlink request to retrieve API response, find the target data, then multiply by 1000000000000000000 (to remove decimal places from data)."
      }
    },
    "version": 1
  }
}