{
  "contractName": "getBoolTemplate",
  "abi": [
    {
      "inputs": [],
      "stateMutability": "nonpayable",
      "type": "constructor"
    },
    {
      "anonymous": false,
      "inputs": [
        {
          "indexed": true,
          "internalType": "bytes32",
          "name": "id",
          "type": "bytes32"
        }
      ],
      "name": "ChainlinkCancelled",
      "type": "event"
    },
    {
      "anonymous": false,
      "inputs": [
        {
          "indexed": true,
          "internalType": "bytes32",
          "name": "id",
          "type": "bytes32"
        }
      ],
      "name": "ChainlinkFulfilled",
      "type": "event"
    },
    {
      "anonymous": false,
      "inputs": [
        {
          "indexed": true,
          "internalType": "bytes32",
          "name": "id",
          "type": "bytes32"
        }
      ],
      "name": "ChainlinkRequested",
      "type": "event"
    },
    {
      "anonymous": false,
      "inputs": [
        {
          "indexed": true,
          "internalType": "address",
          "name": "from",
          "type": "address"
        },
        {
          "indexed": true,
          "internalType": "address",
          "name": "to",
          "type": "address"
        }
      ],
      "name": "OwnershipTransferRequested",
      "type": "event"
    },
    {
      "anonymous": false,
      "inputs": [
        {
          "indexed": true,
          "internalType": "address",
          "name": "from",
          "type": "address"
        },
        {
          "indexed": true,
          "internalType": "address",
          "name": "to",
          "type": "address"
        }
      ],
      "name": "OwnershipTransferred",
      "type": "event"
    },
    {
      "anonymous": false,
      "inputs": [
        {
          "indexed": false,
          "internalType": "string",
          "name": "message",
          "type": "string"
        }
      ],
      "name": "RequestBoolCalled",
      "type": "event"
    },
    {
      "anonymous": false,
      "inputs": [
        {
          "indexed": true,
          "internalType": "bytes32",
          "name": "requestId",
          "type": "bytes32"
        },
        {
          "indexed": true,
          "internalType": "bool",
          "name": "boolean",
          "type": "bool"
        }
      ],
      "name": "RequestBoolFulfilled",
      "type": "event"
    },
    {
      "inputs": [],
      "name": "acceptOwnership",
      "outputs": [],
      "stateMutability": "nonpayable",
      "type": "function"
    },
    {
      "inputs": [],
      "name": "boolean",
      "outputs": [
        {
          "internalType": "bool",
          "name": "",
          "type": "bool"
        }
      ],
      "stateMutability": "view",
      "type": "function",
      "constant": true
    },
    {
      "inputs": [],
      "name": "owner",
      "outputs": [
        {
          "internalType": "address",
          "name": "",
          "type": "address"
        }
      ],
      "stateMutability": "view",
      "type": "function",
      "constant": true
    },
    {
      "inputs": [
        {
          "internalType": "address",
          "name": "to",
          "type": "address"
        }
      ],
      "name": "transferOwnership",
      "outputs": [],
      "stateMutability": "nonpayable",
      "type": "function"
    },
    {
      "inputs": [],
      "name": "requestBool",
      "outputs": [],
      "stateMutability": "nonpayable",
      "type": "function"
    },
    {
      "inputs": [
        {
          "internalType": "bytes32",
          "name": "_requestId",
          "type": "bytes32"
        },
        {
          "internalType": "bool",
          "name": "_boolean",
          "type": "bool"
        }
      ],
      "name": "fulfillBool",
      "outputs": [],
      "stateMutability": "nonpayable",
      "type": "function"
    }
  ],
  "bytecode": "0x608060405260016004553480156200001657600080fd5b50338060008073ffffffffffffffffffffffffffffffffffffffff168273ffffffffffffffffffffffffffffffffffffffff16036200008c576040517f08c379a00000000000000000000000000000000000000000000000000000000081526004016200008390620003bf565b60405180910390fd5b81600660006101000a81548173ffffffffffffffffffffffffffffffffffffffff021916908373ffffffffffffffffffffffffffffffffffffffff160217905550600073ffffffffffffffffffffffffffffffffffffffff168173ffffffffffffffffffffffffffffffffffffffff161462000114576200011381620001e960201b60201c565b5b5050506200013c730e3c944f32bcc729d292f8f0f5521453320111046200031a60201b60201c565b73e15e23a8ba28745623382a54b999145c49e70bf9600a60006101000a81548173ffffffffffffffffffffffffffffffffffffffff021916908373ffffffffffffffffffffffffffffffffffffffff1602179055507f3836316261386566356166303435643839613962356233643733376230363866600881905550600a670de0b6b3a7640000600e620001d191906200041a565b620001dd919062000494565b6009819055506200053e565b3373ffffffffffffffffffffffffffffffffffffffff168173ffffffffffffffffffffffffffffffffffffffff16036200025a576040517f08c379a000000000000000000000000000000000000000000000000000000000815260040162000251906200051c565b60405180910390fd5b80600760006101000a81548173ffffffffffffffffffffffffffffffffffffffff021916908373ffffffffffffffffffffffffffffffffffffffff1602179055508073ffffffffffffffffffffffffffffffffffffffff16600660009054906101000a900473ffffffffffffffffffffffffffffffffffffffff1673ffffffffffffffffffffffffffffffffffffffff167fed8889f560326eb138920d842192f0eb3dd22b4f139c87a2c57538e05bae127860405160405180910390a350565b80600260006101000a81548173ffffffffffffffffffffffffffffffffffffffff021916908373ffffffffffffffffffffffffffffffffffffffff16021790555050565b600082825260208201905092915050565b7f43616e6e6f7420736574206f776e657220746f207a65726f0000000000000000600082015250565b6000620003a76018836200035e565b9150620003b4826200036f565b602082019050919050565b60006020820190508181036000830152620003da8162000398565b9050919050565b6000819050919050565b7f4e487b7100000000000000000000000000000000000000000000000000000000600052601160045260246000fd5b60006200042782620003e1565b91506200043483620003e1565b92508282026200044481620003e1565b915082820484148315176200045e576200045d620003eb565b5b5092915050565b7f4e487b7100000000000000000000000000000000000000000000000000000000600052601260045260246000fd5b6000620004a182620003e1565b9150620004ae83620003e1565b925082620004c157620004c062000465565b5b828204905092915050565b7f43616e6e6f74207472616e7366657220746f2073656c66000000000000000000600082015250565b6000620005046017836200035e565b91506200051182620004cc565b602082019050919050565b600060208201905081810360008301526200053781620004f5565b9050919050565b611a81806200054e6000396000f3fe608060405234801561001057600080fd5b50600436106100625760003560e01c8063321465041461006757806379ba5097146100835780638da5cb5b1461008d578063c5b57bdb146100ab578063cc9df9f1146100c9578063f2fde38b146100d3575b600080fd5b610081600480360381019061007c919061104e565b6100ef565b005b61008b610243565b005b6100956103da565b6040516100a291906110cf565b60405180910390f35b6100b3610404565b6040516100c091906110f9565b60405180910390f35b6100d1610417565b005b6100ed60048036038101906100e89190611140565b610580565b005b816005600082815260200190815260200160002060009054906101000a900473ffffffffffffffffffffffffffffffffffffffff1673ffffffffffffffffffffffffffffffffffffffff163373ffffffffffffffffffffffffffffffffffffffff1614610191576040517f08c379a0000000000000000000000000000000000000000000000000000000008152600401610188906111f0565b60405180910390fd5b6005600082815260200190815260200160002060006101000a81549073ffffffffffffffffffffffffffffffffffffffff0219169055807f7cc135e0cebb02c3480ae5d74d377283180a2601f8f644edf7987b009316c63a60405160405180910390a2811515837f9b84f43516888b22385e756863c27280a5d2b87577c9b9459181c0d9be92829d60405160405180910390a381600760146101000a81548160ff021916908315150217905550505050565b600760009054906101000a900473ffffffffffffffffffffffffffffffffffffffff1673ffffffffffffffffffffffffffffffffffffffff163373ffffffffffffffffffffffffffffffffffffffff16146102d3576040517f08c379a00000000000000000000000000000000000000000000000000000000081526004016102ca9061125c565b60405180910390fd5b6000600660009054906101000a900473ffffffffffffffffffffffffffffffffffffffff16905033600660006101000a81548173ffffffffffffffffffffffffffffffffffffffff021916908373ffffffffffffffffffffffffffffffffffffffff1602179055506000600760006101000a81548173ffffffffffffffffffffffffffffffffffffffff021916908373ffffffffffffffffffffffffffffffffffffffff1602179055503373ffffffffffffffffffffffffffffffffffffffff168173ffffffffffffffffffffffffffffffffffffffff167f8be0079c531659141344cd1fd0a4f28419497f9722a3daafe3b4186f6b6457e060405160405180910390a350565b6000600660009054906101000a900473ffffffffffffffffffffffffffffffffffffffff16905090565b600760149054906101000a900460ff1681565b61041f610594565b7f5df76440c59e679a550ddbca8d925a744c819029d514ed90f312e488c143a93560405161044c906112c8565b60405180910390a1600061046a60085430633214650460e01b610626565b90506104ce6040518060400160405280600381526020017f67657400000000000000000000000000000000000000000000000000000000008152506040518060a00160405280606581526020016119e760659139836106579092919063ffffffff16565b61054d6040518060400160405280600481526020017f70617468000000000000000000000000000000000000000000000000000000008152506040518060400160405280600981526020017f646174615f626f6f6c0000000000000000000000000000000000000000000000815250836106579092919063ffffffff16565b61057c600a60009054906101000a900473ffffffffffffffffffffffffffffffffffffffff168260095461068a565b5050565b610588610594565b61059181610756565b50565b600660009054906101000a900473ffffffffffffffffffffffffffffffffffffffff1673ffffffffffffffffffffffffffffffffffffffff163373ffffffffffffffffffffffffffffffffffffffff1614610624576040517f08c379a000000000000000000000000000000000000000000000000000000000815260040161061b90611334565b60405180910390fd5b565b61062e610f54565b610636610f54565b61064d85858584610884909392919063ffffffff16565b9150509392505050565b61066e82846080015161093490919063ffffffff16565b61068581846080015161093490919063ffffffff16565b505050565b600080600454905060018161069f919061138d565b6004819055506000634042994660e01b60008087600001513089604001518760018c60800151600001516040516024016106e09897969594939291906114aa565b604051602081830303815290604052907bffffffffffffffffffffffffffffffffffffffffffffffffffffffff19166020820180517bffffffffffffffffffffffffffffffffffffffffffffffffffffffff8381831617835250505050905061074b86838684610959565b925050509392505050565b3373ffffffffffffffffffffffffffffffffffffffff168173ffffffffffffffffffffffffffffffffffffffff16036107c4576040517f08c379a00000000000000000000000000000000000000000000000000000000081526004016107bb9061157b565b60405180910390fd5b80600760006101000a81548173ffffffffffffffffffffffffffffffffffffffff021916908373ffffffffffffffffffffffffffffffffffffffff1602179055508073ffffffffffffffffffffffffffffffffffffffff16600660009054906101000a900473ffffffffffffffffffffffffffffffffffffffff1673ffffffffffffffffffffffffffffffffffffffff167fed8889f560326eb138920d842192f0eb3dd22b4f139c87a2c57538e05bae127860405160405180910390a350565b61088c610f54565b61089c8560800151610100610aee565b508385600001818152505082856020019073ffffffffffffffffffffffffffffffffffffffff16908173ffffffffffffffffffffffffffffffffffffffff16815250508185604001907bffffffffffffffffffffffffffffffffffffffffffffffffffffffff191690817bffffffffffffffffffffffffffffffffffffffffffffffffffffffff191681525050849050949350505050565b6109418260038351610b58565b6109548183610cdd90919063ffffffff16565b505050565b6000308460405160200161096e929190611654565b604051602081830303815290604052805190602001209050846005600083815260200190815260200160002060006101000a81548173ffffffffffffffffffffffffffffffffffffffff021916908373ffffffffffffffffffffffffffffffffffffffff160217905550807fb5e6e01e79f91267dc17b4e6314d5d4d03593d2ceee0fbb452b750bd70ea5af960405160405180910390a2600260009054906101000a900473ffffffffffffffffffffffffffffffffffffffff1673ffffffffffffffffffffffffffffffffffffffff16634000aea08685856040518463ffffffff1660e01b8152600401610a6493929190611680565b6020604051808303816000875af1158015610a83573d6000803e3d6000fd5b505050506040513d601f19601f82011682018060405250810190610aa791906116d3565b610ae6576040517f08c379a0000000000000000000000000000000000000000000000000000000008152600401610add90611772565b60405180910390fd5b949350505050565b610af6610fc1565b6000602083610b0591906117c1565b14610b3157602082610b1791906117c1565b6020610b2391906117f2565b82610b2e919061138d565b91505b81836020018181525050604051808452600081528281016020016040525082905092915050565b60178167ffffffffffffffff1611610b8f57610b898160058460ff16901b60ff161784610cff90919063ffffffff16565b50610cd8565b60ff8167ffffffffffffffff1611610be557610bbe601860058460ff16901b1784610cff90919063ffffffff16565b50610bdf8167ffffffffffffffff16600185610d1f9092919063ffffffff16565b50610cd7565b61ffff8167ffffffffffffffff1611610c3c57610c15601960058460ff16901b1784610cff90919063ffffffff16565b50610c368167ffffffffffffffff16600285610d1f9092919063ffffffff16565b50610cd6565b63ffffffff8167ffffffffffffffff1611610c9557610c6e601a60058460ff16901b1784610cff90919063ffffffff16565b50610c8f8167ffffffffffffffff16600485610d1f9092919063ffffffff16565b50610cd5565b610cb2601b60058460ff16901b1784610cff90919063ffffffff16565b50610cd38167ffffffffffffffff16600885610d1f9092919063ffffffff16565b505b5b5b5b505050565b610ce5610fc1565b610cf783846000015151848551610d41565b905092915050565b610d07610fc1565b610d178384600001515184610e30565b905092915050565b610d27610fc1565b610d38848560000151518585610e86565b90509392505050565b610d49610fc1565b8251821115610d5757600080fd5b84602001518285610d68919061138d565b1115610d9d57610d9c856002610d8d88602001518887610d88919061138d565b610f14565b610d979190611826565b610f30565b5b600080865180518760208301019350808887011115610dbc5787860182525b60208701925050505b60208410610e035780518252602082610dde919061138d565b9150602081610ded919061138d565b9050602084610dfc91906117f2565b9350610dc5565b60006001856020036101000a03905080198251168184511681811785525050508692505050949350505050565b610e38610fc1565b83602001518310610e5e57610e5d8460028660200151610e589190611826565b610f30565b5b83518051602085830101848153818603610e79576001820183525b5050508390509392505050565b610e8e610fc1565b84602001518483610e9f919061138d565b1115610ec757610ec68560028685610eb7919061138d565b610ec19190611826565b610f30565b5b6000600183610100610ed9919061199b565b610ee391906117f2565b90508551838682010185831982511617815281518588011115610f065784870182525b505085915050949350505050565b600081831115610f2657829050610f2a565b8190505b92915050565b600082600001519050610f438383610aee565b50610f4e8382610cdd565b50505050565b6040518060a0016040528060008019168152602001600073ffffffffffffffffffffffffffffffffffffffff16815260200160007bffffffffffffffffffffffffffffffffffffffffffffffffffffffff1916815260200160008152602001610fbb610fc1565b81525090565b604051806040016040528060608152602001600081525090565b600080fd5b6000819050919050565b610ff381610fe0565b8114610ffe57600080fd5b50565b60008135905061101081610fea565b92915050565b60008115159050919050565b61102b81611016565b811461103657600080fd5b50565b60008135905061104881611022565b92915050565b6000806040838503121561106557611064610fdb565b5b600061107385828601611001565b925050602061108485828601611039565b9150509250929050565b600073ffffffffffffffffffffffffffffffffffffffff82169050919050565b60006110b98261108e565b9050919050565b6110c9816110ae565b82525050565b60006020820190506110e460008301846110c0565b92915050565b6110f381611016565b82525050565b600060208201905061110e60008301846110ea565b92915050565b61111d816110ae565b811461112857600080fd5b50565b60008135905061113a81611114565b92915050565b60006020828403121561115657611155610fdb565b5b60006111648482850161112b565b91505092915050565b600082825260208201905092915050565b7f536f75726365206d75737420626520746865206f7261636c65206f662074686560008201527f2072657175657374000000000000000000000000000000000000000000000000602082015250565b60006111da60288361116d565b91506111e58261117e565b604082019050919050565b60006020820190508181036000830152611209816111cd565b9050919050565b7f4d7573742062652070726f706f736564206f776e657200000000000000000000600082015250565b600061124660168361116d565b915061125182611210565b602082019050919050565b6000602082019050818103600083015261127581611239565b9050919050565b7f72657175657374426f6f6c2066756e6374696f6e207761732063616c6c656400600082015250565b60006112b2601f8361116d565b91506112bd8261127c565b602082019050919050565b600060208201905081810360008301526112e1816112a5565b9050919050565b7f4f6e6c792063616c6c61626c65206279206f776e657200000000000000000000600082015250565b600061131e60168361116d565b9150611329826112e8565b602082019050919050565b6000602082019050818103600083015261134d81611311565b9050919050565b6000819050919050565b7f4e487b7100000000000000000000000000000000000000000000000000000000600052601160045260246000fd5b600061139882611354565b91506113a383611354565b92508282019050808211156113bb576113ba61135e565b5b92915050565b6113ca81611354565b82525050565b6113d981610fe0565b82525050565b60007fffffffff0000000000000000000000000000000000000000000000000000000082169050919050565b611414816113df565b82525050565b600081519050919050565b600082825260208201905092915050565b60005b83811015611454578082015181840152602081019050611439565b60008484015250505050565b6000601f19601f8301169050919050565b600061147c8261141a565b6114868185611425565b9350611496818560208601611436565b61149f81611460565b840191505092915050565b6000610100820190506114c0600083018b6110c0565b6114cd602083018a6113c1565b6114da60408301896113d0565b6114e760608301886110c0565b6114f4608083018761140b565b61150160a08301866113c1565b61150e60c08301856113c1565b81810360e08301526115208184611471565b90509998505050505050505050565b7f43616e6e6f74207472616e7366657220746f2073656c66000000000000000000600082015250565b600061156560178361116d565b91506115708261152f565b602082019050919050565b6000602082019050818103600083015261159481611558565b9050919050565b6000819050919050565b60006115c06115bb6115b68461108e565b61159b565b61108e565b9050919050565b60006115d2826115a5565b9050919050565b60006115e4826115c7565b9050919050565b60008160601b9050919050565b6000611603826115eb565b9050919050565b6000611615826115f8565b9050919050565b61162d611628826115d9565b61160a565b82525050565b6000819050919050565b61164e61164982611354565b611633565b82525050565b6000611660828561161c565b601482019150611670828461163d565b6020820191508190509392505050565b600060608201905061169560008301866110c0565b6116a260208301856113c1565b81810360408301526116b48184611471565b9050949350505050565b6000815190506116cd81611022565b92915050565b6000602082840312156116e9576116e8610fdb565b5b60006116f7848285016116be565b91505092915050565b7f756e61626c6520746f207472616e73666572416e6443616c6c20746f206f726160008201527f636c650000000000000000000000000000000000000000000000000000000000602082015250565b600061175c60238361116d565b915061176782611700565b604082019050919050565b6000602082019050818103600083015261178b8161174f565b9050919050565b7f4e487b7100000000000000000000000000000000000000000000000000000000600052601260045260246000fd5b60006117cc82611354565b91506117d783611354565b9250826117e7576117e6611792565b5b828206905092915050565b60006117fd82611354565b915061180883611354565b92508282039050818111156118205761181f61135e565b5b92915050565b600061183182611354565b915061183c83611354565b925082820261184a81611354565b915082820484148315176118615761186061135e565b5b5092915050565b60008160011c9050919050565b6000808291508390505b60018511156118bf5780860481111561189b5761189a61135e565b5b60018516156118aa5780820291505b80810290506118b885611868565b945061187f565b94509492505050565b6000826118d85760019050611994565b816118e65760009050611994565b81600181146118fc576002811461190657611935565b6001915050611994565b60ff8411156119185761191761135e565b5b8360020a91508482111561192f5761192e61135e565b5b50611994565b5060208310610133831016604e8410600b841016171561196a5782820a9050838111156119655761196461135e565b5b611994565b6119778484846001611875565b9250905081840481111561198e5761198d61135e565b5b81810290505b9392505050565b60006119a682611354565b91506119b183611354565b92506119de7fffffffffffffffffffffffffffffffffffffffffffffffffffffffffffffffff84846118c8565b90509291505056fe68747470733a2f2f7261772e67697468756275736572636f6e74656e742e636f6d2f676c696e6b6e6f64652f636861696e6c696e6b2d7075626c69632d6a6f62732f6d61696e2f6578616d706c652d6a736f6e2f6578616d706c652d626f6f6c2e6a736f6ea26469706673582212207fbece106c48ad5b654e13347a89fa3506f30b02fa5bcc111ab410d8b0e0f0da64736f6c63430008130033",
  "immutableReferences": {},
  "source": "// SPDX-License-Identifier: MIT\r\n// https://glink.solutions\r\n// Discord=https://discord.gg/KmZVYhYJUy\r\n\r\n/**\r\n * THIS IS AN EXAMPLE CONTRACT WHICH USES HARDCODED VALUES FOR CLARITY.\r\n * THIS EXAMPLE USES UN-AUDITED CODE.\r\n * DO NOT USE THIS CODE IN PRODUCTION.\r\n */\r\n\r\npragma solidity ^0.8.7;\r\n\r\nimport \"@chainlink/contracts/src/v0.8/ChainlinkClient.sol\";\r\nimport \"@chainlink/contracts/src/v0.8/ConfirmedOwner.sol\";\r\n\r\ncontract getBoolTemplate is ChainlinkClient, ConfirmedOwner {\r\n  using Chainlink for Chainlink.Request;\r\n\r\n  bool public boolean;\r\n  \r\n  bytes32 private externalJobId;\r\n  uint256 private oraclePayment;\r\n  address private oracle;\r\n\r\n  event RequestBoolFulfilled(bytes32 indexed requestId,bool indexed boolean);\r\n\r\n  constructor() ConfirmedOwner(msg.sender){\r\n  setChainlinkToken(0x0E3c944F32BCc729D292F8F0F552145332011104);\r\n  oracle = 0xe15e23a8ba28745623382a54b999145C49E70bF9;\r\n  externalJobId = \"861ba8ef5af045d89a9b5b3d737b068f\";\r\n  oraclePayment = ((14 * LINK_DIVISIBILITY) / 10); // n * 10**18\r\n  }\r\n\r\n    event RequestBoolCalled(string message);\r\n\r\n  function requestBool()\r\n    public\r\n    onlyOwner\r\n  {\r\n    emit RequestBoolCalled(\"requestBool function was called\");\r\n    Chainlink.Request memory req = buildChainlinkRequest(externalJobId, address(this), this.fulfillBool.selector);\r\n    req.add(\"get\", \"https://raw.githubusercontent.com/glinknode/chainlink-public-jobs/main/example-json/example-bool.json\");\r\n    req.add(\"path\", \"data_bool\");\r\n    sendChainlinkRequestTo(oracle, req, oraclePayment);\r\n  }\r\n\r\n  function fulfillBool(bytes32 _requestId, bool _boolean)\r\n    public\r\n    recordChainlinkFulfillment(_requestId)\r\n  {\r\n    emit RequestBoolFulfilled(_requestId, _boolean);\r\n    boolean = _boolean;\r\n  }\r\n\r\n}",
  "sourcePath": "/media/fabric-orderer2/ethLink/Public/nodeLink/chainLink-eth/contracts/getBool.sol",
  "compiler": {
    "name": "solc",
    "version": "0.8.19+commit.7dd6d404.Emscripten.clang"
  },
  "schemaVersion": "3.4.16",
  "updatedAt": "2024-04-02T15:23:39.253Z",
  "networkType": "ethereum",
  "devdoc": {
    "kind": "dev",
    "methods": {},
    "version": 1
  },
  "userdoc": {
    "kind": "user",
    "methods": {
      "acceptOwnership()": {
        "notice": "Allows an ownership transfer to be completed by the recipient."
      },
      "owner()": {
        "notice": "Get the current owner"
      },
      "transferOwnership(address)": {
        "notice": "Allows an owner to begin transferring ownership to a new address, pending."
      }
    },
    "version": 1
  }
}