{
  "contractName": "MockOracl2",
  "abi": [
    {
      "inputs": [
        {
          "internalType": "int256",
          "name": "_initialAnswer",
          "type": "int256"
        }
      ],
      "stateMutability": "nonpayable",
      "type": "constructor"
    },
    {
      "anonymous": false,
      "inputs": [
        {
          "indexed": true,
          "internalType": "int256",
          "name": "current",
          "type": "int256"
        },
        {
          "indexed": true,
          "internalType": "uint256",
          "name": "roundId",
          "type": "uint256"
        },
        {
          "indexed": false,
          "internalType": "uint256",
          "name": "updatedAt",
          "type": "uint256"
        }
      ],
      "name": "AnswerUpdated",
      "type": "event"
    },
    {
      "anonymous": false,
      "inputs": [
        {
          "indexed": true,
          "internalType": "uint256",
          "name": "roundId",
          "type": "uint256"
        },
        {
          "indexed": true,
          "internalType": "address",
          "name": "startedBy",
          "type": "address"
        },
        {
          "indexed": false,
          "internalType": "uint256",
          "name": "startedAt",
          "type": "uint256"
        }
      ],
      "name": "NewRound",
      "type": "event"
    },
    {
      "inputs": [],
      "name": "decimals",
      "outputs": [
        {
          "internalType": "uint8",
          "name": "",
          "type": "uint8"
        }
      ],
      "stateMutability": "view",
      "type": "function"
    },
    {
      "inputs": [],
      "name": "description",
      "outputs": [
        {
          "internalType": "string",
          "name": "",
          "type": "string"
        }
      ],
      "stateMutability": "pure",
      "type": "function"
    },
    {
      "inputs": [
        {
          "internalType": "uint256",
          "name": "",
          "type": "uint256"
        }
      ],
      "name": "getAnswer",
      "outputs": [
        {
          "internalType": "int256",
          "name": "",
          "type": "int256"
        }
      ],
      "stateMutability": "view",
      "type": "function"
    },
    {
      "inputs": [
        {
          "internalType": "uint80",
          "name": "_roundId",
          "type": "uint80"
        }
      ],
      "name": "getRoundData",
      "outputs": [
        {
          "internalType": "uint80",
          "name": "roundId",
          "type": "uint80"
        },
        {
          "internalType": "int256",
          "name": "answer",
          "type": "int256"
        },
        {
          "internalType": "uint256",
          "name": "startedAt",
          "type": "uint256"
        },
        {
          "internalType": "uint256",
          "name": "updatedAt",
          "type": "uint256"
        },
        {
          "internalType": "uint80",
          "name": "answeredInRound",
          "type": "uint80"
        }
      ],
      "stateMutability": "view",
      "type": "function"
    },
    {
      "inputs": [
        {
          "internalType": "uint256",
          "name": "",
          "type": "uint256"
        }
      ],
      "name": "getTimestamp",
      "outputs": [
        {
          "internalType": "uint256",
          "name": "",
          "type": "uint256"
        }
      ],
      "stateMutability": "view",
      "type": "function"
    },
    {
      "inputs": [],
      "name": "latestAnswer",
      "outputs": [
        {
          "internalType": "int256",
          "name": "",
          "type": "int256"
        }
      ],
      "stateMutability": "view",
      "type": "function"
    },
    {
      "inputs": [],
      "name": "latestRound",
      "outputs": [
        {
          "internalType": "uint256",
          "name": "",
          "type": "uint256"
        }
      ],
      "stateMutability": "view",
      "type": "function"
    },
    {
      "inputs": [],
      "name": "latestRoundData",
      "outputs": [
        {
          "internalType": "uint80",
          "name": "roundId",
          "type": "uint80"
        },
        {
          "internalType": "int256",
          "name": "answer",
          "type": "int256"
        },
        {
          "internalType": "uint256",
          "name": "startedAt",
          "type": "uint256"
        },
        {
          "internalType": "uint256",
          "name": "updatedAt",
          "type": "uint256"
        },
        {
          "internalType": "uint80",
          "name": "answeredInRound",
          "type": "uint80"
        }
      ],
      "stateMutability": "view",
      "type": "function"
    },
    {
      "inputs": [],
      "name": "latestTimestamp",
      "outputs": [
        {
          "internalType": "uint256",
          "name": "",
          "type": "uint256"
        }
      ],
      "stateMutability": "view",
      "type": "function"
    },
    {
      "inputs": [
        {
          "internalType": "int256",
          "name": "_answer",
          "type": "int256"
        }
      ],
      "name": "updateAnswer",
      "outputs": [],
      "stateMutability": "nonpayable",
      "type": "function"
    },
    {
      "inputs": [
        {
          "internalType": "uint80",
          "name": "_roundId",
          "type": "uint80"
        },
        {
          "internalType": "int256",
          "name": "_answer",
          "type": "int256"
        },
        {
          "internalType": "uint256",
          "name": "_timestamp",
          "type": "uint256"
        },
        {
          "internalType": "uint256",
          "name": "_startedAt",
          "type": "uint256"
        }
      ],
      "name": "updateRoundData",
      "outputs": [],
      "stateMutability": "nonpayable",
      "type": "function"
    },
    {
      "inputs": [],
      "name": "version",
      "outputs": [
        {
          "internalType": "uint256",
          "name": "",
          "type": "uint256"
        }
      ],
      "stateMutability": "view",
      "type": "function"
    },
    {
      "inputs": [
        {
          "internalType": "bytes32",
          "name": "_requestId",
          "type": "bytes32"
        },
        {
          "internalType": "int256",
          "name": "_price",
          "type": "int256"
        }
      ],
      "name": "fulfillRequest",
      "outputs": [],
      "stateMutability": "nonpayable",
      "type": "function"
    }
  ],
  "bytecode": "0x608060405234801561001057600080fd5b50604051610be6380380610be683398181016040528101906100329190610118565b601281816000806101000a81548160ff021916908360ff16021790555061005e8161006660201b60201c565b5050506101c6565b8060018190555042600281905550600360008154809291906100879061017e565b919050555080600460006003548152602001908152602001600020819055504260056000600354815260200190815260200160002081905550426006600060035481526020019081526020016000208190555050565b600080fd5b6000819050919050565b6100f5816100e2565b811461010057600080fd5b50565b600081519050610112816100ec565b92915050565b60006020828403121561012e5761012d6100dd565b5b600061013c84828501610103565b91505092915050565b7f4e487b7100000000000000000000000000000000000000000000000000000000600052601160045260246000fd5b6000819050919050565b600061018982610174565b91507fffffffffffffffffffffffffffffffffffffffffffffffffffffffffffffffff82036101bb576101ba610145565b5b600182019050919050565b610a11806101d56000396000f3fe608060405234801561001057600080fd5b50600436106100cf5760003560e01c80637284e4161161008c578063a87a20ce11610066578063a87a20ce146101f4578063b5ab58dc14610210578063b633620c14610240578063feaf968c14610270576100cf565b80637284e416146101845780638205bf6a146101a25780639a6fc8f5146101c0576100cf565b8063313ce567146100d45780634aa2011f146100f257806350d25bcd1461010e578063512f3cc41461012c57806354fd4d5014610148578063668a0f0214610166575b600080fd5b6100dc610292565b6040516100e9919061055e565b60405180910390f35b61010c6004803603810190610107919061062c565b6102a3565b005b610116610318565b60405161012391906106a2565b60405180910390f35b610146600480360381019061014191906106f3565b61031e565b005b61015061036f565b60405161015d9190610742565b60405180910390f35b61016e610374565b60405161017b9190610742565b60405180910390f35b61018c61037a565b60405161019991906107ed565b60405180910390f35b6101aa6103b7565b6040516101b79190610742565b60405180910390f35b6101da60048036038101906101d5919061080f565b6103bd565b6040516101eb95949392919061084b565b60405180910390f35b61020e6004803603810190610209919061089e565b61043a565b005b61022a600480360381019061022591906108cb565b6104b1565b60405161023791906106a2565b60405180910390f35b61025a600480360381019061025591906108cb565b6104c9565b6040516102679190610742565b60405180910390f35b6102786104e1565b60405161028995949392919061084b565b60405180910390f35b60008054906101000a900460ff1681565b8369ffffffffffffffffffff16600381905550826001819055508160028190555082600460006003548152602001908152602001600020819055508160056000600354815260200190815260200160002081905550806006600060035481526020019081526020016000208190555050505050565b60015481565b6000811215610362576040517f08c379a000000000000000000000000000000000000000000000000000000000815260040161035990610944565b60405180910390fd5b61036b8161043a565b5050565b600081565b60035481565b60606040518060400160405280601f81526020017f76302e382f74657374732f4d6f636b563341676772656761746f722e736f6c00815250905090565b60025481565b600080600080600085600460008869ffffffffffffffffffff16815260200190815260200160002054600660008969ffffffffffffffffffff16815260200190815260200160002054600560008a69ffffffffffffffffffff16815260200190815260200160002054899450945094509450945091939590929450565b80600181905550426002819055506003600081548092919061045b90610993565b919050555080600460006003548152602001908152602001600020819055504260056000600354815260200190815260200160002081905550426006600060035481526020019081526020016000208190555050565b60046020528060005260406000206000915090505481565b60056020528060005260406000206000915090505481565b6000806000806000600354600460006003548152602001908152602001600020546006600060035481526020019081526020016000205460056000600354815260200190815260200160002054600354945094509450945094509091929394565b600060ff82169050919050565b61055881610542565b82525050565b6000602082019050610573600083018461054f565b92915050565b600080fd5b600069ffffffffffffffffffff82169050919050565b61059d8161057e565b81146105a857600080fd5b50565b6000813590506105ba81610594565b92915050565b6000819050919050565b6105d3816105c0565b81146105de57600080fd5b50565b6000813590506105f0816105ca565b92915050565b6000819050919050565b610609816105f6565b811461061457600080fd5b50565b60008135905061062681610600565b92915050565b6000806000806080858703121561064657610645610579565b5b6000610654878288016105ab565b9450506020610665878288016105e1565b935050604061067687828801610617565b925050606061068787828801610617565b91505092959194509250565b61069c816105c0565b82525050565b60006020820190506106b76000830184610693565b92915050565b6000819050919050565b6106d0816106bd565b81146106db57600080fd5b50565b6000813590506106ed816106c7565b92915050565b6000806040838503121561070a57610709610579565b5b6000610718858286016106de565b9250506020610729858286016105e1565b9150509250929050565b61073c816105f6565b82525050565b60006020820190506107576000830184610733565b92915050565b600081519050919050565b600082825260208201905092915050565b60005b8381101561079757808201518184015260208101905061077c565b60008484015250505050565b6000601f19601f8301169050919050565b60006107bf8261075d565b6107c98185610768565b93506107d9818560208601610779565b6107e2816107a3565b840191505092915050565b6000602082019050818103600083015261080781846107b4565b905092915050565b60006020828403121561082557610824610579565b5b6000610833848285016105ab565b91505092915050565b6108458161057e565b82525050565b600060a082019050610860600083018861083c565b61086d6020830187610693565b61087a6040830186610733565b6108876060830185610733565b610894608083018461083c565b9695505050505050565b6000602082840312156108b4576108b3610579565b5b60006108c2848285016105e1565b91505092915050565b6000602082840312156108e1576108e0610579565b5b60006108ef84828501610617565b91505092915050565b7f5072696365206d757374206265206e6f6e2d6e65676174697665000000000000600082015250565b600061092e601a83610768565b9150610939826108f8565b602082019050919050565b6000602082019050818103600083015261095d81610921565b9050919050565b7f4e487b7100000000000000000000000000000000000000000000000000000000600052601160045260246000fd5b600061099e826105f6565b91507fffffffffffffffffffffffffffffffffffffffffffffffffffffffffffffffff82036109d0576109cf610964565b5b60018201905091905056fea26469706673582212205e5867893f933e68393a6077195b7ecf30ea9015085edee0d50852a97255859564736f6c63430008130033",
  "immutableReferences": {},
  "source": "// // SPDX-License-Identifier: MIT\r\n// pragma solidity ^0.8.19;\r\n\r\n// import \"@chainlink/contracts/src/v0.8/ChainlinkClient.sol\";\r\n\r\n// contract MockOracle is ChainlinkClient {\r\n//     bytes32 public lastRequestId;\r\n//     bytes32 public jobId;\r\n//     uint256 public constant fee = 0.1 * 10 ** 18; // 0.1 LINK\r\n\r\n//     function fulfillDataRequest(address _contract, uint256 _data) public {\r\n//         Chainlink.Request memory req = buildChainlinkRequest(jobId, _contract, this.fulfill.selector);\r\n//         lastRequestId = sendChainlinkRequest(req, fee);\r\n//         //ulfillDataRequest(_contract, _data);\r\n//     }\r\n\r\n//     function fulfill(bytes32 _requestId, uint256 _data) public {\r\n//         fulfillDataRequest(msg.sender, _data);\r\n//     }\r\n// }\r\n\r\n\r\npragma solidity ^0.8.7;\r\n\r\nimport \"@chainlink/contracts/src/v0.8/tests/MockV3Aggregator.sol\";\r\n\r\ncontract MockOracl2 is MockV3Aggregator {\r\n    constructor(int256 _initialAnswer)\r\n        MockV3Aggregator(18, _initialAnswer) // 18 is the number of decimals, you can adjust this value\r\n    {}\r\n\r\n    function fulfillRequest(bytes32 _requestId, int256 _price)\r\n    public\r\n    {\r\n        require(_price >= 0, \"Price must be non-negative\");\r\n        updateAnswer(_price);\r\n    }\r\n}",
  "sourcePath": "/media/fabric-orderer2/ethLink/Public/nodeLink/chainLink-eth/contracts/mockOracle.sol",
  "compiler": {
    "name": "solc",
    "version": "0.8.19+commit.7dd6d404.Emscripten.clang"
  },
  "schemaVersion": "3.4.16",
  "updatedAt": "2024-04-03T12:59:44.346Z",
  "devdoc": {
    "kind": "dev",
    "methods": {},
    "version": 1
  },
  "userdoc": {
    "kind": "user",
    "methods": {},
    "version": 1
  }
}