{
  "contractName": "MockOracle",
  "abi": [
    {
      "anonymous": false,
      "inputs": [
        {
          "indexed": true,
          "internalType": "bytes32",
          "name": "id",
          "type": "bytes32"
        }
      ],
      "name": "ChainlinkCancelled",
      "type": "event"
    },
    {
      "anonymous": false,
      "inputs": [
        {
          "indexed": true,
          "internalType": "bytes32",
          "name": "id",
          "type": "bytes32"
        }
      ],
      "name": "ChainlinkFulfilled",
      "type": "event"
    },
    {
      "anonymous": false,
      "inputs": [
        {
          "indexed": true,
          "internalType": "bytes32",
          "name": "id",
          "type": "bytes32"
        }
      ],
      "name": "ChainlinkRequested",
      "type": "event"
    },
    {
      "inputs": [],
      "name": "fee",
      "outputs": [
        {
          "internalType": "uint256",
          "name": "",
          "type": "uint256"
        }
      ],
      "stateMutability": "view",
      "type": "function",
      "constant": true
    },
    {
      "inputs": [],
      "name": "jobId",
      "outputs": [
        {
          "internalType": "bytes32",
          "name": "",
          "type": "bytes32"
        }
      ],
      "stateMutability": "view",
      "type": "function",
      "constant": true
    },
    {
      "inputs": [],
      "name": "lastRequestId",
      "outputs": [
        {
          "internalType": "bytes32",
          "name": "",
          "type": "bytes32"
        }
      ],
      "stateMutability": "view",
      "type": "function",
      "constant": true
    },
    {
      "inputs": [
        {
          "internalType": "address",
          "name": "_contract",
          "type": "address"
        },
        {
          "internalType": "uint256",
          "name": "_data",
          "type": "uint256"
        }
      ],
      "name": "fulfillDataRequest",
      "outputs": [],
      "stateMutability": "nonpayable",
      "type": "function"
    },
    {
      "inputs": [
        {
          "internalType": "bytes32",
          "name": "_requestId",
          "type": "bytes32"
        },
        {
          "internalType": "uint256",
          "name": "_data",
          "type": "uint256"
        }
      ],
      "name": "fulfill",
      "outputs": [],
      "stateMutability": "nonpayable",
      "type": "function"
    }
  ],
  "bytecode": "0x6080604052600160045534801561001557600080fd5b50610c0d806100256000396000f3fe608060405234801561001057600080fd5b50600436106100575760003560e01c80634357855e1461005c5780634c6493f514610078578063c2939d9714610094578063ddca3f43146100b2578063fc2a88c3146100d0575b600080fd5b61007660048036038101906100719190610624565b6100ee565b005b610092600480360381019061008d91906106c2565b6100fc565b005b61009c610131565b6040516100a99190610711565b60405180910390f35b6100ba610137565b6040516100c7919061073b565b60405180910390f35b6100d8610143565b6040516100e59190610711565b60405180910390f35b6100f833826100fc565b5050565b600061011260075484634357855e60e01b610149565b90506101268167016345785d8a000061017a565b600681905550505050565b60075481565b67016345785d8a000081565b60065481565b61015161052c565b61015961052c565b610170858585846101b1909392919063ffffffff16565b9150509392505050565b60006101a9600360009054906101000a900473ffffffffffffffffffffffffffffffffffffffff168484610261565b905092915050565b6101b961052c565b6101c9856080015161010061032d565b508385600001818152505082856020019073ffffffffffffffffffffffffffffffffffffffff16908173ffffffffffffffffffffffffffffffffffffffff16815250508185604001907bffffffffffffffffffffffffffffffffffffffffffffffffffffffff191690817bffffffffffffffffffffffffffffffffffffffffffffffffffffffff191681525050849050949350505050565b60008060045490506001816102769190610785565b6004819055506000634042994660e01b60008087600001513089604001518760018c60800151600001516040516024016102b7989796959493929190610893565b604051602081830303815290604052907bffffffffffffffffffffffffffffffffffffffffffffffffffffffff19166020820180517bffffffffffffffffffffffffffffffffffffffffffffffffffffffff8381831617835250505050905061032286838684610397565b925050509392505050565b610335610599565b60006020836103449190610947565b14610370576020826103569190610947565b60206103629190610978565b8261036d9190610785565b91505b81836020018181525050604051808452600081528281016020016040525082905092915050565b600030846040516020016103ac929190610a65565b604051602081830303815290604052805190602001209050846005600083815260200190815260200160002060006101000a81548173ffffffffffffffffffffffffffffffffffffffff021916908373ffffffffffffffffffffffffffffffffffffffff160217905550807fb5e6e01e79f91267dc17b4e6314d5d4d03593d2ceee0fbb452b750bd70ea5af960405160405180910390a2600260009054906101000a900473ffffffffffffffffffffffffffffffffffffffff1673ffffffffffffffffffffffffffffffffffffffff16634000aea08685856040518463ffffffff1660e01b81526004016104a293929190610a91565b6020604051808303816000875af11580156104c1573d6000803e3d6000fd5b505050506040513d601f19601f820116820180604052508101906104e59190610b07565b610524576040517f08c379a000000000000000000000000000000000000000000000000000000000815260040161051b90610bb7565b60405180910390fd5b949350505050565b6040518060a0016040528060008019168152602001600073ffffffffffffffffffffffffffffffffffffffff16815260200160007bffffffffffffffffffffffffffffffffffffffffffffffffffffffff1916815260200160008152602001610593610599565b81525090565b604051806040016040528060608152602001600081525090565b600080fd5b6000819050919050565b6105cb816105b8565b81146105d657600080fd5b50565b6000813590506105e8816105c2565b92915050565b6000819050919050565b610601816105ee565b811461060c57600080fd5b50565b60008135905061061e816105f8565b92915050565b6000806040838503121561063b5761063a6105b3565b5b6000610649858286016105d9565b925050602061065a8582860161060f565b9150509250929050565b600073ffffffffffffffffffffffffffffffffffffffff82169050919050565b600061068f82610664565b9050919050565b61069f81610684565b81146106aa57600080fd5b50565b6000813590506106bc81610696565b92915050565b600080604083850312156106d9576106d86105b3565b5b60006106e7858286016106ad565b92505060206106f88582860161060f565b9150509250929050565b61070b816105b8565b82525050565b60006020820190506107266000830184610702565b92915050565b610735816105ee565b82525050565b6000602082019050610750600083018461072c565b92915050565b7f4e487b7100000000000000000000000000000000000000000000000000000000600052601160045260246000fd5b6000610790826105ee565b915061079b836105ee565b92508282019050808211156107b3576107b2610756565b5b92915050565b6107c281610684565b82525050565b60007fffffffff0000000000000000000000000000000000000000000000000000000082169050919050565b6107fd816107c8565b82525050565b600081519050919050565b600082825260208201905092915050565b60005b8381101561083d578082015181840152602081019050610822565b60008484015250505050565b6000601f19601f8301169050919050565b600061086582610803565b61086f818561080e565b935061087f81856020860161081f565b61088881610849565b840191505092915050565b6000610100820190506108a9600083018b6107b9565b6108b6602083018a61072c565b6108c36040830189610702565b6108d060608301886107b9565b6108dd60808301876107f4565b6108ea60a083018661072c565b6108f760c083018561072c565b81810360e0830152610909818461085a565b90509998505050505050505050565b7f4e487b7100000000000000000000000000000000000000000000000000000000600052601260045260246000fd5b6000610952826105ee565b915061095d836105ee565b92508261096d5761096c610918565b5b828206905092915050565b6000610983826105ee565b915061098e836105ee565b92508282039050818111156109a6576109a5610756565b5b92915050565b6000819050919050565b60006109d16109cc6109c784610664565b6109ac565b610664565b9050919050565b60006109e3826109b6565b9050919050565b60006109f5826109d8565b9050919050565b60008160601b9050919050565b6000610a14826109fc565b9050919050565b6000610a2682610a09565b9050919050565b610a3e610a39826109ea565b610a1b565b82525050565b6000819050919050565b610a5f610a5a826105ee565b610a44565b82525050565b6000610a718285610a2d565b601482019150610a818284610a4e565b6020820191508190509392505050565b6000606082019050610aa660008301866107b9565b610ab3602083018561072c565b8181036040830152610ac5818461085a565b9050949350505050565b60008115159050919050565b610ae481610acf565b8114610aef57600080fd5b50565b600081519050610b0181610adb565b92915050565b600060208284031215610b1d57610b1c6105b3565b5b6000610b2b84828501610af2565b91505092915050565b600082825260208201905092915050565b7f756e61626c6520746f207472616e73666572416e6443616c6c20746f206f726160008201527f636c650000000000000000000000000000000000000000000000000000000000602082015250565b6000610ba1602383610b34565b9150610bac82610b45565b604082019050919050565b60006020820190508181036000830152610bd081610b94565b905091905056fea2646970667358221220a97018bec6174acc2e78b7f4c9e0e1a5aaa0d8684f2a330e05fd1a5977128e0864736f6c63430008130033",
  "immutableReferences": {},
  "source": "// SPDX-License-Identifier: MIT\r\npragma solidity ^0.8.19;\r\n\r\nimport \"@chainlink/contracts/src/v0.8/ChainlinkClient.sol\";\r\n\r\ncontract MockOracle is ChainlinkClient {\r\n    bytes32 public lastRequestId;\r\n    bytes32 public jobId;\r\n    uint256 public constant fee = 0.1 * 10 ** 18; // 0.1 LINK\r\n\r\n    function fulfillDataRequest(address _contract, uint256 _data) public {\r\n        Chainlink.Request memory req = buildChainlinkRequest(jobId, _contract, this.fulfill.selector);\r\n        lastRequestId = sendChainlinkRequest(req, fee);\r\n        //ulfillDataRequest(_contract, _data);\r\n    }\r\n\r\n    function fulfill(bytes32 _requestId, uint256 _data) public {\r\n        fulfillDataRequest(msg.sender, _data);\r\n    }\r\n}",
  "sourcePath": "/media/fabric-orderer2/ethLink/Public/nodeLink/chainLink-eth/contracts/mockOracle.sol",
  "compiler": {
    "name": "solc",
    "version": "0.8.19+commit.7dd6d404.Emscripten.clang"
  },
  "schemaVersion": "3.4.16",
  "updatedAt": "2024-04-03T12:34:58.701Z",
  "networkType": "ethereum",
  "devdoc": {
    "kind": "dev",
    "methods": {},
    "version": 1
  },
  "userdoc": {
    "kind": "user",
    "methods": {},
    "version": 1
  }
}