{
  "contractName": "Operator",
  "abi": [
    {
      "inputs": [
        {
          "internalType": "address",
          "name": "link",
          "type": "address"
        },
        {
          "internalType": "address",
          "name": "owner",
          "type": "address"
        }
      ],
      "stateMutability": "nonpayable",
      "type": "constructor"
    },
    {
      "anonymous": false,
      "inputs": [
        {
          "indexed": false,
          "internalType": "address[]",
          "name": "senders",
          "type": "address[]"
        },
        {
          "indexed": false,
          "internalType": "address",
          "name": "changedBy",
          "type": "address"
        }
      ],
      "name": "AuthorizedSendersChanged",
      "type": "event"
    },
    {
      "anonymous": false,
      "inputs": [
        {
          "indexed": true,
          "internalType": "bytes32",
          "name": "requestId",
          "type": "bytes32"
        }
      ],
      "name": "CancelOracleRequest",
      "type": "event"
    },
    {
      "anonymous": false,
      "inputs": [
        {
          "indexed": true,
          "internalType": "bytes32",
          "name": "specId",
          "type": "bytes32"
        },
        {
          "indexed": false,
          "internalType": "address",
          "name": "requester",
          "type": "address"
        },
        {
          "indexed": false,
          "internalType": "bytes32",
          "name": "requestId",
          "type": "bytes32"
        },
        {
          "indexed": false,
          "internalType": "uint256",
          "name": "payment",
          "type": "uint256"
        },
        {
          "indexed": false,
          "internalType": "address",
          "name": "callbackAddr",
          "type": "address"
        },
        {
          "indexed": false,
          "internalType": "bytes4",
          "name": "callbackFunctionId",
          "type": "bytes4"
        },
        {
          "indexed": false,
          "internalType": "uint256",
          "name": "cancelExpiration",
          "type": "uint256"
        },
        {
          "indexed": false,
          "internalType": "uint256",
          "name": "dataVersion",
          "type": "uint256"
        },
        {
          "indexed": false,
          "internalType": "bytes",
          "name": "data",
          "type": "bytes"
        }
      ],
      "name": "OracleRequest",
      "type": "event"
    },
    {
      "anonymous": false,
      "inputs": [
        {
          "indexed": true,
          "internalType": "bytes32",
          "name": "requestId",
          "type": "bytes32"
        }
      ],
      "name": "OracleResponse",
      "type": "event"
    },
    {
      "anonymous": false,
      "inputs": [
        {
          "indexed": true,
          "internalType": "address",
          "name": "acceptedContract",
          "type": "address"
        }
      ],
      "name": "OwnableContractAccepted",
      "type": "event"
    },
    {
      "anonymous": false,
      "inputs": [
        {
          "indexed": true,
          "internalType": "address",
          "name": "from",
          "type": "address"
        },
        {
          "indexed": true,
          "internalType": "address",
          "name": "to",
          "type": "address"
        }
      ],
      "name": "OwnershipTransferRequested",
      "type": "event"
    },
    {
      "anonymous": false,
      "inputs": [
        {
          "indexed": true,
          "internalType": "address",
          "name": "from",
          "type": "address"
        },
        {
          "indexed": true,
          "internalType": "address",
          "name": "to",
          "type": "address"
        }
      ],
      "name": "OwnershipTransferred",
      "type": "event"
    },
    {
      "anonymous": false,
      "inputs": [
        {
          "indexed": false,
          "internalType": "address[]",
          "name": "targets",
          "type": "address[]"
        },
        {
          "indexed": false,
          "internalType": "address[]",
          "name": "senders",
          "type": "address[]"
        },
        {
          "indexed": false,
          "internalType": "address",
          "name": "changedBy",
          "type": "address"
        }
      ],
      "name": "TargetsUpdatedAuthorizedSenders",
      "type": "event"
    },
    {
      "inputs": [],
      "name": "acceptOwnership",
      "outputs": [],
      "stateMutability": "nonpayable",
      "type": "function"
    },
    {
      "inputs": [],
      "name": "getAuthorizedSenders",
      "outputs": [
        {
          "internalType": "address[]",
          "name": "",
          "type": "address[]"
        }
      ],
      "stateMutability": "view",
      "type": "function"
    },
    {
      "inputs": [],
      "name": "getExpiryTime",
      "outputs": [
        {
          "internalType": "uint256",
          "name": "",
          "type": "uint256"
        }
      ],
      "stateMutability": "view",
      "type": "function"
    },
    {
      "inputs": [
        {
          "internalType": "address",
          "name": "sender",
          "type": "address"
        }
      ],
      "name": "isAuthorizedSender",
      "outputs": [
        {
          "internalType": "bool",
          "name": "",
          "type": "bool"
        }
      ],
      "stateMutability": "view",
      "type": "function"
    },
    {
      "inputs": [
        {
          "internalType": "address",
          "name": "sender",
          "type": "address"
        },
        {
          "internalType": "uint256",
          "name": "amount",
          "type": "uint256"
        },
        {
          "internalType": "bytes",
          "name": "data",
          "type": "bytes"
        }
      ],
      "name": "onTokenTransfer",
      "outputs": [],
      "stateMutability": "nonpayable",
      "type": "function"
    },
    {
      "inputs": [],
      "name": "owner",
      "outputs": [
        {
          "internalType": "address",
          "name": "",
          "type": "address"
        }
      ],
      "stateMutability": "view",
      "type": "function"
    },
    {
      "inputs": [
        {
          "internalType": "address[]",
          "name": "senders",
          "type": "address[]"
        }
      ],
      "name": "setAuthorizedSenders",
      "outputs": [],
      "stateMutability": "nonpayable",
      "type": "function"
    },
    {
      "inputs": [
        {
          "internalType": "address",
          "name": "to",
          "type": "address"
        }
      ],
      "name": "transferOwnership",
      "outputs": [],
      "stateMutability": "nonpayable",
      "type": "function"
    },
    {
      "inputs": [],
      "name": "typeAndVersion",
      "outputs": [
        {
          "internalType": "string",
          "name": "",
          "type": "string"
        }
      ],
      "stateMutability": "pure",
      "type": "function"
    },
    {
      "inputs": [
        {
          "internalType": "address",
          "name": "sender",
          "type": "address"
        },
        {
          "internalType": "uint256",
          "name": "payment",
          "type": "uint256"
        },
        {
          "internalType": "bytes32",
          "name": "specId",
          "type": "bytes32"
        },
        {
          "internalType": "address",
          "name": "callbackAddress",
          "type": "address"
        },
        {
          "internalType": "bytes4",
          "name": "callbackFunctionId",
          "type": "bytes4"
        },
        {
          "internalType": "uint256",
          "name": "nonce",
          "type": "uint256"
        },
        {
          "internalType": "uint256",
          "name": "dataVersion",
          "type": "uint256"
        },
        {
          "internalType": "bytes",
          "name": "data",
          "type": "bytes"
        }
      ],
      "name": "oracleRequest",
      "outputs": [],
      "stateMutability": "nonpayable",
      "type": "function"
    },
    {
      "inputs": [
        {
          "internalType": "address",
          "name": "sender",
          "type": "address"
        },
        {
          "internalType": "uint256",
          "name": "payment",
          "type": "uint256"
        },
        {
          "internalType": "bytes32",
          "name": "specId",
          "type": "bytes32"
        },
        {
          "internalType": "bytes4",
          "name": "callbackFunctionId",
          "type": "bytes4"
        },
        {
          "internalType": "uint256",
          "name": "nonce",
          "type": "uint256"
        },
        {
          "internalType": "uint256",
          "name": "dataVersion",
          "type": "uint256"
        },
        {
          "internalType": "bytes",
          "name": "data",
          "type": "bytes"
        }
      ],
      "name": "operatorRequest",
      "outputs": [],
      "stateMutability": "nonpayable",
      "type": "function"
    },
    {
      "inputs": [
        {
          "internalType": "bytes32",
          "name": "requestId",
          "type": "bytes32"
        },
        {
          "internalType": "uint256",
          "name": "payment",
          "type": "uint256"
        },
        {
          "internalType": "address",
          "name": "callbackAddress",
          "type": "address"
        },
        {
          "internalType": "bytes4",
          "name": "callbackFunctionId",
          "type": "bytes4"
        },
        {
          "internalType": "uint256",
          "name": "expiration",
          "type": "uint256"
        },
        {
          "internalType": "bytes32",
          "name": "data",
          "type": "bytes32"
        }
      ],
      "name": "fulfillOracleRequest",
      "outputs": [
        {
          "internalType": "bool",
          "name": "",
          "type": "bool"
        }
      ],
      "stateMutability": "nonpayable",
      "type": "function"
    },
    {
      "inputs": [
        {
          "internalType": "bytes32",
          "name": "requestId",
          "type": "bytes32"
        },
        {
          "internalType": "uint256",
          "name": "payment",
          "type": "uint256"
        },
        {
          "internalType": "address",
          "name": "callbackAddress",
          "type": "address"
        },
        {
          "internalType": "bytes4",
          "name": "callbackFunctionId",
          "type": "bytes4"
        },
        {
          "internalType": "uint256",
          "name": "expiration",
          "type": "uint256"
        },
        {
          "internalType": "bytes",
          "name": "data",
          "type": "bytes"
        }
      ],
      "name": "fulfillOracleRequest2",
      "outputs": [
        {
          "internalType": "bool",
          "name": "",
          "type": "bool"
        }
      ],
      "stateMutability": "nonpayable",
      "type": "function"
    },
    {
      "inputs": [
        {
          "internalType": "address[]",
          "name": "ownable",
          "type": "address[]"
        },
        {
          "internalType": "address",
          "name": "newOwner",
          "type": "address"
        }
      ],
      "name": "transferOwnableContracts",
      "outputs": [],
      "stateMutability": "nonpayable",
      "type": "function"
    },
    {
      "inputs": [
        {
          "internalType": "address[]",
          "name": "ownable",
          "type": "address[]"
        }
      ],
      "name": "acceptOwnableContracts",
      "outputs": [],
      "stateMutability": "nonpayable",
      "type": "function"
    },
    {
      "inputs": [
        {
          "internalType": "address[]",
          "name": "targets",
          "type": "address[]"
        },
        {
          "internalType": "address[]",
          "name": "senders",
          "type": "address[]"
        }
      ],
      "name": "setAuthorizedSendersOn",
      "outputs": [],
      "stateMutability": "nonpayable",
      "type": "function"
    },
    {
      "inputs": [
        {
          "internalType": "address[]",
          "name": "targets",
          "type": "address[]"
        },
        {
          "internalType": "address[]",
          "name": "senders",
          "type": "address[]"
        }
      ],
      "name": "acceptAuthorizedReceivers",
      "outputs": [],
      "stateMutability": "nonpayable",
      "type": "function"
    },
    {
      "inputs": [
        {
          "internalType": "address",
          "name": "recipient",
          "type": "address"
        },
        {
          "internalType": "uint256",
          "name": "amount",
          "type": "uint256"
        }
      ],
      "name": "withdraw",
      "outputs": [],
      "stateMutability": "nonpayable",
      "type": "function"
    },
    {
      "inputs": [],
      "name": "withdrawable",
      "outputs": [
        {
          "internalType": "uint256",
          "name": "",
          "type": "uint256"
        }
      ],
      "stateMutability": "view",
      "type": "function"
    },
    {
      "inputs": [
        {
          "internalType": "address",
          "name": "to",
          "type": "address"
        },
        {
          "internalType": "bytes",
          "name": "data",
          "type": "bytes"
        }
      ],
      "name": "ownerForward",
      "outputs": [],
      "stateMutability": "nonpayable",
      "type": "function"
    },
    {
      "inputs": [
        {
          "internalType": "address",
          "name": "to",
          "type": "address"
        },
        {
          "internalType": "uint256",
          "name": "value",
          "type": "uint256"
        },
        {
          "internalType": "bytes",
          "name": "data",
          "type": "bytes"
        }
      ],
      "name": "ownerTransferAndCall",
      "outputs": [
        {
          "internalType": "bool",
          "name": "success",
          "type": "bool"
        }
      ],
      "stateMutability": "nonpayable",
      "type": "function"
    },
    {
      "inputs": [
        {
          "internalType": "address payable[]",
          "name": "receivers",
          "type": "address[]"
        },
        {
          "internalType": "uint256[]",
          "name": "amounts",
          "type": "uint256[]"
        }
      ],
      "name": "distributeFunds",
      "outputs": [],
      "stateMutability": "payable",
      "type": "function"
    },
    {
      "inputs": [
        {
          "internalType": "bytes32",
          "name": "requestId",
          "type": "bytes32"
        },
        {
          "internalType": "uint256",
          "name": "payment",
          "type": "uint256"
        },
        {
          "internalType": "bytes4",
          "name": "callbackFunc",
          "type": "bytes4"
        },
        {
          "internalType": "uint256",
          "name": "expiration",
          "type": "uint256"
        }
      ],
      "name": "cancelOracleRequest",
      "outputs": [],
      "stateMutability": "nonpayable",
      "type": "function"
    },
    {
      "inputs": [
        {
          "internalType": "uint256",
          "name": "nonce",
          "type": "uint256"
        },
        {
          "internalType": "uint256",
          "name": "payment",
          "type": "uint256"
        },
        {
          "internalType": "bytes4",
          "name": "callbackFunc",
          "type": "bytes4"
        },
        {
          "internalType": "uint256",
          "name": "expiration",
          "type": "uint256"
        }
      ],
      "name": "cancelOracleRequestByRequester",
      "outputs": [],
      "stateMutability": "nonpayable",
      "type": "function"
    },
    {
      "inputs": [],
      "name": "getChainlinkToken",
      "outputs": [
        {
          "internalType": "address",
          "name": "",
          "type": "address"
        }
      ],
      "stateMutability": "view",
      "type": "function"
    }
  ],
  "bytecode": "0x60a060405260016006553480156200001657600080fd5b50604051620045b4380380620045b4833981810160405260408110156200003c57600080fd5b810190808051906020019092919080519060200190929190505050808060008073ffffffffffffffffffffffffffffffffffffffff168273ffffffffffffffffffffffffffffffffffffffff161415620000fe576040517f08c379a00000000000000000000000000000000000000000000000000000000081526004018080602001828103825260188152602001807f43616e6e6f7420736574206f776e657220746f207a65726f000000000000000081525060200191505060405180910390fd5b81600260006101000a81548173ffffffffffffffffffffffffffffffffffffffff021916908373ffffffffffffffffffffffffffffffffffffffff160217905550600073ffffffffffffffffffffffffffffffffffffffff168173ffffffffffffffffffffffffffffffffffffffff161462000186576200018581620001c860201b60201c565b5b5050508173ffffffffffffffffffffffffffffffffffffffff1660808173ffffffffffffffffffffffffffffffffffffffff1660601b8152505050506200032b565b3373ffffffffffffffffffffffffffffffffffffffff168173ffffffffffffffffffffffffffffffffffffffff1614156200026b576040517f08c379a00000000000000000000000000000000000000000000000000000000081526004018080602001828103825260178152602001807f43616e6e6f74207472616e7366657220746f2073656c6600000000000000000081525060200191505060405180910390fd5b80600360006101000a81548173ffffffffffffffffffffffffffffffffffffffff021916908373ffffffffffffffffffffffffffffffffffffffff1602179055508073ffffffffffffffffffffffffffffffffffffffff16600260009054906101000a900473ffffffffffffffffffffffffffffffffffffffff1673ffffffffffffffffffffffffffffffffffffffff167fed8889f560326eb138920d842192f0eb3dd22b4f139c87a2c57538e05bae127860405160405180910390a350565b60805160601c6142486200036c600039806111cf5280611414528061256d52806128a05280612d9f52806131ae528061361c5280613b2452506142486000f3fe6080604052600436106101665760003560e01c80636ae0bc76116100d1578063a4c0ed361161008a578063f2fde38b11610064578063f2fde38b14610dc9578063f3fef3a314610e1a578063fa00763a14610e75578063fc4a03ed14610edc57610166565b8063a4c0ed3614610bd9578063eb007d9914610ccb578063ee56997b14610d4357610166565b80636ae0bc76146108725780636bd59ec0146109755780636ee4d55314610a4357806379ba509714610abb5780638da5cb5b14610ad2578063902fc37014610b1357610166565b80633c6d41b9116101235780633c6d41b9146103ff5780633ec5bc14146104f6578063404299461461059c5780634ab0d190146106b4578063501883011461076c5780635ffa62881461079757610166565b806301994b991461016b578063033f49f7146101f1578063165d35e114610297578063181f5a77146102d85780632408afaa1461036857806325cb5bc0146103d4575b600080fd5b34801561017757600080fd5b506101ef6004803603602081101561018e57600080fd5b81019080803590602001906401000000008111156101ab57600080fd5b8201836020820111156101bd57600080fd5b803590602001918460208302840111640100000000831117156101df57600080fd5b9091929391929390505050610fb7565b005b3480156101fd57600080fd5b506102956004803603604081101561021457600080fd5b81019080803573ffffffffffffffffffffffffffffffffffffffff1690602001909291908035906020019064010000000081111561025157600080fd5b82018360208201111561026357600080fd5b8035906020019184600183028401116401000000008311171561028557600080fd5b90919293919293905050506111c4565b005b3480156102a357600080fd5b506102ac611410565b604051808273ffffffffffffffffffffffffffffffffffffffff16815260200191505060405180910390f35b3480156102e457600080fd5b506102ed611438565b6040518080602001828103825283818151815260200191508051906020019080838360005b8381101561032d578082015181840152602081019050610312565b50505050905090810190601f16801561035a5780820380516001836020036101000a031916815260200191505b509250505060405180910390f35b34801561037457600080fd5b5061037d611475565b6040518080602001828103825283818151815260200191508051906020019060200280838360005b838110156103c05780820151818401526020810190506103a5565b505050509050019250505060405180910390f35b3480156103e057600080fd5b506103e9611503565b6040518082815260200191505060405180910390f35b34801561040b57600080fd5b506104f4600480360360e081101561042257600080fd5b81019080803573ffffffffffffffffffffffffffffffffffffffff169060200190929190803590602001909291908035906020019092919080357bffffffffffffffffffffffffffffffffffffffffffffffffffffffff191690602001909291908035906020019092919080359060200190929190803590602001906401000000008111156104b057600080fd5b8201836020820111156104c257600080fd5b803590602001918460018302840111640100000000831117156104e457600080fd5b9091929391929390505050611509565b005b34801561050257600080fd5b5061059a6004803603604081101561051957600080fd5b810190808035906020019064010000000081111561053657600080fd5b82018360208201111561054857600080fd5b8035906020019184602083028401116401000000008311171561056a57600080fd5b9091929391929390803573ffffffffffffffffffffffffffffffffffffffff1690602001909291905050506116b9565b005b3480156105a857600080fd5b506106b260048036036101008110156105c057600080fd5b81019080803573ffffffffffffffffffffffffffffffffffffffff1690602001909291908035906020019092919080359060200190929190803573ffffffffffffffffffffffffffffffffffffffff16906020019092919080357bffffffffffffffffffffffffffffffffffffffffffffffffffffffff1916906020019092919080359060200190929190803590602001909291908035906020019064010000000081111561066e57600080fd5b82018360208201111561068057600080fd5b803590602001918460018302840111640100000000831117156106a257600080fd5b909192939192939050505061180b565b005b3480156106c057600080fd5b50610754600480360360c08110156106d757600080fd5b810190808035906020019092919080359060200190929190803573ffffffffffffffffffffffffffffffffffffffff16906020019092919080357bffffffffffffffffffffffffffffffffffffffffffffffffffffffff1916906020019092919080359060200190929190803590602001909291905050506119bc565b60405180821515815260200191505060405180910390f35b34801561077857600080fd5b50610781611d1c565b6040518082815260200191505060405180910390f35b3480156107a357600080fd5b50610870600480360360408110156107ba57600080fd5b81019080803590602001906401000000008111156107d757600080fd5b8201836020820111156107e957600080fd5b8035906020019184602083028401116401000000008311171561080b57600080fd5b90919293919293908035906020019064010000000081111561082c57600080fd5b82018360208201111561083e57600080fd5b8035906020019184602083028401116401000000008311171561086057600080fd5b9091929391929390505050611d2b565b005b34801561087e57600080fd5b5061095d600480360360c081101561089557600080fd5b810190808035906020019092919080359060200190929190803573ffffffffffffffffffffffffffffffffffffffff16906020019092919080357bffffffffffffffffffffffffffffffffffffffffffffffffffffffff19169060200190929190803590602001909291908035906020019064010000000081111561091957600080fd5b82018360208201111561092b57600080fd5b8035906020019184600183028401116401000000008311171561094d57600080fd5b9091929391929390505050611dc1565b60405180821515815260200191505060405180910390f35b610a416004803603604081101561098b57600080fd5b81019080803590602001906401000000008111156109a857600080fd5b8201836020820111156109ba57600080fd5b803590602001918460208302840111640100000000831117156109dc57600080fd5b9091929391929390803590602001906401000000008111156109fd57600080fd5b820183602082011115610a0f57600080fd5b80359060200191846020830284011164010000000083111715610a3157600080fd5b90919293919293905050506121f8565b005b348015610a4f57600080fd5b50610ab960048036036080811015610a6657600080fd5b81019080803590602001909291908035906020019092919080357bffffffffffffffffffffffffffffffffffffffffffffffffffffffff19169060200190929190803590602001909291905050506123bc565b005b348015610ac757600080fd5b50610ad061263f565b005b348015610ade57600080fd5b50610ae7612809565b604051808273ffffffffffffffffffffffffffffffffffffffff16815260200191505060405180910390f35b348015610b1f57600080fd5b50610bc160048036036060811015610b3657600080fd5b81019080803573ffffffffffffffffffffffffffffffffffffffff1690602001909291908035906020019092919080359060200190640100000000811115610b7d57600080fd5b820183602082011115610b8f57600080fd5b80359060200191846001830284011164010000000083111715610bb157600080fd5b9091929391929390505050612833565b60405180821515815260200191505060405180910390f35b348015610be557600080fd5b50610cc960048036036060811015610bfc57600080fd5b81019080803573ffffffffffffffffffffffffffffffffffffffff1690602001909291908035906020019092919080359060200190640100000000811115610c4357600080fd5b820183602082011115610c5557600080fd5b80359060200191846001830284011164010000000083111715610c7757600080fd5b91908080601f016020809104026020016040519081016040528093929190818152602001838380828437600081840152601f19601f8201169050808301925050505050505091929192905050506129a9565b005b348015610cd757600080fd5b50610d4160048036036080811015610cee57600080fd5b81019080803590602001909291908035906020019092919080357bffffffffffffffffffffffffffffffffffffffffffffffffffffffff1916906020019092919080359060200190929190505050612ba2565b005b348015610d4f57600080fd5b50610dc760048036036020811015610d6657600080fd5b8101908080359060200190640100000000811115610d8357600080fd5b820183602082011115610d9557600080fd5b80359060200191846020830284011164010000000083111715610db757600080fd5b9091929391929390505050612e72565b005b348015610dd557600080fd5b50610e1860048036036020811015610dec57600080fd5b81019080803573ffffffffffffffffffffffffffffffffffffffff16906020019092919050505061312f565b005b348015610e2657600080fd5b50610e7360048036036040811015610e3d57600080fd5b81019080803573ffffffffffffffffffffffffffffffffffffffff16906020019092919080359060200190929190505050613143565b005b348015610e8157600080fd5b50610ec460048036036020811015610e9857600080fd5b81019080803573ffffffffffffffffffffffffffffffffffffffff169060200190929190505050613283565b60405180821515815260200191505060405180910390f35b348015610ee857600080fd5b50610fb560048036036040811015610eff57600080fd5b8101908080359060200190640100000000811115610f1c57600080fd5b820183602082011115610f2e57600080fd5b80359060200191846020830284011164010000000083111715610f5057600080fd5b909192939192939080359060200190640100000000811115610f7157600080fd5b820183602082011115610f8357600080fd5b80359060200191846020830284011164010000000083111715610fa557600080fd5b90919293919293905050506132d8565b005b610fbf6134f1565b611031576040517f08c379a000000000000000000000000000000000000000000000000000000000815260040180806020018281038252601d8152602001807f43616e6e6f742073657420617574686f72697a65642073656e6465727300000081525060200191505060405180910390fd5b60005b828290508110156111bf5760016005600085858581811061105157fe5b9050602002013573ffffffffffffffffffffffffffffffffffffffff1673ffffffffffffffffffffffffffffffffffffffff1673ffffffffffffffffffffffffffffffffffffffff16815260200190815260200160002060006101000a81548160ff0219169083151502179055508282828181106110cb57fe5b9050602002013573ffffffffffffffffffffffffffffffffffffffff1673ffffffffffffffffffffffffffffffffffffffff167f615a0c1cb00a60d4acd77ec67acf2f17f223ef0932d591052fabc33643fe7e8260405160405180910390a282828281811061113657fe5b9050602002013573ffffffffffffffffffffffffffffffffffffffff1673ffffffffffffffffffffffffffffffffffffffff166379ba50976040518163ffffffff1660e01b8152600401600060405180830381600087803b15801561119a57600080fd5b505af11580156111ae573d6000803e3d6000fd5b505050508080600101915050611034565b505050565b6111cc61353e565b827f000000000000000000000000000000000000000000000000000000000000000073ffffffffffffffffffffffffffffffffffffffff168173ffffffffffffffffffffffffffffffffffffffff16141561128f576040517f08c379a00000000000000000000000000000000000000000000000000000000081526004018080602001828103825260138152602001807f43616e6e6f742063616c6c20746f204c494e4b0000000000000000000000000081525060200191505060405180910390fd5b6112ae8473ffffffffffffffffffffffffffffffffffffffff16613603565b611320576040517f08c379a000000000000000000000000000000000000000000000000000000000815260040180806020018281038252601a8152602001807f4d75737420666f727761726420746f206120636f6e747261637400000000000081525060200191505060405180910390fd5b60008473ffffffffffffffffffffffffffffffffffffffff1684846040518083838082843780830192505050925050506000604051808303816000865af19150503d806000811461138d576040519150601f19603f3d011682016040523d82523d6000602084013e611392565b606091505b5050905080611409576040517f08c379a00000000000000000000000000000000000000000000000000000000081526004018080602001828103825260158152602001807f466f727761726465642063616c6c206661696c6564000000000000000000000081525060200191505060405180910390fd5b5050505050565b60007f0000000000000000000000000000000000000000000000000000000000000000905090565b60606040518060400160405280600e81526020017f4f70657261746f7220312e302e30000000000000000000000000000000000000815250905090565b606060018054806020026020016040519081016040528092919081815260200182805480156114f957602002820191906000526020600020905b8160009054906101000a900473ffffffffffffffffffffffffffffffffffffffff1673ffffffffffffffffffffffffffffffffffffffff16815260200190600101908083116114af575b5050505050905090565b61012c81565b611511611410565b73ffffffffffffffffffffffffffffffffffffffff163373ffffffffffffffffffffffffffffffffffffffff16146115b1576040517f08c379a00000000000000000000000000000000000000000000000000000000081526004018080602001828103825260138152602001807f4d75737420757365204c494e4b20746f6b656e0000000000000000000000000081525060200191505060405180910390fd5b6000806115c28a8a8c8a8a8a613616565b91509150877fd8d7ecc4800d25fa53ce0372f13a416d98907a7ef3d8d3bdd79cf4fe75529c658b848c8e8c878c8c8c604051808a73ffffffffffffffffffffffffffffffffffffffff1681526020018981526020018881526020018773ffffffffffffffffffffffffffffffffffffffff168152602001867bffffffffffffffffffffffffffffffffffffffffffffffffffffffff19168152602001858152602001848152602001806020018281038252848482818152602001925080828437600081840152601f19601f8201169050808301925050509a505050505050505050505060405180910390a250505050505050505050565b6116c161353e565b60005b83839050811015611805576000600560008686858181106116e157fe5b9050602002013573ffffffffffffffffffffffffffffffffffffffff1673ffffffffffffffffffffffffffffffffffffffff1673ffffffffffffffffffffffffffffffffffffffff16815260200190815260200160002060006101000a81548160ff02191690831515021790555083838281811061175b57fe5b9050602002013573ffffffffffffffffffffffffffffffffffffffff1673ffffffffffffffffffffffffffffffffffffffff1663f2fde38b836040518263ffffffff1660e01b8152600401808273ffffffffffffffffffffffffffffffffffffffff168152602001915050600060405180830381600087803b1580156117e057600080fd5b505af11580156117f4573d6000803e3d6000fd5b5050505080806001019150506116c4565b50505050565b611813611410565b73ffffffffffffffffffffffffffffffffffffffff163373ffffffffffffffffffffffffffffffffffffffff16146118b3576040517f08c379a00000000000000000000000000000000000000000000000000000000081526004018080602001828103825260138152602001807f4d75737420757365204c494e4b20746f6b656e0000000000000000000000000081525060200191505060405180910390fd5b6000806118c48b8b8a8a8a8a613616565b91509150887fd8d7ecc4800d25fa53ce0372f13a416d98907a7ef3d8d3bdd79cf4fe75529c658c848d8f8c878c8c8c604051808a73ffffffffffffffffffffffffffffffffffffffff1681526020018981526020018881526020018773ffffffffffffffffffffffffffffffffffffffff168152602001867bffffffffffffffffffffffffffffffffffffffffffffffffffffffff19168152602001858152602001848152602001806020018281038252848482818152602001925080828437600081840152601f19601f8201169050808301925050509a505050505050505050505060405180910390a25050505050505050505050565b60006119c66138af565b86600060081b6004600083815260200190815260200160002060000160009054906101000a900460081b60ff19161415611a68576040517f08c379a000000000000000000000000000000000000000000000000000000000815260040180806020018281038252601b8152602001807f4d757374206861766520612076616c696420726571756573744964000000000081525060200191505060405180910390fd5b85600560008273ffffffffffffffffffffffffffffffffffffffff1673ffffffffffffffffffffffffffffffffffffffff16815260200190815260200160002060009054906101000a900460ff1615611b29576040517f08c379a000000000000000000000000000000000000000000000000000000000815260040180806020018281038252601a8152602001807f43616e6e6f742063616c6c206f776e656420636f6e747261637400000000000081525060200191505060405180910390fd5b611b388989898989600161392c565b887f9e9bc7616d42c2835d05ae617e508454e63b30b934be8aa932ebc125e0e58a6460405160405180910390a262061a805a1015611bde576040517f08c379a00000000000000000000000000000000000000000000000000000000081526004018080602001828103825260208152602001807f4d7573742070726f7669646520636f6e73756d657220656e6f7567682067617381525060200191505060405180910390fd5b60008773ffffffffffffffffffffffffffffffffffffffff16878b876040516024018083815260200182815260200192505050604051602081830303815290604052907bffffffffffffffffffffffffffffffffffffffffffffffffffffffff19166020820180517bffffffffffffffffffffffffffffffffffffffffffffffffffffffff83818316178352505050506040518082805190602001908083835b60208310611ca15780518252602082019150602081019050602083039250611c7e565b6001836020036101000a0380198251168184511680821785525050505050509050019150506000604051808303816000865af19150503d8060008114611d03576040519150601f19603f3d011682016040523d82523d6000602084013e611d08565b606091505b505090508093505050509695505050505050565b6000611d26613b03565b905090565b611d336134f1565b611da5576040517f08c379a000000000000000000000000000000000000000000000000000000000815260040180806020018281038252601d8152602001807f43616e6e6f742073657420617574686f72697a65642073656e6465727300000081525060200191505060405180910390fd5b611daf8484610fb7565b611dbb848484846132d8565b50505050565b6000611dcb6138af565b87600060081b6004600083815260200190815260200160002060000160009054906101000a900460081b60ff19161415611e6d576040517f08c379a000000000000000000000000000000000000000000000000000000000815260040180806020018281038252601b8152602001807f4d757374206861766520612076616c696420726571756573744964000000000081525060200191505060405180910390fd5b86600560008273ffffffffffffffffffffffffffffffffffffffff1673ffffffffffffffffffffffffffffffffffffffff16815260200190815260200160002060009054906101000a900460ff1615611f2e576040517f08c379a000000000000000000000000000000000000000000000000000000000815260040180806020018281038252601a8152602001807f43616e6e6f742063616c6c206f776e656420636f6e747261637400000000000081525060200191505060405180910390fd5b8985856020828290501015611fab576040517f08c379a000000000000000000000000000000000000000000000000000000000815260040180806020018281038252601b8152602001807f526573706f6e7365206d757374206265203e203332206279746573000000000081525060200191505060405180910390fd5b600060e4359050808414612027576040517f08c379a000000000000000000000000000000000000000000000000000000000815260040180806020018281038252601c8152602001807f466972737420776f7264206d757374206265207265717565737449640000000081525060200191505060405180910390fd5b6120368e8e8e8e8e600261392c565b8d7f9e9bc7616d42c2835d05ae617e508454e63b30b934be8aa932ebc125e0e58a6460405160405180910390a262061a805a10156120dc576040517f08c379a00000000000000000000000000000000000000000000000000000000081526004018080602001828103825260208152602001807f4d7573742070726f7669646520636f6e73756d657220656e6f7567682067617381525060200191505060405180910390fd5b60008c73ffffffffffffffffffffffffffffffffffffffff168c8b8b60405160200180847bffffffffffffffffffffffffffffffffffffffffffffffffffffffff191681526004018383808284378083019250505093505050506040516020818303038152906040526040518082805190602001908083835b602083106121785780518252602082019150602081019050602083039250612155565b6001836020036101000a0380198251168184511680821785525050505050509050019150506000604051808303816000865af19150503d80600081146121da576040519150601f19603f3d011682016040523d82523d6000602084013e6121df565b606091505b5050905080975050505050505050979650505050505050565b60008484905011801561221057508181905084849050145b612282576040517f08c379a00000000000000000000000000000000000000000000000000000000081526004018080602001828103825260178152602001807f496e76616c6964206172726179206c656e67746828732900000000000000000081525060200191505060405180910390fd5b600034905060005b8585905081101561233e5760008484838181106122a357fe5b9050602002013590506122bf8184613bf890919063ffffffff16565b92508686838181106122cd57fe5b9050602002013573ffffffffffffffffffffffffffffffffffffffff1673ffffffffffffffffffffffffffffffffffffffff166108fc829081150290604051600060405180830381858888f1935050505015801561232f573d6000803e3d6000fd5b5050808060010191505061228a565b50600081146123b5576040517f08c379a00000000000000000000000000000000000000000000000000000000081526004018080602001828103825260118152602001807f546f6f206d756368204554482073656e7400000000000000000000000000000081525060200191505060405180910390fd5b5050505050565b60006123ca84338585613c81565b90508060ff19166004600087815260200190815260200160002060000160009054906101000a900460081b60ff19161461246c576040517f08c379a000000000000000000000000000000000000000000000000000000000815260040180806020018281038252601e8152602001807f506172616d7320646f206e6f74206d617463682072657175657374204944000081525060200191505060405180910390fd5b428211156124e2576040517f08c379a00000000000000000000000000000000000000000000000000000000081526004018080602001828103825260168152602001807f52657175657374206973206e6f7420657870697265640000000000000000000081525060200191505060405180910390fd5b60046000868152602001908152602001600020600080820160006101000a8154907effffffffffffffffffffffffffffffffffffffffffffffffffffffffffffff021916905560008201601f6101000a81549060ff02191690555050847fa7842b9ec549398102c0d91b1b9919b2f20558aefdadf57528a95c6cd3292e9360405160405180910390a27f000000000000000000000000000000000000000000000000000000000000000073ffffffffffffffffffffffffffffffffffffffff1663a9059cbb33866040518363ffffffff1660e01b8152600401808373ffffffffffffffffffffffffffffffffffffffff16815260200182815260200192505050602060405180830381600087803b1580156125fc57600080fd5b505af1158015612610573d6000803e3d6000fd5b505050506040513d602081101561262657600080fd5b8101908080519060200190929190505050505050505050565b600360009054906101000a900473ffffffffffffffffffffffffffffffffffffffff1673ffffffffffffffffffffffffffffffffffffffff163373ffffffffffffffffffffffffffffffffffffffff1614612702576040517f08c379a00000000000000000000000000000000000000000000000000000000081526004018080602001828103825260168152602001807f4d7573742062652070726f706f736564206f776e65720000000000000000000081525060200191505060405180910390fd5b6000600260009054906101000a900473ffffffffffffffffffffffffffffffffffffffff16905033600260006101000a81548173ffffffffffffffffffffffffffffffffffffffff021916908373ffffffffffffffffffffffffffffffffffffffff1602179055506000600360006101000a81548173ffffffffffffffffffffffffffffffffffffffff021916908373ffffffffffffffffffffffffffffffffffffffff1602179055503373ffffffffffffffffffffffffffffffffffffffff168173ffffffffffffffffffffffffffffffffffffffff167f8be0079c531659141344cd1fd0a4f28419497f9722a3daafe3b4186f6b6457e060405160405180910390a350565b6000600260009054906101000a900473ffffffffffffffffffffffffffffffffffffffff16905090565b600061283d61353e565b8380612847613b03565b101561289e576040517f08c379a00000000000000000000000000000000000000000000000000000000081526004018080602001828103825260358152602001806141de6035913960400191505060405180910390fd5b7f000000000000000000000000000000000000000000000000000000000000000073ffffffffffffffffffffffffffffffffffffffff16634000aea0878787876040518563ffffffff1660e01b8152600401808573ffffffffffffffffffffffffffffffffffffffff168152602001848152602001806020018281038252848482818152602001925080828437600081840152601f19601f82011690508083019250505095505050505050602060405180830381600087803b15801561296357600080fd5b505af1158015612977573d6000803e3d6000fd5b505050506040513d602081101561298d57600080fd5b8101908080519060200190929190505050915050949350505050565b6129b1611410565b73ffffffffffffffffffffffffffffffffffffffff163373ffffffffffffffffffffffffffffffffffffffff1614612a51576040517f08c379a00000000000000000000000000000000000000000000000000000000081526004018080602001828103825260138152602001807f4d75737420757365204c494e4b20746f6b656e0000000000000000000000000081525060200191505060405180910390fd5b80600060208201519050612a658183613d04565b84602484015283604484015260003073ffffffffffffffffffffffffffffffffffffffff16846040518082805190602001908083835b60208310612abe5780518252602082019150602081019050602083039250612a9b565b6001836020036101000a038019825116818451168082178552505050505050905001915050600060405180830381855af49150503d8060008114612b1e576040519150601f19603f3d011682016040523d82523d6000602084013e612b23565b606091505b5050905080612b9a576040517f08c379a00000000000000000000000000000000000000000000000000000000081526004018080602001828103825260188152602001807f556e61626c6520746f206372656174652072657175657374000000000000000081525060200191505060405180910390fd5b505050505050565b60003385604051602001808373ffffffffffffffffffffffffffffffffffffffff1660601b8152601401828152602001925050506040516020818303038152906040528051906020012090506000612bfc85338686613c81565b90508060ff19166004600084815260200190815260200160002060000160009054906101000a900460081b60ff191614612c9e576040517f08c379a000000000000000000000000000000000000000000000000000000000815260040180806020018281038252601e8152602001807f506172616d7320646f206e6f74206d617463682072657175657374204944000081525060200191505060405180910390fd5b42831115612d14576040517f08c379a00000000000000000000000000000000000000000000000000000000081526004018080602001828103825260168152602001807f52657175657374206973206e6f7420657870697265640000000000000000000081525060200191505060405180910390fd5b60046000838152602001908152602001600020600080820160006101000a8154907effffffffffffffffffffffffffffffffffffffffffffffffffffffffffffff021916905560008201601f6101000a81549060ff02191690555050817fa7842b9ec549398102c0d91b1b9919b2f20558aefdadf57528a95c6cd3292e9360405160405180910390a27f000000000000000000000000000000000000000000000000000000000000000073ffffffffffffffffffffffffffffffffffffffff1663a9059cbb33876040518363ffffffff1660e01b8152600401808373ffffffffffffffffffffffffffffffffffffffff16815260200182815260200192505050602060405180830381600087803b158015612e2e57600080fd5b505af1158015612e42573d6000803e3d6000fd5b505050506040513d6020811015612e5857600080fd5b810190808051906020019092919050505050505050505050565b612e7a6134f1565b612eec576040517f08c379a000000000000000000000000000000000000000000000000000000000815260040180806020018281038252601d8152602001807f43616e6e6f742073657420617574686f72697a65642073656e6465727300000081525060200191505060405180910390fd5b60008282905011612f48576040517f08c379a00000000000000000000000000000000000000000000000000000000081526004018080602001828103825260268152602001806141b86026913960400191505060405180910390fd5b6000600180549050905060005b81811015612ff857600080600060018481548110612f6f57fe5b9060005260206000200160009054906101000a900473ffffffffffffffffffffffffffffffffffffffff1673ffffffffffffffffffffffffffffffffffffffff1673ffffffffffffffffffffffffffffffffffffffff16815260200190815260200160002060006101000a81548160ff0219169083151502179055508080600101915050612f55565b5060005b8383905081101561309357600160008086868581811061301857fe5b9050602002013573ffffffffffffffffffffffffffffffffffffffff1673ffffffffffffffffffffffffffffffffffffffff1673ffffffffffffffffffffffffffffffffffffffff16815260200190815260200160002060006101000a81548160ff0219169083151502179055508080600101915050612ffc565b508282600191906130a59291906140fa565b507ff263cfb3e4298332e776194610cf9fdc09ccb3ada8b9aa39764d882e11fbf0a083833360405180806020018373ffffffffffffffffffffffffffffffffffffffff1681526020018281038252858582818152602001925060200280828437600081840152601f19601f82011690508083019250505094505050505060405180910390a1505050565b61313761353e565b61314081613e8f565b50565b61314b61353e565b8080613155613b03565b10156131ac576040517f08c379a00000000000000000000000000000000000000000000000000000000081526004018080602001828103825260358152602001806141de6035913960400191505060405180910390fd5b7f000000000000000000000000000000000000000000000000000000000000000073ffffffffffffffffffffffffffffffffffffffff1663a9059cbb84846040518363ffffffff1660e01b8152600401808373ffffffffffffffffffffffffffffffffffffffff16815260200182815260200192505050602060405180830381600087803b15801561323d57600080fd5b505af1158015613251573d6000803e3d6000fd5b505050506040513d602081101561326757600080fd5b810190808051906020019092919050505061327e57fe5b505050565b60008060008373ffffffffffffffffffffffffffffffffffffffff1673ffffffffffffffffffffffffffffffffffffffff16815260200190815260200160002060009054906101000a900460ff169050919050565b6132e06134f1565b613352576040517f08c379a000000000000000000000000000000000000000000000000000000000815260040180806020018281038252601d8152602001807f43616e6e6f742073657420617574686f72697a65642073656e6465727300000081525060200191505060405180910390fd5b7f1bb185903e2cb2f1b303523128b60e314dea81df4f8d9b7351cadd344f6e772784848484336040518080602001806020018473ffffffffffffffffffffffffffffffffffffffff1681526020018381038352888882818152602001925060200280828437600081840152601f19601f8201169050808301925050508381038252868682818152602001925060200280828437600081840152601f19601f82011690508083019250505097505050505050505060405180910390a160005b848490508110156134ea5784848281811061342757fe5b9050602002013573ffffffffffffffffffffffffffffffffffffffff1673ffffffffffffffffffffffffffffffffffffffff1663ee56997b84846040518363ffffffff1660e01b815260040180806020018281038252848482818152602001925060200280828437600081840152601f19601f8201169050808301925050509350505050600060405180830381600087803b1580156134c557600080fd5b505af11580156134d9573d6000803e3d6000fd5b505050508080600101915050613410565b5050505050565b60006134fc33613283565b8061353957503373ffffffffffffffffffffffffffffffffffffffff16613521612809565b73ffffffffffffffffffffffffffffffffffffffff16145b905090565b600260009054906101000a900473ffffffffffffffffffffffffffffffffffffffff1673ffffffffffffffffffffffffffffffffffffffff163373ffffffffffffffffffffffffffffffffffffffff1614613601576040517f08c379a00000000000000000000000000000000000000000000000000000000081526004018080602001828103825260168152602001807f4f6e6c792063616c6c61626c65206279206f776e65720000000000000000000081525060200191505060405180910390fd5b565b600080823b905060008111915050919050565b600080857f000000000000000000000000000000000000000000000000000000000000000073ffffffffffffffffffffffffffffffffffffffff168173ffffffffffffffffffffffffffffffffffffffff1614156136dc576040517f08c379a00000000000000000000000000000000000000000000000000000000081526004018080602001828103825260138152602001807f43616e6e6f742063616c6c20746f204c494e4b0000000000000000000000000081525060200191505060405180910390fd5b8885604051602001808373ffffffffffffffffffffffffffffffffffffffff1660601b815260140182815260200192505050604051602081830303815290604052805190602001209250600060081b6004600085815260200190815260200160002060000160009054906101000a900460081b60ff1916146137c6576040517f08c379a00000000000000000000000000000000000000000000000000000000081526004018080602001828103825260148152602001807f4d75737420757365206120756e6971756520494400000000000000000000000081525060200191505060405180910390fd5b6137db61012c42613ff190919063ffffffff16565b915060006137eb89898986613c81565b905060405180604001604052808260ff1916815260200161380b87614079565b60ff168152506004600086815260200190815260200160002060008201518160000160006101000a8154817effffffffffffffffffffffffffffffffffffffffffffffffffffffffffffff021916908360081c0217905550602082015181600001601f6101000a81548160ff021916908360ff16021790555090505061389c89600654613ff190919063ffffffff16565b6006819055505050965096945050505050565b6138b833613283565b61392a576040517f08c379a00000000000000000000000000000000000000000000000000000000081526004018080602001828103825260158152602001807f4e6f7420617574686f72697a65642073656e646572000000000000000000000081525060200191505060405180910390fd5b565b600061393a86868686613c81565b90508060ff19166004600089815260200190815260200160002060000160009054906101000a900460081b60ff1916146139dc576040517f08c379a000000000000000000000000000000000000000000000000000000000815260040180806020018281038252601e8152602001807f506172616d7320646f206e6f74206d617463682072657175657374204944000081525060200191505060405180910390fd5b6139e582614079565b60ff1660046000898152602001908152602001600020600001601f9054906101000a900460ff1660ff161115613a83576040517f08c379a00000000000000000000000000000000000000000000000000000000081526004018080602001828103825260188152602001807f446174612076657273696f6e73206d757374206d61746368000000000000000081525060200191505060405180910390fd5b613a9886600654613bf890919063ffffffff16565b60068190555060046000888152602001908152602001600020600080820160006101000a8154907effffffffffffffffffffffffffffffffffffffffffffffffffffffffffffff021916905560008201601f6101000a81549060ff0219169055505050505050505050565b600080613b1c6001600654613bf890919063ffffffff16565b9050613bf2817f000000000000000000000000000000000000000000000000000000000000000073ffffffffffffffffffffffffffffffffffffffff166370a08231306040518263ffffffff1660e01b8152600401808273ffffffffffffffffffffffffffffffffffffffff16815260200191505060206040518083038186803b158015613ba957600080fd5b505afa158015613bbd573d6000803e3d6000fd5b505050506040513d6020811015613bd357600080fd5b8101908080519060200190929190505050613bf890919063ffffffff16565b91505090565b600082821115613c70576040517f08c379a000000000000000000000000000000000000000000000000000000000815260040180806020018281038252601e8152602001807f536166654d6174683a207375627472616374696f6e206f766572666c6f77000081525060200191505060405180910390fd5b600082840390508091505092915050565b600084848484604051602001808581526020018473ffffffffffffffffffffffffffffffffffffffff1660601b8152601401837bffffffffffffffffffffffffffffffffffffffffffffffffffffffff19168152600401828152602001945050505050604051602081830303815290604052805190602001209050949350505050565b600260200260040181511015613d82576040517f08c379a00000000000000000000000000000000000000000000000000000000081526004018080602001828103825260168152602001807f496e76616c69642072657175657374206c656e6774680000000000000000000081525060200191505060405180910390fd5b633c6d41b960e01b7bffffffffffffffffffffffffffffffffffffffffffffffffffffffff1916827bffffffffffffffffffffffffffffffffffffffffffffffffffffffff19161480613e195750634042994660e01b7bffffffffffffffffffffffffffffffffffffffffffffffffffffffff1916827bffffffffffffffffffffffffffffffffffffffffffffffffffffffff1916145b613e8b576040517f08c379a000000000000000000000000000000000000000000000000000000000815260040180806020018281038252601e8152602001807f4d757374207573652077686974656c69737465642066756e6374696f6e73000081525060200191505060405180910390fd5b5050565b3373ffffffffffffffffffffffffffffffffffffffff168173ffffffffffffffffffffffffffffffffffffffff161415613f31576040517f08c379a00000000000000000000000000000000000000000000000000000000081526004018080602001828103825260178152602001807f43616e6e6f74207472616e7366657220746f2073656c6600000000000000000081525060200191505060405180910390fd5b80600360006101000a81548173ffffffffffffffffffffffffffffffffffffffff021916908373ffffffffffffffffffffffffffffffffffffffff1602179055508073ffffffffffffffffffffffffffffffffffffffff16600260009054906101000a900473ffffffffffffffffffffffffffffffffffffffff1673ffffffffffffffffffffffffffffffffffffffff167fed8889f560326eb138920d842192f0eb3dd22b4f139c87a2c57538e05bae127860405160405180910390a350565b60008082840190508381101561406f576040517f08c379a000000000000000000000000000000000000000000000000000000000815260040180806020018281038252601b8152602001807f536166654d6174683a206164646974696f6e206f766572666c6f77000000000081525060200191505060405180910390fd5b8091505092915050565b600061010082106140f2576040517f08c379a00000000000000000000000000000000000000000000000000000000081526004018080602001828103825260168152602001807f6e756d62657220746f6f2062696720746f20636173740000000000000000000081525060200191505060405180910390fd5b819050919050565b828054828255906000526020600020908101928215614189579160200282015b8281111561418857823573ffffffffffffffffffffffffffffffffffffffff168260006101000a81548173ffffffffffffffffffffffffffffffffffffffff021916908373ffffffffffffffffffffffffffffffffffffffff1602179055509160200191906001019061411a565b5b509050614196919061419a565b5090565b5b808211156141b357600081600090555060010161419b565b509056fe4d7573742068617665206174206c65617374203120617574686f72697a65642073656e646572416d6f756e74207265717565737465642069732067726561746572207468616e20776974686472617761626c652062616c616e6365a2646970667358221220bb27201d1d05127dc9677c7e087d2449c9622fd7908d84f136d1d5a9cc1820ae64736f6c63430007060033",
  "immutableReferences": {
    "2385": [
      {
        "length": 32,
        "start": 4559
      },
      {
        "length": 32,
        "start": 5140
      },
      {
        "length": 32,
        "start": 9581
      },
      {
        "length": 32,
        "start": 10400
      },
      {
        "length": 32,
        "start": 11679
      },
      {
        "length": 32,
        "start": 12718
      },
      {
        "length": 32,
        "start": 13852
      },
      {
        "length": 32,
        "start": 15140
      }
    ]
  },
  "source": "// SPDX-License-Identifier: MIT\npragma solidity ^0.7.0;\n\nimport \"@chainlink/contracts/src/v0.7/AuthorizedReceiver.sol\";\nimport \"@chainlink/contracts/src/v0.7/LinkTokenReceiver.sol\";\nimport \"@chainlink/contracts/src/v0.7/ConfirmedOwner.sol\";\nimport \"@chainlink/contracts/src/v0.7/interfaces/LinkTokenInterface.sol\";\nimport \"@chainlink/contracts/src/v0.7/interfaces/OperatorInterface.sol\";\nimport \"@chainlink/contracts/src/v0.7/interfaces/OwnableInterface.sol\";\nimport \"@chainlink/contracts/src/v0.7/interfaces/WithdrawalInterface.sol\";\nimport \"@chainlink/contracts/src/v0.7/vendor/Address.sol\";\nimport \"@chainlink/contracts/src/v0.7/vendor/SafeMathChainlink.sol\";\n\n/**\n * @title The Chainlink Operator contract\n * @notice Node operators can deploy this contract to fulfill requests sent to them\n */\ncontract Operator is\n    AuthorizedReceiver,\n    ConfirmedOwner,\n    LinkTokenReceiver,\n    OperatorInterface,\n    WithdrawalInterface\n{\n    using Address for address;\n    using SafeMathChainlink for uint256;\n\n    struct Commitment {\n        bytes31 paramsHash;\n        uint8 dataVersion;\n    }\n\n    uint256 public constant getExpiryTime = 5 minutes;\n    uint256 private constant MAXIMUM_DATA_VERSION = 256;\n    uint256 private constant MINIMUM_CONSUMER_GAS_LIMIT = 400000;\n    uint256 private constant SELECTOR_LENGTH = 4;\n    uint256 private constant EXPECTED_REQUEST_WORDS = 2;\n    uint256 private constant MINIMUM_REQUEST_LENGTH =\n        SELECTOR_LENGTH + (32 * EXPECTED_REQUEST_WORDS);\n    // We initialize fields to 1 instead of 0 so that the first invocation\n    // does not cost more gas.\n    uint256 private constant ONE_FOR_CONSISTENT_GAS_COST = 1;\n    // oracleRequest is intended for version 1, enabling single word responses\n    bytes4 private constant ORACLE_REQUEST_SELECTOR =\n        this.oracleRequest.selector;\n    // operatorRequest is intended for version 2, enabling multi-word responses\n    bytes4 private constant OPERATOR_REQUEST_SELECTOR =\n        this.operatorRequest.selector;\n\n    LinkTokenInterface internal immutable linkToken;\n    mapping(bytes32 => Commitment) private s_commitments;\n    mapping(address => bool) private s_owned;\n    // Tokens sent for requests that have not been fulfilled yet\n    uint256 private s_tokensInEscrow = ONE_FOR_CONSISTENT_GAS_COST;\n\n    event OracleRequest(\n        bytes32 indexed specId,\n        address requester,\n        bytes32 requestId,\n        uint256 payment,\n        address callbackAddr,\n        bytes4 callbackFunctionId,\n        uint256 cancelExpiration,\n        uint256 dataVersion,\n        bytes data\n    );\n\n    event CancelOracleRequest(bytes32 indexed requestId);\n\n    event OracleResponse(bytes32 indexed requestId);\n\n    event OwnableContractAccepted(address indexed acceptedContract);\n\n    event TargetsUpdatedAuthorizedSenders(\n        address[] targets,\n        address[] senders,\n        address changedBy\n    );\n\n    /**\n     * @notice Deploy with the address of the LINK token\n     * @dev Sets the LinkToken address for the imported LinkTokenInterface\n     * @param link The address of the LINK token\n     * @param owner The address of the owner\n     */\n    constructor(address link, address owner) ConfirmedOwner(owner) {\n        linkToken = LinkTokenInterface(link); // external but already deployed and unalterable\n    }\n\n    /**\n     * @notice The type and version of this contract\n     * @return Type and version string\n     */\n    function typeAndVersion() external pure virtual returns (string memory) {\n        return \"Operator 1.0.0\";\n    }\n\n    /**\n     * @notice Creates the Chainlink request. This is a backwards compatible API\n     * with the Oracle.sol contract, but the behavior changes because\n     * callbackAddress is assumed to be the same as the request sender.\n     * @param callbackAddress The consumer of the request\n     * @param payment The amount of payment given (specified in wei)\n     * @param specId The Job Specification ID\n     * @param callbackAddress The address the oracle data will be sent to\n     * @param callbackFunctionId The callback function ID for the response\n     * @param nonce The nonce sent by the requester\n     * @param dataVersion The specified data version\n     * @param data The extra request parameters\n     */\n    function oracleRequest(\n        address sender,\n        uint256 payment,\n        bytes32 specId,\n        address callbackAddress,\n        bytes4 callbackFunctionId,\n        uint256 nonce,\n        uint256 dataVersion,\n        bytes calldata data\n    ) external override validateFromLINK {\n        (\n            bytes32 requestId,\n            uint256 expiration\n        ) = _verifyAndProcessOracleRequest(\n                sender,\n                payment,\n                callbackAddress,\n                callbackFunctionId,\n                nonce,\n                dataVersion\n            );\n        emit OracleRequest(\n            specId,\n            sender,\n            requestId,\n            payment,\n            sender,\n            callbackFunctionId,\n            expiration,\n            dataVersion,\n            data\n        );\n    }\n\n    /**\n     * @notice Creates the Chainlink request\n     * @dev Stores the hash of the params as the on-chain commitment for the request.\n     * Emits OracleRequest event for the Chainlink node to detect.\n     * @param sender The sender of the request\n     * @param payment The amount of payment given (specified in wei)\n     * @param specId The Job Specification ID\n     * @param callbackFunctionId The callback function ID for the response\n     * @param nonce The nonce sent by the requester\n     * @param dataVersion The specified data version\n     * @param data The extra request parameters\n     */\n    function operatorRequest(\n        address sender,\n        uint256 payment,\n        bytes32 specId,\n        bytes4 callbackFunctionId,\n        uint256 nonce,\n        uint256 dataVersion,\n        bytes calldata data\n    ) external override validateFromLINK {\n        (\n            bytes32 requestId,\n            uint256 expiration\n        ) = _verifyAndProcessOracleRequest(\n                sender,\n                payment,\n                sender,\n                callbackFunctionId,\n                nonce,\n                dataVersion\n            );\n        emit OracleRequest(\n            specId,\n            sender,\n            requestId,\n            payment,\n            sender,\n            callbackFunctionId,\n            expiration,\n            dataVersion,\n            data\n        );\n    }\n\n    /**\n     * @notice Called by the Chainlink node to fulfill requests\n     * @dev Given params must hash back to the commitment stored from `oracleRequest`.\n     * Will call the callback address' callback function without bubbling up error\n     * checking in a `require` so that the node can get paid.\n     * @param requestId The fulfillment request ID that must match the requester's\n     * @param payment The payment amount that will be released for the oracle (specified in wei)\n     * @param callbackAddress The callback address to call for fulfillment\n     * @param callbackFunctionId The callback function ID to use for fulfillment\n     * @param expiration The expiration that the node should respond by before the requester can cancel\n     * @param data The data to return to the consuming contract\n     * @return Status if the external call was successful\n     */\n    function fulfillOracleRequest(\n        bytes32 requestId,\n        uint256 payment,\n        address callbackAddress,\n        bytes4 callbackFunctionId,\n        uint256 expiration,\n        bytes32 data\n    )\n        external\n        override\n        validateAuthorizedSender\n        validateRequestId(requestId)\n        validateCallbackAddress(callbackAddress)\n        returns (bool)\n    {\n        _verifyOracleRequestAndProcessPayment(\n            requestId,\n            payment,\n            callbackAddress,\n            callbackFunctionId,\n            expiration,\n            1\n        );\n        emit OracleResponse(requestId);\n        require(\n            gasleft() >= MINIMUM_CONSUMER_GAS_LIMIT,\n            \"Must provide consumer enough gas\"\n        );\n        // All updates to the oracle's fulfillment should come before calling the\n        // callback(addr+functionId) as it is untrusted.\n        // See: https://solidity.readthedocs.io/en/develop/security-considerations.html#use-the-checks-effects-interactions-pattern\n        (bool success, ) = callbackAddress.call(\n            abi.encodeWithSelector(callbackFunctionId, requestId, data)\n        ); // solhint-disable-line avoid-low-level-calls\n        return success;\n    }\n\n    /**\n     * @notice Called by the Chainlink node to fulfill requests with multi-word support\n     * @dev Given params must hash back to the commitment stored from `oracleRequest`.\n     * Will call the callback address' callback function without bubbling up error\n     * checking in a `require` so that the node can get paid.\n     * @param requestId The fulfillment request ID that must match the requester's\n     * @param payment The payment amount that will be released for the oracle (specified in wei)\n     * @param callbackAddress The callback address to call for fulfillment\n     * @param callbackFunctionId The callback function ID to use for fulfillment\n     * @param expiration The expiration that the node should respond by before the requester can cancel\n     * @param data The data to return to the consuming contract\n     * @return Status if the external call was successful\n     */\n    function fulfillOracleRequest2(\n        bytes32 requestId,\n        uint256 payment,\n        address callbackAddress,\n        bytes4 callbackFunctionId,\n        uint256 expiration,\n        bytes calldata data\n    )\n        external\n        override\n        validateAuthorizedSender\n        validateRequestId(requestId)\n        validateCallbackAddress(callbackAddress)\n        validateMultiWordResponseId(requestId, data)\n        returns (bool)\n    {\n        _verifyOracleRequestAndProcessPayment(\n            requestId,\n            payment,\n            callbackAddress,\n            callbackFunctionId,\n            expiration,\n            2\n        );\n        emit OracleResponse(requestId);\n        require(\n            gasleft() >= MINIMUM_CONSUMER_GAS_LIMIT,\n            \"Must provide consumer enough gas\"\n        );\n        // All updates to the oracle's fulfillment should come before calling the\n        // callback(addr+functionId) as it is untrusted.\n        // See: https://solidity.readthedocs.io/en/develop/security-considerations.html#use-the-checks-effects-interactions-pattern\n        (bool success, ) = callbackAddress.call(\n            abi.encodePacked(callbackFunctionId, data)\n        ); // solhint-disable-line avoid-low-level-calls\n        return success;\n    }\n\n    /**\n     * @notice Transfer the ownership of ownable contracts. This is primarily\n     * intended for Authorized Forwarders but could possibly be extended to work\n     * with future contracts.\n     * @param ownable list of addresses to transfer\n     * @param newOwner address to transfer ownership to\n     */\n    function transferOwnableContracts(\n        address[] calldata ownable,\n        address newOwner\n    ) external onlyOwner {\n        for (uint256 i = 0; i < ownable.length; i++) {\n            s_owned[ownable[i]] = false;\n            OwnableInterface(ownable[i]).transferOwnership(newOwner);\n        }\n    }\n\n    /**\n     * @notice Accept the ownership of an ownable contract. This is primarily\n     * intended for Authorized Forwarders but could possibly be extended to work\n     * with future contracts.\n     * @dev Must be the pending owner on the contract\n     * @param ownable list of addresses of Ownable contracts to accept\n     */\n    function acceptOwnableContracts(address[] calldata ownable)\n        public\n        validateAuthorizedSenderSetter\n    {\n        for (uint256 i = 0; i < ownable.length; i++) {\n            s_owned[ownable[i]] = true;\n            emit OwnableContractAccepted(ownable[i]);\n            OwnableInterface(ownable[i]).acceptOwnership();\n        }\n    }\n\n    /**\n     * @notice Sets the fulfillment permission for\n     * @param targets The addresses to set permissions on\n     * @param senders The addresses that are allowed to send updates\n     */\n    function setAuthorizedSendersOn(\n        address[] calldata targets,\n        address[] calldata senders\n    ) public validateAuthorizedSenderSetter {\n        TargetsUpdatedAuthorizedSenders(targets, senders, msg.sender);\n\n        for (uint256 i = 0; i < targets.length; i++) {\n            AuthorizedReceiverInterface(targets[i]).setAuthorizedSenders(\n                senders\n            );\n        }\n    }\n\n    /**\n     * @notice Accepts ownership of ownable contracts and then immediately sets\n     * the authorized sender list on each of the newly owned contracts. This is\n     * primarily intended for Authorized Forwarders but could possibly be\n     * extended to work with future contracts.\n     * @param targets The addresses to set permissions on\n     * @param senders The addresses that are allowed to send updates\n     */\n    function acceptAuthorizedReceivers(\n        address[] calldata targets,\n        address[] calldata senders\n    ) external validateAuthorizedSenderSetter {\n        acceptOwnableContracts(targets);\n        setAuthorizedSendersOn(targets, senders);\n    }\n\n    /**\n     * @notice Allows the node operator to withdraw earned LINK to a given address\n     * @dev The owner of the contract can be another wallet and does not have to be a Chainlink node\n     * @param recipient The address to send the LINK token to\n     * @param amount The amount to send (specified in wei)\n     */\n    function withdraw(address recipient, uint256 amount)\n        external\n        override(OracleInterface, WithdrawalInterface)\n        onlyOwner\n        validateAvailableFunds(amount)\n    {\n        assert(linkToken.transfer(recipient, amount));\n    }\n\n    /**\n     * @notice Displays the amount of LINK that is available for the node operator to withdraw\n     * @dev We use `ONE_FOR_CONSISTENT_GAS_COST` in place of 0 in storage\n     * @return The amount of withdrawable LINK on the contract\n     */\n    function withdrawable()\n        external\n        view\n        override(OracleInterface, WithdrawalInterface)\n        returns (uint256)\n    {\n        return _fundsAvailable();\n    }\n\n    /**\n     * @notice Forward a call to another contract\n     * @dev Only callable by the owner\n     * @param to address\n     * @param data to forward\n     */\n    function ownerForward(address to, bytes calldata data)\n        external\n        onlyOwner\n        validateNotToLINK(to)\n    {\n        require(to.isContract(), \"Must forward to a contract\");\n        (bool status, ) = to.call(data);\n        require(status, \"Forwarded call failed\");\n    }\n\n    /**\n     * @notice Interact with other LinkTokenReceiver contracts by calling transferAndCall\n     * @param to The address to transfer to.\n     * @param value The amount to be transferred.\n     * @param data The extra data to be passed to the receiving contract.\n     * @return success bool\n     */\n    function ownerTransferAndCall(\n        address to,\n        uint256 value,\n        bytes calldata data\n    )\n        external\n        override\n        onlyOwner\n        validateAvailableFunds(value)\n        returns (bool success)\n    {\n        return linkToken.transferAndCall(to, value, data);\n    }\n\n    /**\n     * @notice Distribute funds to multiple addresses using ETH send\n     * to this payable function.\n     * @dev Array length must be equal, ETH sent must equal the sum of amounts.\n     * A malicious receiver could cause the distribution to revert, in which case\n     * it is expected that the address is removed from the list.\n     * @param receivers list of addresses\n     * @param amounts list of amounts\n     */\n    function distributeFunds(\n        address payable[] calldata receivers,\n        uint256[] calldata amounts\n    ) external payable {\n        require(\n            receivers.length > 0 && receivers.length == amounts.length,\n            \"Invalid array length(s)\"\n        );\n        uint256 valueRemaining = msg.value;\n        for (uint256 i = 0; i < receivers.length; i++) {\n            uint256 sendAmount = amounts[i];\n            valueRemaining = valueRemaining.sub(sendAmount);\n            receivers[i].transfer(sendAmount);\n        }\n        require(valueRemaining == 0, \"Too much ETH sent\");\n    }\n\n    /**\n     * @notice Allows recipient to cancel requests sent to this oracle contract.\n     * Will transfer the LINK sent for the request back to the recipient address.\n     * @dev Given params must hash to a commitment stored on the contract in order\n     * for the request to be valid. Emits CancelOracleRequest event.\n     * @param requestId The request ID\n     * @param payment The amount of payment given (specified in wei)\n     * @param callbackFunc The requester's specified callback function selector\n     * @param expiration The time of the expiration for the request\n     */\n    function cancelOracleRequest(\n        bytes32 requestId,\n        uint256 payment,\n        bytes4 callbackFunc,\n        uint256 expiration\n    ) external override {\n        bytes31 paramsHash = _buildParamsHash(\n            payment,\n            msg.sender,\n            callbackFunc,\n            expiration\n        );\n        require(\n            s_commitments[requestId].paramsHash == paramsHash,\n            \"Params do not match request ID\"\n        );\n        // solhint-disable-next-line not-rely-on-time\n        require(expiration <= block.timestamp, \"Request is not expired\");\n\n        delete s_commitments[requestId];\n        emit CancelOracleRequest(requestId);\n\n        linkToken.transfer(msg.sender, payment);\n    }\n\n    /**\n     * @notice Allows requester to cancel requests sent to this oracle contract.\n     * Will transfer the LINK sent for the request back to the recipient address.\n     * @dev Given params must hash to a commitment stored on the contract in order\n     * for the request to be valid. Emits CancelOracleRequest event.\n     * @param nonce The nonce used to generate the request ID\n     * @param payment The amount of payment given (specified in wei)\n     * @param callbackFunc The requester's specified callback function selector\n     * @param expiration The time of the expiration for the request\n     */\n    function cancelOracleRequestByRequester(\n        uint256 nonce,\n        uint256 payment,\n        bytes4 callbackFunc,\n        uint256 expiration\n    ) external {\n        bytes32 requestId = keccak256(abi.encodePacked(msg.sender, nonce));\n        bytes31 paramsHash = _buildParamsHash(\n            payment,\n            msg.sender,\n            callbackFunc,\n            expiration\n        );\n        require(\n            s_commitments[requestId].paramsHash == paramsHash,\n            \"Params do not match request ID\"\n        );\n        // solhint-disable-next-line not-rely-on-time\n        require(expiration <= block.timestamp, \"Request is not expired\");\n\n        delete s_commitments[requestId];\n        emit CancelOracleRequest(requestId);\n\n        linkToken.transfer(msg.sender, payment);\n    }\n\n    /**\n     * @notice Returns the address of the LINK token\n     * @dev This is the public implementation for chainlinkTokenAddress, which is\n     * an internal method of the ChainlinkClient contract\n     */\n    function getChainlinkToken() public view override returns (address) {\n        return address(linkToken);\n    }\n\n    /**\n     * @notice Require that the token transfer action is valid\n     * @dev OPERATOR_REQUEST_SELECTOR = multiword, ORACLE_REQUEST_SELECTOR = singleword\n     */\n    function _validateTokenTransferAction(\n        bytes4 funcSelector,\n        bytes memory data\n    ) internal pure override {\n        require(\n            data.length >= MINIMUM_REQUEST_LENGTH,\n            \"Invalid request length\"\n        );\n        require(\n            funcSelector == OPERATOR_REQUEST_SELECTOR ||\n                funcSelector == ORACLE_REQUEST_SELECTOR,\n            \"Must use whitelisted functions\"\n        );\n    }\n\n    /**\n     * @notice Verify the Oracle Request and record necessary information\n     * @param sender The sender of the request\n     * @param payment The amount of payment given (specified in wei)\n     * @param callbackAddress The callback address for the response\n     * @param callbackFunctionId The callback function ID for the response\n     * @param nonce The nonce sent by the requester\n     */\n    function _verifyAndProcessOracleRequest(\n        address sender,\n        uint256 payment,\n        address callbackAddress,\n        bytes4 callbackFunctionId,\n        uint256 nonce,\n        uint256 dataVersion\n    )\n        private\n        validateNotToLINK(callbackAddress)\n        returns (bytes32 requestId, uint256 expiration)\n    {\n        requestId = keccak256(abi.encodePacked(sender, nonce));\n        require(\n            s_commitments[requestId].paramsHash == 0,\n            \"Must use a unique ID\"\n        );\n        // solhint-disable-next-line not-rely-on-time\n        expiration = block.timestamp.add(getExpiryTime);\n        bytes31 paramsHash = _buildParamsHash(\n            payment,\n            callbackAddress,\n            callbackFunctionId,\n            expiration\n        );\n        s_commitments[requestId] = Commitment(\n            paramsHash,\n            _safeCastToUint8(dataVersion)\n        );\n        s_tokensInEscrow = s_tokensInEscrow.add(payment);\n        return (requestId, expiration);\n    }\n\n    /**\n     * @notice Verify the Oracle request and unlock escrowed payment\n     * @param requestId The fulfillment request ID that must match the requester's\n     * @param payment The payment amount that will be released for the oracle (specified in wei)\n     * @param callbackAddress The callback address to call for fulfillment\n     * @param callbackFunctionId The callback function ID to use for fulfillment\n     * @param expiration The expiration that the node should respond by before the requester can cancel\n     */\n    function _verifyOracleRequestAndProcessPayment(\n        bytes32 requestId,\n        uint256 payment,\n        address callbackAddress,\n        bytes4 callbackFunctionId,\n        uint256 expiration,\n        uint256 dataVersion\n    ) internal {\n        bytes31 paramsHash = _buildParamsHash(\n            payment,\n            callbackAddress,\n            callbackFunctionId,\n            expiration\n        );\n        require(\n            s_commitments[requestId].paramsHash == paramsHash,\n            \"Params do not match request ID\"\n        );\n        require(\n            s_commitments[requestId].dataVersion <=\n                _safeCastToUint8(dataVersion),\n            \"Data versions must match\"\n        );\n        s_tokensInEscrow = s_tokensInEscrow.sub(payment);\n        delete s_commitments[requestId];\n    }\n\n    /**\n     * @notice Build the bytes31 hash from the payment, callback and expiration.\n     * @param payment The payment amount that will be released for the oracle (specified in wei)\n     * @param callbackAddress The callback address to call for fulfillment\n     * @param callbackFunctionId The callback function ID to use for fulfillment\n     * @param expiration The expiration that the node should respond by before the requester can cancel\n     * @return hash bytes31\n     */\n    function _buildParamsHash(\n        uint256 payment,\n        address callbackAddress,\n        bytes4 callbackFunctionId,\n        uint256 expiration\n    ) internal pure returns (bytes31) {\n        return\n            bytes31(\n                keccak256(\n                    abi.encodePacked(\n                        payment,\n                        callbackAddress,\n                        callbackFunctionId,\n                        expiration\n                    )\n                )\n            );\n    }\n\n    /**\n     * @notice Safely cast uint256 to uint8\n     * @param number uint256\n     * @return uint8 number\n     */\n    function _safeCastToUint8(uint256 number) internal pure returns (uint8) {\n        require(number < MAXIMUM_DATA_VERSION, \"number too big to cast\");\n        return uint8(number);\n    }\n\n    /**\n     * @notice Returns the LINK available in this contract, not locked in escrow\n     * @return uint256 LINK tokens available\n     */\n    function _fundsAvailable() private view returns (uint256) {\n        uint256 inEscrow = s_tokensInEscrow.sub(ONE_FOR_CONSISTENT_GAS_COST);\n        return linkToken.balanceOf(address(this)).sub(inEscrow);\n    }\n\n    /**\n     * @notice concrete implementation of AuthorizedReceiver\n     * @return bool of whether sender is authorized\n     */\n    function _canSetAuthorizedSenders() internal view override returns (bool) {\n        return isAuthorizedSender(msg.sender) || owner() == msg.sender;\n    }\n\n    // MODIFIERS\n\n    /**\n     * @dev Reverts if the first 32 bytes of the bytes array is not equal to requestId\n     * @param requestId bytes32\n     * @param data bytes\n     */\n    modifier validateMultiWordResponseId(\n        bytes32 requestId,\n        bytes calldata data\n    ) {\n        require(data.length >= 32, \"Response must be > 32 bytes\");\n        bytes32 firstDataWord;\n        assembly {\n            // extract the first word from data\n            // functionSelector = 4\n            // wordLength = 32\n            // dataArgumentOffset = 7 * wordLength\n            // funcSelector + dataArgumentOffset == 0xe4\n            firstDataWord := calldataload(0xe4)\n        }\n        require(requestId == firstDataWord, \"First word must be requestId\");\n        _;\n    }\n\n    /**\n     * @dev Reverts if amount requested is greater than withdrawable balance\n     * @param amount The given amount to compare to `s_withdrawableTokens`\n     */\n    modifier validateAvailableFunds(uint256 amount) {\n        require(\n            _fundsAvailable() >= amount,\n            \"Amount requested is greater than withdrawable balance\"\n        );\n        _;\n    }\n\n    /**\n     * @dev Reverts if request ID does not exist\n     * @param requestId The given request ID to check in stored `commitments`\n     */\n    modifier validateRequestId(bytes32 requestId) {\n        require(\n            s_commitments[requestId].paramsHash != 0,\n            \"Must have a valid requestId\"\n        );\n        _;\n    }\n\n    /**\n     * @dev Reverts if the callback address is the LINK token\n     * @param to The callback address\n     */\n    modifier validateNotToLINK(address to) {\n        require(to != address(linkToken), \"Cannot call to LINK\");\n        _;\n    }\n\n    /**\n     * @dev Reverts if the target address is owned by the operator\n     */\n    modifier validateCallbackAddress(address callbackAddress) {\n        require(!s_owned[callbackAddress], \"Cannot call owned contract\");\n        _;\n    }\n}\n",
  "sourcePath": "/media/fabric-orderer2/ethLink/Public/nodeLink/chainLink-eth/contracts/Oracle-contracts/contracts/test/Operator.sol",
  "compiler": {
    "name": "solc",
    "version": "0.7.6+commit.7338295f.Emscripten.clang"
  },
  "schemaVersion": "3.4.16",
  "updatedAt": "2024-04-12T08:40:32.416Z",
  "devdoc": {
    "kind": "dev",
    "methods": {
      "acceptAuthorizedReceivers(address[],address[])": {
        "params": {
          "senders": "The addresses that are allowed to send updates",
          "targets": "The addresses to set permissions on"
        }
      },
      "acceptOwnableContracts(address[])": {
        "details": "Must be the pending owner on the contract",
        "params": {
          "ownable": "list of addresses of Ownable contracts to accept"
        }
      },
      "cancelOracleRequest(bytes32,uint256,bytes4,uint256)": {
        "details": "Given params must hash to a commitment stored on the contract in order for the request to be valid. Emits CancelOracleRequest event.",
        "params": {
          "callbackFunc": "The requester's specified callback function selector",
          "expiration": "The time of the expiration for the request",
          "payment": "The amount of payment given (specified in wei)",
          "requestId": "The request ID"
        }
      },
      "cancelOracleRequestByRequester(uint256,uint256,bytes4,uint256)": {
        "details": "Given params must hash to a commitment stored on the contract in order for the request to be valid. Emits CancelOracleRequest event.",
        "params": {
          "callbackFunc": "The requester's specified callback function selector",
          "expiration": "The time of the expiration for the request",
          "nonce": "The nonce used to generate the request ID",
          "payment": "The amount of payment given (specified in wei)"
        }
      },
      "constructor": {
        "details": "Sets the LinkToken address for the imported LinkTokenInterface",
        "params": {
          "link": "The address of the LINK token",
          "owner": "The address of the owner"
        }
      },
      "distributeFunds(address[],uint256[])": {
        "details": "Array length must be equal, ETH sent must equal the sum of amounts. A malicious receiver could cause the distribution to revert, in which case it is expected that the address is removed from the list.",
        "params": {
          "amounts": "list of amounts",
          "receivers": "list of addresses"
        }
      },
      "fulfillOracleRequest(bytes32,uint256,address,bytes4,uint256,bytes32)": {
        "details": "Given params must hash back to the commitment stored from `oracleRequest`. Will call the callback address' callback function without bubbling up error checking in a `require` so that the node can get paid.",
        "params": {
          "callbackAddress": "The callback address to call for fulfillment",
          "callbackFunctionId": "The callback function ID to use for fulfillment",
          "data": "The data to return to the consuming contract",
          "expiration": "The expiration that the node should respond by before the requester can cancel",
          "payment": "The payment amount that will be released for the oracle (specified in wei)",
          "requestId": "The fulfillment request ID that must match the requester's"
        },
        "returns": {
          "_0": "Status if the external call was successful"
        }
      },
      "fulfillOracleRequest2(bytes32,uint256,address,bytes4,uint256,bytes)": {
        "details": "Given params must hash back to the commitment stored from `oracleRequest`. Will call the callback address' callback function without bubbling up error checking in a `require` so that the node can get paid.",
        "params": {
          "callbackAddress": "The callback address to call for fulfillment",
          "callbackFunctionId": "The callback function ID to use for fulfillment",
          "data": "The data to return to the consuming contract",
          "expiration": "The expiration that the node should respond by before the requester can cancel",
          "payment": "The payment amount that will be released for the oracle (specified in wei)",
          "requestId": "The fulfillment request ID that must match the requester's"
        },
        "returns": {
          "_0": "Status if the external call was successful"
        }
      },
      "getAuthorizedSenders()": {
        "returns": {
          "_0": "array of addresses"
        }
      },
      "getChainlinkToken()": {
        "details": "This is the public implementation for chainlinkTokenAddress, which is an internal method of the ChainlinkClient contract"
      },
      "isAuthorizedSender(address)": {
        "params": {
          "sender": "The address of the Chainlink node"
        },
        "returns": {
          "_0": "The authorization status of the node"
        }
      },
      "onTokenTransfer(address,uint256,bytes)": {
        "details": "The data payload's first 2 words will be overwritten by the `sender` and `amount` values to ensure correctness. Calls oracleRequest.",
        "params": {
          "amount": "Amount of LINK sent (specified in wei)",
          "data": "Payload of the transaction",
          "sender": "Address of the sender"
        }
      },
      "operatorRequest(address,uint256,bytes32,bytes4,uint256,uint256,bytes)": {
        "details": "Stores the hash of the params as the on-chain commitment for the request. Emits OracleRequest event for the Chainlink node to detect.",
        "params": {
          "callbackFunctionId": "The callback function ID for the response",
          "data": "The extra request parameters",
          "dataVersion": "The specified data version",
          "nonce": "The nonce sent by the requester",
          "payment": "The amount of payment given (specified in wei)",
          "sender": "The sender of the request",
          "specId": "The Job Specification ID"
        }
      },
      "oracleRequest(address,uint256,bytes32,address,bytes4,uint256,uint256,bytes)": {
        "params": {
          "callbackAddress": "The address the oracle data will be sent to",
          "callbackFunctionId": "The callback function ID for the response",
          "data": "The extra request parameters",
          "dataVersion": "The specified data version",
          "nonce": "The nonce sent by the requester",
          "payment": "The amount of payment given (specified in wei)",
          "specId": "The Job Specification ID"
        }
      },
      "ownerForward(address,bytes)": {
        "details": "Only callable by the owner",
        "params": {
          "data": "to forward",
          "to": "address"
        }
      },
      "ownerTransferAndCall(address,uint256,bytes)": {
        "params": {
          "data": "The extra data to be passed to the receiving contract.",
          "to": "The address to transfer to.",
          "value": "The amount to be transferred."
        },
        "returns": {
          "success": "bool"
        }
      },
      "setAuthorizedSenders(address[])": {
        "params": {
          "senders": "The addresses of the authorized Chainlink node"
        }
      },
      "setAuthorizedSendersOn(address[],address[])": {
        "params": {
          "senders": "The addresses that are allowed to send updates",
          "targets": "The addresses to set permissions on"
        }
      },
      "transferOwnableContracts(address[],address)": {
        "params": {
          "newOwner": "address to transfer ownership to",
          "ownable": "list of addresses to transfer"
        }
      },
      "typeAndVersion()": {
        "returns": {
          "_0": "Type and version string"
        }
      },
      "withdraw(address,uint256)": {
        "details": "The owner of the contract can be another wallet and does not have to be a Chainlink node",
        "params": {
          "amount": "The amount to send (specified in wei)",
          "recipient": "The address to send the LINK token to"
        }
      },
      "withdrawable()": {
        "details": "We use `ONE_FOR_CONSISTENT_GAS_COST` in place of 0 in storage",
        "returns": {
          "_0": "The amount of withdrawable LINK on the contract"
        }
      }
    },
    "title": "The Chainlink Operator contract",
    "version": 1
  },
  "userdoc": {
    "kind": "user",
    "methods": {
      "acceptAuthorizedReceivers(address[],address[])": {
        "notice": "Accepts ownership of ownable contracts and then immediately sets the authorized sender list on each of the newly owned contracts. This is primarily intended for Authorized Forwarders but could possibly be extended to work with future contracts."
      },
      "acceptOwnableContracts(address[])": {
        "notice": "Accept the ownership of an ownable contract. This is primarily intended for Authorized Forwarders but could possibly be extended to work with future contracts."
      },
      "acceptOwnership()": {
        "notice": "Allows an ownership transfer to be completed by the recipient."
      },
      "cancelOracleRequest(bytes32,uint256,bytes4,uint256)": {
        "notice": "Allows recipient to cancel requests sent to this oracle contract. Will transfer the LINK sent for the request back to the recipient address."
      },
      "cancelOracleRequestByRequester(uint256,uint256,bytes4,uint256)": {
        "notice": "Allows requester to cancel requests sent to this oracle contract. Will transfer the LINK sent for the request back to the recipient address."
      },
      "constructor": {
        "notice": "Deploy with the address of the LINK token"
      },
      "distributeFunds(address[],uint256[])": {
        "notice": "Distribute funds to multiple addresses using ETH send to this payable function."
      },
      "fulfillOracleRequest(bytes32,uint256,address,bytes4,uint256,bytes32)": {
        "notice": "Called by the Chainlink node to fulfill requests"
      },
      "fulfillOracleRequest2(bytes32,uint256,address,bytes4,uint256,bytes)": {
        "notice": "Called by the Chainlink node to fulfill requests with multi-word support"
      },
      "getAuthorizedSenders()": {
        "notice": "Retrieve a list of authorized senders"
      },
      "getChainlinkToken()": {
        "notice": "Returns the address of the LINK token"
      },
      "isAuthorizedSender(address)": {
        "notice": "Use this to check if a node is authorized for fulfilling requests"
      },
      "onTokenTransfer(address,uint256,bytes)": {
        "notice": "Called when LINK is sent to the contract via `transferAndCall`"
      },
      "operatorRequest(address,uint256,bytes32,bytes4,uint256,uint256,bytes)": {
        "notice": "Creates the Chainlink request"
      },
      "oracleRequest(address,uint256,bytes32,address,bytes4,uint256,uint256,bytes)": {
        "notice": "Creates the Chainlink request. This is a backwards compatible API with the Oracle.sol contract, but the behavior changes because callbackAddress is assumed to be the same as the request sender."
      },
      "owner()": {
        "notice": "Get the current owner"
      },
      "ownerForward(address,bytes)": {
        "notice": "Forward a call to another contract"
      },
      "ownerTransferAndCall(address,uint256,bytes)": {
        "notice": "Interact with other LinkTokenReceiver contracts by calling transferAndCall"
      },
      "setAuthorizedSenders(address[])": {
        "notice": "Sets the fulfillment permission for a given node. Use `true` to allow, `false` to disallow."
      },
      "setAuthorizedSendersOn(address[],address[])": {
        "notice": "Sets the fulfillment permission for"
      },
      "transferOwnableContracts(address[],address)": {
        "notice": "Transfer the ownership of ownable contracts. This is primarily intended for Authorized Forwarders but could possibly be extended to work with future contracts."
      },
      "transferOwnership(address)": {
        "notice": "Allows an owner to begin transferring ownership to a new address, pending."
      },
      "typeAndVersion()": {
        "notice": "The type and version of this contract"
      },
      "withdraw(address,uint256)": {
        "notice": "Allows the node operator to withdraw earned LINK to a given address"
      },
      "withdrawable()": {
        "notice": "Displays the amount of LINK that is available for the node operator to withdraw"
      }
    },
    "notice": "Node operators can deploy this contract to fulfill requests sent to them",
    "version": 1
  }
}