{
  "contractName": "PriceFeedConsumer",
  "abi": [
    {
      "inputs": [
        {
          "internalType": "address",
          "name": "AggregatorAddress",
          "type": "address"
        }
      ],
      "stateMutability": "nonpayable",
      "type": "constructor"
    },
    {
      "inputs": [],
      "name": "getLatestPrice",
      "outputs": [
        {
          "internalType": "int256",
          "name": "",
          "type": "int256"
        }
      ],
      "stateMutability": "view",
      "type": "function"
    }
  ],
  "bytecode": "0x608060405234801561000f575f80fd5b5060405161037c38038061037c833981810160405281019061003191906100d4565b805f806101000a81548173ffffffffffffffffffffffffffffffffffffffff021916908373ffffffffffffffffffffffffffffffffffffffff160217905550506100ff565b5f80fd5b5f73ffffffffffffffffffffffffffffffffffffffff82169050919050565b5f6100a38261007a565b9050919050565b6100b381610099565b81146100bd575f80fd5b50565b5f815190506100ce816100aa565b92915050565b5f602082840312156100e9576100e8610076565b5b5f6100f6848285016100c0565b91505092915050565b6102708061010c5f395ff3fe608060405234801561000f575f80fd5b5060043610610029575f3560e01c80638e15f4731461002d575b5f80fd5b61003561004b565b604051610042919061010a565b60405180910390f35b5f805f805f805f8054906101000a900473ffffffffffffffffffffffffffffffffffffffff1673ffffffffffffffffffffffffffffffffffffffff1663feaf968c6040518163ffffffff1660e01b815260040160a060405180830381865afa1580156100b9573d5f803e3d5ffd5b505050506040513d601f19601f820116820180604052508101906100dd91906101c3565b94509450945094509450839550505050505090565b5f819050919050565b610104816100f2565b82525050565b5f60208201905061011d5f8301846100fb565b92915050565b5f80fd5b5f69ffffffffffffffffffff82169050919050565b61014581610127565b811461014f575f80fd5b50565b5f815190506101608161013c565b92915050565b61016f816100f2565b8114610179575f80fd5b50565b5f8151905061018a81610166565b92915050565b5f819050919050565b6101a281610190565b81146101ac575f80fd5b50565b5f815190506101bd81610199565b92915050565b5f805f805f60a086880312156101dc576101db610123565b5b5f6101e988828901610152565b95505060206101fa8882890161017c565b945050604061020b888289016101af565b935050606061021c888289016101af565b925050608061022d88828901610152565b915050929550929590935056fea26469706673582212204236535bd95f87907ccb04fbfb5d3bfc19e462e19e77875221f408c5d93b8e1864736f6c63430008190033",
  "immutableReferences": {},
  "source": "// SPDX-License-Identifier: MIT\npragma solidity ^0.8.0;\n\nimport \"@chainlink/contracts/src/v0.8/interfaces/AggregatorV3Interface.sol\";\n\ncontract PriceFeedConsumer {\n    AggregatorV3Interface internal priceFeed;\n\n    constructor(address AggregatorAddress) {\n        priceFeed = AggregatorV3Interface(AggregatorAddress);\n    }\n\n    /**\n     * Returns the latest price\n     */\n    function getLatestPrice() public view returns (int) {\n        (\n            uint80 roundID,\n            int price,\n            uint startedAt,\n            uint timeStamp,\n            uint80 answeredInRound\n        ) = priceFeed.latestRoundData();\n        return price;\n    }\n}\n",
  "sourcePath": "/media/fabric-orderer2/ethLink/Public/nodeLink/chainLink-eth/contracts/Oracle-contracts/contracts/PriceFeedConsumer.sol",
  "compiler": {
    "name": "solc",
    "version": "0.8.25+commit.b61c2a91.Emscripten.clang"
  },
  "schemaVersion": "3.4.16",
  "updatedAt": "2024-04-12T08:40:31.703Z",
  "devdoc": {
    "kind": "dev",
    "methods": {},
    "version": 1
  },
  "userdoc": {
    "kind": "user",
    "methods": {
      "getLatestPrice()": {
        "notice": "Returns the latest price"
      }
    },
    "version": 1
  }
}