{
  "contractName": "SimpleChainlink",
  "abi": [
    {
      "inputs": [],
      "stateMutability": "nonpayable",
      "type": "constructor"
    },
    {
      "anonymous": false,
      "inputs": [
        {
          "indexed": true,
          "internalType": "bytes32",
          "name": "id",
          "type": "bytes32"
        }
      ],
      "name": "ChainlinkCancelled",
      "type": "event"
    },
    {
      "anonymous": false,
      "inputs": [
        {
          "indexed": true,
          "internalType": "bytes32",
          "name": "id",
          "type": "bytes32"
        }
      ],
      "name": "ChainlinkFulfilled",
      "type": "event"
    },
    {
      "anonymous": false,
      "inputs": [
        {
          "indexed": true,
          "internalType": "bytes32",
          "name": "id",
          "type": "bytes32"
        }
      ],
      "name": "ChainlinkRequested",
      "type": "event"
    },
    {
      "inputs": [],
      "name": "volume",
      "outputs": [
        {
          "internalType": "uint256",
          "name": "",
          "type": "uint256"
        }
      ],
      "stateMutability": "view",
      "type": "function"
    },
    {
      "inputs": [],
      "name": "requestVolumeData",
      "outputs": [
        {
          "internalType": "bytes32",
          "name": "requestId",
          "type": "bytes32"
        }
      ],
      "stateMutability": "nonpayable",
      "type": "function"
    },
    {
      "inputs": [
        {
          "internalType": "bytes32",
          "name": "_requestId",
          "type": "bytes32"
        },
        {
          "internalType": "uint256",
          "name": "_volume",
          "type": "uint256"
        }
      ],
      "name": "fulfill",
      "outputs": [],
      "stateMutability": "nonpayable",
      "type": "function"
    }
  ],
  "bytecode": "0x6080604052600160045534801561001557600080fd5b50610039733f5cba916576a6ce277da066fd210d895a595f7161009760201b60201c565b61005c73238bda11edc5cb0fc96a53a6c3953a6415793e966100db60201b60201c565b7f393234333663653139616536343736396236306336623834313662383330346660088190555067016345785d8a000060098190555061011f565b80600260006101000a81548173ffffffffffffffffffffffffffffffffffffffff021916908373ffffffffffffffffffffffffffffffffffffffff16021790555050565b80600360006101000a81548173ffffffffffffffffffffffffffffffffffffffff021916908373ffffffffffffffffffffffffffffffffffffffff16021790555050565b6113f48061012e6000396000f3fe608060405234801561001057600080fd5b50600436106100415760003560e01c80634357855e146100465780636021abac14610062578063c618a1e414610080575b600080fd5b610060600480360381019061005b9190610bdc565b61009e565b005b61006a6101af565b6040516100779190610c2b565b60405180910390f35b6100886102de565b6040516100959190610c55565b60405180910390f35b816005600082815260200190815260200160002060009054906101000a900473ffffffffffffffffffffffffffffffffffffffff1673ffffffffffffffffffffffffffffffffffffffff163373ffffffffffffffffffffffffffffffffffffffff1614610140576040517f08c379a000000000000000000000000000000000000000000000000000000000815260040161013790610cf3565b60405180910390fd5b6005600082815260200190815260200160002060006101000a81549073ffffffffffffffffffffffffffffffffffffffff0219169055807f7cc135e0cebb02c3480ae5d74d377283180a2601f8f644edf7987b009316c63a60405160405180910390a281600681905550505050565b6000806101c660085430634357855e60e01b6102e4565b905061022a6040518060400160405280600381526020017f676574000000000000000000000000000000000000000000000000000000000081525060405180608001604052806049815260200161137660499139836103159092919063ffffffff16565b6102a96040518060400160405280600481526020017f70617468000000000000000000000000000000000000000000000000000000008152506040518060400160405280601881526020017f5241572c4554482c5553442c564f4c554d453234484f55520000000000000000815250836103159092919063ffffffff16565b6102d8600760009054906101000a900473ffffffffffffffffffffffffffffffffffffffff1682600954610348565b91505090565b60065481565b6102ec610ae4565b6102f4610ae4565b61030b85858584610414909392919063ffffffff16565b9150509392505050565b61032c8284608001516104c490919063ffffffff16565b6103438184608001516104c490919063ffffffff16565b505050565b600080600454905060018161035d9190610d42565b6004819055506000634042994660e01b60008087600001513089604001518760018c608001516000015160405160240161039e989796959493929190610e82565b604051602081830303815290604052907bffffffffffffffffffffffffffffffffffffffffffffffffffffffff19166020820180517bffffffffffffffffffffffffffffffffffffffffffffffffffffffff83818316178352505050509050610409868386846104e9565b925050509392505050565b61041c610ae4565b61042c856080015161010061067e565b508385600001818152505082856020019073ffffffffffffffffffffffffffffffffffffffff16908173ffffffffffffffffffffffffffffffffffffffff16815250508185604001907bffffffffffffffffffffffffffffffffffffffffffffffffffffffff191690817bffffffffffffffffffffffffffffffffffffffffffffffffffffffff191681525050849050949350505050565b6104d182600383516106e8565b6104e4818361086d90919063ffffffff16565b505050565b600030846040516020016104fe929190610fc0565b604051602081830303815290604052805190602001209050846005600083815260200190815260200160002060006101000a81548173ffffffffffffffffffffffffffffffffffffffff021916908373ffffffffffffffffffffffffffffffffffffffff160217905550807fb5e6e01e79f91267dc17b4e6314d5d4d03593d2ceee0fbb452b750bd70ea5af960405160405180910390a2600260009054906101000a900473ffffffffffffffffffffffffffffffffffffffff1673ffffffffffffffffffffffffffffffffffffffff16634000aea08685856040518463ffffffff1660e01b81526004016105f493929190610fec565b6020604051808303816000875af1158015610613573d6000803e3d6000fd5b505050506040513d601f19601f820116820180604052508101906106379190611062565b610676576040517f08c379a000000000000000000000000000000000000000000000000000000000815260040161066d90611101565b60405180910390fd5b949350505050565b610686610b51565b60006020836106959190611150565b146106c1576020826106a79190611150565b60206106b39190611181565b826106be9190610d42565b91505b81836020018181525050604051808452600081528281016020016040525082905092915050565b60178167ffffffffffffffff161161071f576107198160058460ff16901b60ff16178461088f90919063ffffffff16565b50610868565b60ff8167ffffffffffffffff16116107755761074e601860058460ff16901b178461088f90919063ffffffff16565b5061076f8167ffffffffffffffff166001856108af9092919063ffffffff16565b50610867565b61ffff8167ffffffffffffffff16116107cc576107a5601960058460ff16901b178461088f90919063ffffffff16565b506107c68167ffffffffffffffff166002856108af9092919063ffffffff16565b50610866565b63ffffffff8167ffffffffffffffff1611610825576107fe601a60058460ff16901b178461088f90919063ffffffff16565b5061081f8167ffffffffffffffff166004856108af9092919063ffffffff16565b50610865565b610842601b60058460ff16901b178461088f90919063ffffffff16565b506108638167ffffffffffffffff166008856108af9092919063ffffffff16565b505b5b5b5b505050565b610875610b51565b610887838460000151518485516108d1565b905092915050565b610897610b51565b6108a783846000015151846109c0565b905092915050565b6108b7610b51565b6108c8848560000151518585610a16565b90509392505050565b6108d9610b51565b82518211156108e757600080fd5b846020015182856108f89190610d42565b111561092d5761092c85600261091d886020015188876109189190610d42565b610aa4565b61092791906111b5565b610ac0565b5b60008086518051876020830101935080888701111561094c5787860182525b60208701925050505b60208410610993578051825260208261096e9190610d42565b915060208161097d9190610d42565b905060208461098c9190611181565b9350610955565b60006001856020036101000a03905080198251168184511681811785525050508692505050949350505050565b6109c8610b51565b836020015183106109ee576109ed84600286602001516109e891906111b5565b610ac0565b5b83518051602085830101848153818603610a09576001820183525b5050508390509392505050565b610a1e610b51565b84602001518483610a2f9190610d42565b1115610a5757610a568560028685610a479190610d42565b610a5191906111b5565b610ac0565b5b6000600183610100610a69919061132a565b610a739190611181565b90508551838682010185831982511617815281518588011115610a965784870182525b505085915050949350505050565b600081831115610ab657829050610aba565b8190505b92915050565b600082600001519050610ad3838361067e565b50610ade838261086d565b50505050565b6040518060a0016040528060008019168152602001600073ffffffffffffffffffffffffffffffffffffffff16815260200160007bffffffffffffffffffffffffffffffffffffffffffffffffffffffff1916815260200160008152602001610b4b610b51565b81525090565b604051806040016040528060608152602001600081525090565b600080fd5b6000819050919050565b610b8381610b70565b8114610b8e57600080fd5b50565b600081359050610ba081610b7a565b92915050565b6000819050919050565b610bb981610ba6565b8114610bc457600080fd5b50565b600081359050610bd681610bb0565b92915050565b60008060408385031215610bf357610bf2610b6b565b5b6000610c0185828601610b91565b9250506020610c1285828601610bc7565b9150509250929050565b610c2581610b70565b82525050565b6000602082019050610c406000830184610c1c565b92915050565b610c4f81610ba6565b82525050565b6000602082019050610c6a6000830184610c46565b92915050565b600082825260208201905092915050565b7f536f75726365206d75737420626520746865206f7261636c65206f662074686560008201527f2072657175657374000000000000000000000000000000000000000000000000602082015250565b6000610cdd602883610c70565b9150610ce882610c81565b604082019050919050565b60006020820190508181036000830152610d0c81610cd0565b9050919050565b7f4e487b7100000000000000000000000000000000000000000000000000000000600052601160045260246000fd5b6000610d4d82610ba6565b9150610d5883610ba6565b9250828201905080821115610d7057610d6f610d13565b5b92915050565b600073ffffffffffffffffffffffffffffffffffffffff82169050919050565b6000610da182610d76565b9050919050565b610db181610d96565b82525050565b60007fffffffff0000000000000000000000000000000000000000000000000000000082169050919050565b610dec81610db7565b82525050565b600081519050919050565b600082825260208201905092915050565b60005b83811015610e2c578082015181840152602081019050610e11565b60008484015250505050565b6000601f19601f8301169050919050565b6000610e5482610df2565b610e5e8185610dfd565b9350610e6e818560208601610e0e565b610e7781610e38565b840191505092915050565b600061010082019050610e98600083018b610da8565b610ea5602083018a610c46565b610eb26040830189610c1c565b610ebf6060830188610da8565b610ecc6080830187610de3565b610ed960a0830186610c46565b610ee660c0830185610c46565b81810360e0830152610ef88184610e49565b90509998505050505050505050565b6000819050919050565b6000610f2c610f27610f2284610d76565b610f07565b610d76565b9050919050565b6000610f3e82610f11565b9050919050565b6000610f5082610f33565b9050919050565b60008160601b9050919050565b6000610f6f82610f57565b9050919050565b6000610f8182610f64565b9050919050565b610f99610f9482610f45565b610f76565b82525050565b6000819050919050565b610fba610fb582610ba6565b610f9f565b82525050565b6000610fcc8285610f88565b601482019150610fdc8284610fa9565b6020820191508190509392505050565b60006060820190506110016000830186610da8565b61100e6020830185610c46565b81810360408301526110208184610e49565b9050949350505050565b60008115159050919050565b61103f8161102a565b811461104a57600080fd5b50565b60008151905061105c81611036565b92915050565b60006020828403121561107857611077610b6b565b5b60006110868482850161104d565b91505092915050565b7f756e61626c6520746f207472616e73666572416e6443616c6c20746f206f726160008201527f636c650000000000000000000000000000000000000000000000000000000000602082015250565b60006110eb602383610c70565b91506110f68261108f565b604082019050919050565b6000602082019050818103600083015261111a816110de565b9050919050565b7f4e487b7100000000000000000000000000000000000000000000000000000000600052601260045260246000fd5b600061115b82610ba6565b915061116683610ba6565b92508261117657611175611121565b5b828206905092915050565b600061118c82610ba6565b915061119783610ba6565b92508282039050818111156111af576111ae610d13565b5b92915050565b60006111c082610ba6565b91506111cb83610ba6565b92508282026111d981610ba6565b915082820484148315176111f0576111ef610d13565b5b5092915050565b60008160011c9050919050565b6000808291508390505b600185111561124e5780860481111561122a57611229610d13565b5b60018516156112395780820291505b8081029050611247856111f7565b945061120e565b94509492505050565b6000826112675760019050611323565b816112755760009050611323565b816001811461128b5760028114611295576112c4565b6001915050611323565b60ff8411156112a7576112a6610d13565b5b8360020a9150848211156112be576112bd610d13565b5b50611323565b5060208310610133831016604e8410600b84101617156112f95782820a9050838111156112f4576112f3610d13565b5b611323565b6113068484846001611204565b9250905081840481111561131d5761131c610d13565b5b81810290505b9392505050565b600061133582610ba6565b915061134083610ba6565b925061136d7fffffffffffffffffffffffffffffffffffffffffffffffffffffffffffffffff8484611257565b90509291505056fe68747470733a2f2f6d696e2d6170692e63727970746f636f6d706172652e636f6d2f646174612f70726963656d756c746966756c6c3f6673796d733d455448267473796d733d555344a26469706673582212208ac5c11a4931c6ec21242ac3fe3e7f1ab6e5ff085df5f10af418ebc160b5777764736f6c63430008130033",
  "immutableReferences": {},
  "source": "// SPDX-License-Identifier: MIT\r\npragma solidity 0.8.19;\r\n\r\nimport \"@chainlink/contracts/src/v0.8/ChainlinkClient.sol\";\r\n\r\ncontract SimpleChainlink is ChainlinkClient {\r\n    using Chainlink for Chainlink.Request;\r\n    uint256 public volume;\r\n\r\n    address private oracle;\r\n    bytes32 private jobId;\r\n    uint256 private fee;\r\n\r\n    constructor(){\r\n        //setPublicChainlinkToken();\r\n        setChainlinkToken(0x3f5CBA916576A6Ce277dA066fD210D895a595F71);\r\n        //oracle = \"0x0006f26f6489eA3b3f58BCDaFb65271a30130FdB\"; // This should be the oracle address\r\n        setChainlinkOracle(0x238BDA11EDC5CB0fC96a53A6c3953a6415793e96);\r\n        jobId = \"92436ce19ae64769b60c6b8416b8304f\"; // This should be the job id\r\n        fee = 0.1 * 10 ** 18; // 0.1 LINK\r\n    }\r\n\r\n    function requestVolumeData() public returns (bytes32 requestId) {\r\n        Chainlink.Request memory request = buildChainlinkRequest(jobId, address(this), this.fulfill.selector);\r\n        request.add(\"get\", \"https://min-api.cryptocompare.com/data/pricemultifull?fsyms=ETH&tsyms=USD\");\r\n        request.add(\"path\", \"RAW,ETH,USD,VOLUME24HOUR\");\r\n        return sendChainlinkRequestTo(oracle, request, fee);\r\n    }\r\n\r\n    function fulfill(bytes32 _requestId, uint256 _volume) public recordChainlinkFulfillment(_requestId) {\r\n        volume = _volume;\r\n    }\r\n}",
  "sourcePath": "/media/fabric-orderer2/ethLink/Public/nodeLink/chainLink-eth/contracts/demo3.sol",
  "compiler": {
    "name": "solc",
    "version": "0.8.19+commit.7dd6d404.Emscripten.clang"
  },
  "schemaVersion": "3.4.16",
  "updatedAt": "2024-04-18T11:23:11.984Z",
  "networkType": "ethereum",
  "devdoc": {
    "kind": "dev",
    "methods": {},
    "version": 1
  },
  "userdoc": {
    "kind": "user",
    "methods": {},
    "version": 1
  }
}