{
  "contractName": "VRFCoordinatorV2Mock",
  "abi": [
    {
      "inputs": [
        {
          "internalType": "uint96",
          "name": "_baseFee",
          "type": "uint96"
        },
        {
          "internalType": "uint96",
          "name": "_gasPriceLink",
          "type": "uint96"
        }
      ],
      "stateMutability": "nonpayable",
      "type": "constructor"
    },
    {
      "inputs": [],
      "name": "InsufficientBalance",
      "type": "error"
    },
    {
      "inputs": [],
      "name": "InvalidSubscription",
      "type": "error"
    },
    {
      "inputs": [
        {
          "internalType": "address",
          "name": "owner",
          "type": "address"
        }
      ],
      "name": "MustBeSubOwner",
      "type": "error"
    },
    {
      "anonymous": false,
      "inputs": [
        {
          "indexed": true,
          "internalType": "uint256",
          "name": "requestId",
          "type": "uint256"
        },
        {
          "indexed": false,
          "internalType": "uint256",
          "name": "outputSeed",
          "type": "uint256"
        },
        {
          "indexed": false,
          "internalType": "uint96",
          "name": "payment",
          "type": "uint96"
        },
        {
          "indexed": false,
          "internalType": "bool",
          "name": "success",
          "type": "bool"
        }
      ],
      "name": "RandomWordsFulfilled",
      "type": "event"
    },
    {
      "anonymous": false,
      "inputs": [
        {
          "indexed": true,
          "internalType": "bytes32",
          "name": "keyHash",
          "type": "bytes32"
        },
        {
          "indexed": false,
          "internalType": "uint256",
          "name": "requestId",
          "type": "uint256"
        },
        {
          "indexed": false,
          "internalType": "uint256",
          "name": "preSeed",
          "type": "uint256"
        },
        {
          "indexed": true,
          "internalType": "uint64",
          "name": "subId",
          "type": "uint64"
        },
        {
          "indexed": false,
          "internalType": "uint16",
          "name": "minimumRequestConfirmations",
          "type": "uint16"
        },
        {
          "indexed": false,
          "internalType": "uint32",
          "name": "callbackGasLimit",
          "type": "uint32"
        },
        {
          "indexed": false,
          "internalType": "uint32",
          "name": "numWords",
          "type": "uint32"
        },
        {
          "indexed": true,
          "internalType": "address",
          "name": "sender",
          "type": "address"
        }
      ],
      "name": "RandomWordsRequested",
      "type": "event"
    },
    {
      "anonymous": false,
      "inputs": [
        {
          "indexed": true,
          "internalType": "uint64",
          "name": "subId",
          "type": "uint64"
        },
        {
          "indexed": false,
          "internalType": "address",
          "name": "to",
          "type": "address"
        },
        {
          "indexed": false,
          "internalType": "uint256",
          "name": "amount",
          "type": "uint256"
        }
      ],
      "name": "SubscriptionCanceled",
      "type": "event"
    },
    {
      "anonymous": false,
      "inputs": [
        {
          "indexed": true,
          "internalType": "uint64",
          "name": "subId",
          "type": "uint64"
        },
        {
          "indexed": false,
          "internalType": "address",
          "name": "owner",
          "type": "address"
        }
      ],
      "name": "SubscriptionCreated",
      "type": "event"
    },
    {
      "anonymous": false,
      "inputs": [
        {
          "indexed": true,
          "internalType": "uint64",
          "name": "subId",
          "type": "uint64"
        },
        {
          "indexed": false,
          "internalType": "uint256",
          "name": "oldBalance",
          "type": "uint256"
        },
        {
          "indexed": false,
          "internalType": "uint256",
          "name": "newBalance",
          "type": "uint256"
        }
      ],
      "name": "SubscriptionFunded",
      "type": "event"
    },
    {
      "inputs": [],
      "name": "BASE_FEE",
      "outputs": [
        {
          "internalType": "uint96",
          "name": "",
          "type": "uint96"
        }
      ],
      "stateMutability": "view",
      "type": "function"
    },
    {
      "inputs": [],
      "name": "GAS_PRICE_LINK",
      "outputs": [
        {
          "internalType": "uint96",
          "name": "",
          "type": "uint96"
        }
      ],
      "stateMutability": "view",
      "type": "function"
    },
    {
      "inputs": [
        {
          "internalType": "uint256",
          "name": "_requestId",
          "type": "uint256"
        },
        {
          "internalType": "address",
          "name": "_consumer",
          "type": "address"
        }
      ],
      "name": "fulfillRandomWords",
      "outputs": [],
      "stateMutability": "nonpayable",
      "type": "function"
    },
    {
      "inputs": [
        {
          "internalType": "uint64",
          "name": "_subId",
          "type": "uint64"
        },
        {
          "internalType": "uint96",
          "name": "_amount",
          "type": "uint96"
        }
      ],
      "name": "fundSubscription",
      "outputs": [],
      "stateMutability": "nonpayable",
      "type": "function"
    },
    {
      "inputs": [
        {
          "internalType": "bytes32",
          "name": "_keyHash",
          "type": "bytes32"
        },
        {
          "internalType": "uint64",
          "name": "_subId",
          "type": "uint64"
        },
        {
          "internalType": "uint16",
          "name": "_minimumRequestConfirmations",
          "type": "uint16"
        },
        {
          "internalType": "uint32",
          "name": "_callbackGasLimit",
          "type": "uint32"
        },
        {
          "internalType": "uint32",
          "name": "_numWords",
          "type": "uint32"
        }
      ],
      "name": "requestRandomWords",
      "outputs": [
        {
          "internalType": "uint256",
          "name": "",
          "type": "uint256"
        }
      ],
      "stateMutability": "nonpayable",
      "type": "function"
    },
    {
      "inputs": [],
      "name": "createSubscription",
      "outputs": [
        {
          "internalType": "uint64",
          "name": "_subId",
          "type": "uint64"
        }
      ],
      "stateMutability": "nonpayable",
      "type": "function"
    },
    {
      "inputs": [
        {
          "internalType": "uint64",
          "name": "_subId",
          "type": "uint64"
        }
      ],
      "name": "getSubscription",
      "outputs": [
        {
          "internalType": "uint96",
          "name": "balance",
          "type": "uint96"
        },
        {
          "internalType": "uint64",
          "name": "reqCount",
          "type": "uint64"
        },
        {
          "internalType": "address",
          "name": "owner",
          "type": "address"
        },
        {
          "internalType": "address[]",
          "name": "consumers",
          "type": "address[]"
        }
      ],
      "stateMutability": "view",
      "type": "function"
    },
    {
      "inputs": [
        {
          "internalType": "uint64",
          "name": "_subId",
          "type": "uint64"
        },
        {
          "internalType": "address",
          "name": "_to",
          "type": "address"
        }
      ],
      "name": "cancelSubscription",
      "outputs": [],
      "stateMutability": "nonpayable",
      "type": "function"
    },
    {
      "inputs": [],
      "name": "getRequestConfig",
      "outputs": [
        {
          "internalType": "uint16",
          "name": "",
          "type": "uint16"
        },
        {
          "internalType": "uint32",
          "name": "",
          "type": "uint32"
        },
        {
          "internalType": "bytes32[]",
          "name": "",
          "type": "bytes32[]"
        }
      ],
      "stateMutability": "pure",
      "type": "function"
    },
    {
      "inputs": [
        {
          "internalType": "uint64",
          "name": "_subId",
          "type": "uint64"
        },
        {
          "internalType": "address",
          "name": "_consumer",
          "type": "address"
        }
      ],
      "name": "addConsumer",
      "outputs": [],
      "stateMutability": "pure",
      "type": "function"
    },
    {
      "inputs": [
        {
          "internalType": "uint64",
          "name": "_subId",
          "type": "uint64"
        },
        {
          "internalType": "address",
          "name": "_consumer",
          "type": "address"
        }
      ],
      "name": "removeConsumer",
      "outputs": [],
      "stateMutability": "pure",
      "type": "function"
    },
    {
      "inputs": [
        {
          "internalType": "uint64",
          "name": "_subId",
          "type": "uint64"
        },
        {
          "internalType": "address",
          "name": "_newOwner",
          "type": "address"
        }
      ],
      "name": "requestSubscriptionOwnerTransfer",
      "outputs": [],
      "stateMutability": "pure",
      "type": "function"
    },
    {
      "inputs": [
        {
          "internalType": "uint64",
          "name": "_subId",
          "type": "uint64"
        }
      ],
      "name": "acceptSubscriptionOwnerTransfer",
      "outputs": [],
      "stateMutability": "pure",
      "type": "function"
    },
    {
      "inputs": [
        {
          "internalType": "uint64",
          "name": "_subId",
          "type": "uint64"
        }
      ],
      "name": "pendingRequestExists",
      "outputs": [
        {
          "internalType": "bool",
          "name": "",
          "type": "bool"
        }
      ],
      "stateMutability": "view",
      "type": "function"
    }
  ],
  "bytecode": "0x60c0604052600180556064600255348015610018575f80fd5b50604051611f80380380611f80833981810160405281019061003a91906100ce565b816bffffffffffffffffffffffff166080816bffffffffffffffffffffffff1681525050806bffffffffffffffffffffffff1660a0816bffffffffffffffffffffffff1681525050505061010c565b5f80fd5b5f6bffffffffffffffffffffffff82169050919050565b6100ad8161008d565b81146100b7575f80fd5b50565b5f815190506100c8816100a4565b92915050565b5f80604083850312156100e4576100e3610089565b5b5f6100f1858286016100ba565b9250506020610102858286016100ba565b9150509250929050565b60805160a051611e4561013b5f395f81816108830152610cd901525f818161035701526108c80152611e455ff3fe608060405234801561000f575f80fd5b50600436106100e7575f3560e01c80639f87fad71161008a578063a47c769611610064578063a47c769614610221578063afc69b5314610254578063d7ae1d3014610270578063e82ad7d41461028c576100e7565b80639f87fad7146101c9578063a21a23e4146101e5578063a410347f14610203576100e7565b80635d3b1d30116100c65780635d3b1d30146101455780637341c10c14610175578063808974ff1461019157806382359740146101ad576100e7565b8062012291146100eb57806304c357cb1461010b5780633d18651e14610127575b5f80fd5b6100f36102bc565b60405161010293929190611393565b60405180910390f35b6101256004803603810190610120919061146a565b61031a565b005b61012f610355565b60405161013c91906114ce565b60405180910390f35b61015f600480360381019061015a9190611565565b610379565b60405161016c91906115f4565b60405180910390f35b61018f600480360381019061018a919061146a565b610584565b005b6101ab60048036038101906101a69190611637565b6105bf565b005b6101c760048036038101906101c29190611675565b610ab8565b005b6101e360048036038101906101de919061146a565b610af3565b005b6101ed610b2e565b6040516101fa91906116af565b60405180910390f35b61020b610cd7565b60405161021891906114ce565b60405180910390f35b61023b60048036038101906102369190611675565b610cfb565b60405161024b949392919061178e565b60405180910390f35b61026e60048036038101906102699190611802565b610e8b565b005b61028a6004803603810190610285919061146a565b611049565b005b6102a660048036038101906102a19190611675565b61125d565b6040516102b3919061185a565b60405180910390f35b5f8060606003621e84805f67ffffffffffffffff8111156102e0576102df611873565b5b60405190808252806020026020018201604052801561030e5781602001602082028036833780820191505090505b50925092509250909192565b6040517f08c379a000000000000000000000000000000000000000000000000000000000815260040161034c906118fa565b60405180910390fd5b7f000000000000000000000000000000000000000000000000000000000000000081565b5f8073ffffffffffffffffffffffffffffffffffffffff1660035f8767ffffffffffffffff1667ffffffffffffffff1681526020019081526020015f205f015f9054906101000a900473ffffffffffffffffffffffffffffffffffffffff1673ffffffffffffffffffffffffffffffffffffffff1603610425576040517f1f6a65b600000000000000000000000000000000000000000000000000000000815260040160405180910390fd5b5f60015f81548092919061043890611945565b9190505590505f60025f81548092919061045190611945565b91905055905060405180606001604052808867ffffffffffffffff1681526020018663ffffffff1681526020018563ffffffff1681525060045f8481526020019081526020015f205f820151815f015f6101000a81548167ffffffffffffffff021916908367ffffffffffffffff1602179055506020820151815f0160086101000a81548163ffffffff021916908363ffffffff1602179055506040820151815f01600c6101000a81548163ffffffff021916908363ffffffff1602179055509050503373ffffffffffffffffffffffffffffffffffffffff168767ffffffffffffffff16897f63373d1c4696214b898952999c9aaec57dac1ee2723cec59bea6888f489a977285858b8b8b60405161056e95949392919061198c565b60405180910390a4819250505095945050505050565b6040517f08c379a00000000000000000000000000000000000000000000000000000000081526004016105b6906118fa565b60405180910390fd5b5f5a90505f60045f8581526020019081526020015f205f015f9054906101000a900467ffffffffffffffff1667ffffffffffffffff1603610635576040517f08c379a000000000000000000000000000000000000000000000000000000000815260040161062c90611a27565b60405180910390fd5b5f60045f8581526020019081526020015f206040518060600160405290815f82015f9054906101000a900467ffffffffffffffff1667ffffffffffffffff1667ffffffffffffffff1681526020015f820160089054906101000a900463ffffffff1663ffffffff1663ffffffff1681526020015f8201600c9054906101000a900463ffffffff1663ffffffff1663ffffffff168152505090505f816040015163ffffffff1667ffffffffffffffff8111156106f3576106f2611873565b5b6040519080825280602002602001820160405280156107215781602001602082028036833780820191505090505b5090505f5b826040015163ffffffff1681101561078f57858160405160200161074b929190611a45565b604051602081830303815290604052805190602001205f1c82828151811061077657610775611a6c565b5b6020026020010181815250508080600101915050610726565b505f80631fe543e360e01b87846040516024016107ad929190611b50565b604051602081830303815290604052907bffffffffffffffffffffffffffffffffffffffffffffffffffffffff19166020820180517bffffffffffffffffffffffffffffffffffffffffffffffffffffffff838183161783525050505090505f8673ffffffffffffffffffffffffffffffffffffffff16856020015163ffffffff168360405161083d9190611bd0565b5f604051808303815f8787f1925050503d805f8114610877576040519150601f19603f3d011682016040523d82523d5f602084013e61087c565b606091505b505090505f7f00000000000000000000000000000000000000000000000000000000000000006bffffffffffffffffffffffff165a886108bc9190611be6565b6108c69190611c19565b7f00000000000000000000000000000000000000000000000000000000000000006bffffffffffffffffffffffff166108ff9190611c5a565b9050806bffffffffffffffffffffffff1660035f885f015167ffffffffffffffff1667ffffffffffffffff1681526020019081526020015f205f0160149054906101000a90046bffffffffffffffffffffffff166bffffffffffffffffffffffff161015610999576040517ff4d678b800000000000000000000000000000000000000000000000000000000815260040160405180910390fd5b8060035f885f015167ffffffffffffffff1667ffffffffffffffff1681526020019081526020015f205f0160148282829054906101000a90046bffffffffffffffffffffffff166109ea9190611c8d565b92506101000a8154816bffffffffffffffffffffffff02191690836bffffffffffffffffffffffff16021790555060045f8a81526020019081526020015f205f8082015f6101000a81549067ffffffffffffffff02191690555f820160086101000a81549063ffffffff02191690555f8201600c6101000a81549063ffffffff02191690555050887f7dffc5ae5ee4e2e4df1651cf6ad329a73cebdb728f37ea0187b9b17e036756e48a8385604051610aa593929190611ccc565b60405180910390a2505050505050505050565b6040517f08c379a0000000000000000000000000000000000000000000000000000000008152600401610aea906118fa565b60405180910390fd5b6040517f08c379a0000000000000000000000000000000000000000000000000000000008152600401610b25906118fa565b60405180910390fd5b5f805f81819054906101000a900467ffffffffffffffff1680929190610b5390611d01565b91906101000a81548167ffffffffffffffff021916908367ffffffffffffffff1602179055505060405180604001604052803373ffffffffffffffffffffffffffffffffffffffff1681526020015f6bffffffffffffffffffffffff1681525060035f805f9054906101000a900467ffffffffffffffff1667ffffffffffffffff1667ffffffffffffffff1681526020019081526020015f205f820151815f015f6101000a81548173ffffffffffffffffffffffffffffffffffffffff021916908373ffffffffffffffffffffffffffffffffffffffff1602179055506020820151815f0160146101000a8154816bffffffffffffffffffffffff02191690836bffffffffffffffffffffffff1602179055509050505f8054906101000a900467ffffffffffffffff1667ffffffffffffffff167f464722b4166576d3dcbba877b999bc35cf911f4eaf434b7eba68fa113951d0bf33604051610cb69190611d30565b60405180910390a25f8054906101000a900467ffffffffffffffff16905090565b7f000000000000000000000000000000000000000000000000000000000000000081565b5f805f60605f73ffffffffffffffffffffffffffffffffffffffff1660035f8767ffffffffffffffff1667ffffffffffffffff1681526020019081526020015f205f015f9054906101000a900473ffffffffffffffffffffffffffffffffffffffff1673ffffffffffffffffffffffffffffffffffffffff1603610dab576040517f1f6a65b600000000000000000000000000000000000000000000000000000000815260040160405180910390fd5b60035f8667ffffffffffffffff1667ffffffffffffffff1681526020019081526020015f205f0160149054906101000a90046bffffffffffffffffffffffff165f60035f8867ffffffffffffffff1667ffffffffffffffff1681526020019081526020015f205f015f9054906101000a900473ffffffffffffffffffffffffffffffffffffffff165f67ffffffffffffffff811115610e4d57610e4c611873565b5b604051908082528060200260200182016040528015610e7b5781602001602082028036833780820191505090505b5093509350935093509193509193565b5f73ffffffffffffffffffffffffffffffffffffffff1660035f8467ffffffffffffffff1667ffffffffffffffff1681526020019081526020015f205f015f9054906101000a900473ffffffffffffffffffffffffffffffffffffffff1673ffffffffffffffffffffffffffffffffffffffff1603610f36576040517f1f6a65b600000000000000000000000000000000000000000000000000000000815260040160405180910390fd5b5f60035f8467ffffffffffffffff1667ffffffffffffffff1681526020019081526020015f205f0160149054906101000a90046bffffffffffffffffffffffff1690508160035f8567ffffffffffffffff1667ffffffffffffffff1681526020019081526020015f205f0160148282829054906101000a90046bffffffffffffffffffffffff16610fc79190611d49565b92506101000a8154816bffffffffffffffffffffffff02191690836bffffffffffffffffffffffff1602179055508267ffffffffffffffff167fd39ec07f4e209f627a4c427971473820dc129761ba28de8906bd56f57101d4f882848461102e9190611d49565b60405161103c929190611dc1565b60405180910390a2505050565b815f60035f8367ffffffffffffffff1667ffffffffffffffff1681526020019081526020015f205f015f9054906101000a900473ffffffffffffffffffffffffffffffffffffffff1690505f73ffffffffffffffffffffffffffffffffffffffff168173ffffffffffffffffffffffffffffffffffffffff16036110f9576040517f1f6a65b600000000000000000000000000000000000000000000000000000000815260040160405180910390fd5b8073ffffffffffffffffffffffffffffffffffffffff163373ffffffffffffffffffffffffffffffffffffffff161461116957806040517fd8a3fb520000000000000000000000000000000000000000000000000000000081526004016111609190611d30565b60405180910390fd5b8367ffffffffffffffff167fe8ed5b475a5b5987aa9165e8731bb78043f39eee32ec5a1169a89e27fcd498158460035f8867ffffffffffffffff1667ffffffffffffffff1681526020019081526020015f205f0160149054906101000a90046bffffffffffffffffffffffff166040516111e4929190611de8565b60405180910390a260035f8567ffffffffffffffff1667ffffffffffffffff1681526020019081526020015f205f8082015f6101000a81549073ffffffffffffffffffffffffffffffffffffffff02191690555f820160146101000a8154906bffffffffffffffffffffffff0219169055505050505050565b5f6040517f08c379a0000000000000000000000000000000000000000000000000000000008152600401611290906118fa565b60405180910390fd5b5f61ffff82169050919050565b6112af81611299565b82525050565b5f63ffffffff82169050919050565b6112cd816112b5565b82525050565b5f81519050919050565b5f82825260208201905092915050565b5f819050602082019050919050565b5f819050919050565b61130e816112fc565b82525050565b5f61131f8383611305565b60208301905092915050565b5f602082019050919050565b5f611341826112d3565b61134b81856112dd565b9350611356836112ed565b805f5b8381101561138657815161136d8882611314565b97506113788361132b565b925050600181019050611359565b5085935050505092915050565b5f6060820190506113a65f8301866112a6565b6113b360208301856112c4565b81810360408301526113c58184611337565b9050949350505050565b5f80fd5b5f67ffffffffffffffff82169050919050565b6113ef816113d3565b81146113f9575f80fd5b50565b5f8135905061140a816113e6565b92915050565b5f73ffffffffffffffffffffffffffffffffffffffff82169050919050565b5f61143982611410565b9050919050565b6114498161142f565b8114611453575f80fd5b50565b5f8135905061146481611440565b92915050565b5f80604083850312156114805761147f6113cf565b5b5f61148d858286016113fc565b925050602061149e85828601611456565b9150509250929050565b5f6bffffffffffffffffffffffff82169050919050565b6114c8816114a8565b82525050565b5f6020820190506114e15f8301846114bf565b92915050565b6114f0816112fc565b81146114fa575f80fd5b50565b5f8135905061150b816114e7565b92915050565b61151a81611299565b8114611524575f80fd5b50565b5f8135905061153581611511565b92915050565b611544816112b5565b811461154e575f80fd5b50565b5f8135905061155f8161153b565b92915050565b5f805f805f60a0868803121561157e5761157d6113cf565b5b5f61158b888289016114fd565b955050602061159c888289016113fc565b94505060406115ad88828901611527565b93505060606115be88828901611551565b92505060806115cf88828901611551565b9150509295509295909350565b5f819050919050565b6115ee816115dc565b82525050565b5f6020820190506116075f8301846115e5565b92915050565b611616816115dc565b8114611620575f80fd5b50565b5f813590506116318161160d565b92915050565b5f806040838503121561164d5761164c6113cf565b5b5f61165a85828601611623565b925050602061166b85828601611456565b9150509250929050565b5f6020828403121561168a576116896113cf565b5b5f611697848285016113fc565b91505092915050565b6116a9816113d3565b82525050565b5f6020820190506116c25f8301846116a0565b92915050565b6116d18161142f565b82525050565b5f81519050919050565b5f82825260208201905092915050565b5f819050602082019050919050565b6117098161142f565b82525050565b5f61171a8383611700565b60208301905092915050565b5f602082019050919050565b5f61173c826116d7565b61174681856116e1565b9350611751836116f1565b805f5b83811015611781578151611768888261170f565b975061177383611726565b925050600181019050611754565b5085935050505092915050565b5f6080820190506117a15f8301876114bf565b6117ae60208301866116a0565b6117bb60408301856116c8565b81810360608301526117cd8184611732565b905095945050505050565b6117e1816114a8565b81146117eb575f80fd5b50565b5f813590506117fc816117d8565b92915050565b5f8060408385031215611818576118176113cf565b5b5f611825858286016113fc565b9250506020611836858286016117ee565b9150509250929050565b5f8115159050919050565b61185481611840565b82525050565b5f60208201905061186d5f83018461184b565b92915050565b7f4e487b71000000000000000000000000000000000000000000000000000000005f52604160045260245ffd5b5f82825260208201905092915050565b7f6e6f7420696d706c656d656e74656400000000000000000000000000000000005f82015250565b5f6118e4600f836118a0565b91506118ef826118b0565b602082019050919050565b5f6020820190508181035f830152611911816118d8565b9050919050565b7f4e487b71000000000000000000000000000000000000000000000000000000005f52601160045260245ffd5b5f61194f826115dc565b91507fffffffffffffffffffffffffffffffffffffffffffffffffffffffffffffffff820361198157611980611918565b5b600182019050919050565b5f60a08201905061199f5f8301886115e5565b6119ac60208301876115e5565b6119b960408301866112a6565b6119c660608301856112c4565b6119d360808301846112c4565b9695505050505050565b7f6e6f6e6578697374656e742072657175657374000000000000000000000000005f82015250565b5f611a116013836118a0565b9150611a1c826119dd565b602082019050919050565b5f6020820190508181035f830152611a3e81611a05565b9050919050565b5f604082019050611a585f8301856115e5565b611a6560208301846115e5565b9392505050565b7f4e487b71000000000000000000000000000000000000000000000000000000005f52603260045260245ffd5b5f81519050919050565b5f82825260208201905092915050565b5f819050602082019050919050565b611acb816115dc565b82525050565b5f611adc8383611ac2565b60208301905092915050565b5f602082019050919050565b5f611afe82611a99565b611b088185611aa3565b9350611b1383611ab3565b805f5b83811015611b43578151611b2a8882611ad1565b9750611b3583611ae8565b925050600181019050611b16565b5085935050505092915050565b5f604082019050611b635f8301856115e5565b8181036020830152611b758184611af4565b90509392505050565b5f81519050919050565b5f81905092915050565b8281835e5f83830152505050565b5f611baa82611b7e565b611bb48185611b88565b9350611bc4818560208601611b92565b80840191505092915050565b5f611bdb8284611ba0565b915081905092915050565b5f611bf0826115dc565b9150611bfb836115dc565b9250828203905081811115611c1357611c12611918565b5b92915050565b5f611c23826115dc565b9150611c2e836115dc565b9250828202611c3c816115dc565b91508282048414831517611c5357611c52611918565b5b5092915050565b5f611c64826115dc565b9150611c6f836115dc565b9250828201905080821115611c8757611c86611918565b5b92915050565b5f611c97826114a8565b9150611ca2836114a8565b925082820390506bffffffffffffffffffffffff811115611cc657611cc5611918565b5b92915050565b5f606082019050611cdf5f8301866115e5565b611cec60208301856114bf565b611cf9604083018461184b565b949350505050565b5f611d0b826113d3565b915067ffffffffffffffff8203611d2557611d24611918565b5b600182019050919050565b5f602082019050611d435f8301846116c8565b92915050565b5f611d53826114a8565b9150611d5e836114a8565b925082820190506bffffffffffffffffffffffff811115611d8257611d81611918565b5b92915050565b5f819050919050565b5f611dab611da6611da1846114a8565b611d88565b6115dc565b9050919050565b611dbb81611d91565b82525050565b5f604082019050611dd45f830185611db2565b611de16020830184611db2565b9392505050565b5f604082019050611dfb5f8301856116c8565b611e086020830184611db2565b939250505056fea26469706673582212209c1c4743348b1132d70944aa0f5f71ada920196dc9b217d2479f3f0a52f98e8264736f6c63430008190033",
  "immutableReferences": {
    "2839": [
      {
        "length": 32,
        "start": 855
      },
      {
        "length": 32,
        "start": 2248
      }
    ],
    "2841": [
      {
        "length": 32,
        "start": 2179
      },
      {
        "length": 32,
        "start": 3289
      }
    ]
  },
  "source": "// SPDX-License-Identifier: MIT\n// A mock for testing code that relies on VRFCoordinatorV2.\npragma solidity ^0.8.0;\n\nimport \"@chainlink/contracts/src/v0.8/interfaces/LinkTokenInterface.sol\";\nimport \"@chainlink/contracts/src/v0.8/interfaces/VRFCoordinatorV2Interface.sol\";\nimport \"@chainlink/contracts/src/v0.8/VRFConsumerBaseV2.sol\";\n\ncontract VRFCoordinatorV2Mock is VRFCoordinatorV2Interface {\n  uint96 public immutable BASE_FEE;\n  uint96 public immutable GAS_PRICE_LINK;\n\n  error InvalidSubscription();\n  error InsufficientBalance();\n  error MustBeSubOwner(address owner);\n\n  event RandomWordsRequested(\n    bytes32 indexed keyHash,\n    uint256 requestId,\n    uint256 preSeed,\n    uint64 indexed subId,\n    uint16 minimumRequestConfirmations,\n    uint32 callbackGasLimit,\n    uint32 numWords,\n    address indexed sender\n  );\n  event RandomWordsFulfilled(uint256 indexed requestId, uint256 outputSeed, uint96 payment, bool success);\n  event SubscriptionCreated(uint64 indexed subId, address owner);\n  event SubscriptionFunded(uint64 indexed subId, uint256 oldBalance, uint256 newBalance);\n  event SubscriptionCanceled(uint64 indexed subId, address to, uint256 amount);\n\n  uint64 s_currentSubId;\n  uint256 s_nextRequestId = 1;\n  uint256 s_nextPreSeed = 100;\n  struct Subscription {\n    address owner;\n    uint96 balance;\n  }\n  mapping(uint64 => Subscription) s_subscriptions; /* subId */ /* subscription */\n\n  struct Request {\n    uint64 subId;\n    uint32 callbackGasLimit;\n    uint32 numWords;\n  }\n  mapping(uint256 => Request) s_requests; /* requestId */ /* request */\n\n  constructor(uint96 _baseFee, uint96 _gasPriceLink) {\n    BASE_FEE = _baseFee;\n    GAS_PRICE_LINK = _gasPriceLink;\n  }\n\n  /**\n   * @notice fulfillRandomWords fulfills the given request, sending the random words to the supplied\n   * @notice consumer.\n   *\n   * @dev This mock uses a simplified formula for calculating payment amount and gas usage, and does\n   * @dev not account for all edge cases handled in the real VRF coordinator. When making requests\n   * @dev against the real coordinator a small amount of additional LINK is required.\n   *\n   * @param _requestId the request to fulfill\n   * @param _consumer the VRF randomness consumer to send the result to\n   */\n  function fulfillRandomWords(uint256 _requestId, address _consumer) external {\n    uint256 startGas = gasleft();\n    if (s_requests[_requestId].subId == 0) {\n      revert(\"nonexistent request\");\n    }\n    Request memory req = s_requests[_requestId];\n\n    uint256[] memory words = new uint256[](req.numWords);\n    for (uint256 i = 0; i < req.numWords; i++) {\n      words[i] = uint256(keccak256(abi.encode(_requestId, i)));\n    }\n\n    VRFConsumerBaseV2 v;\n    bytes memory callReq = abi.encodeWithSelector(v.rawFulfillRandomWords.selector, _requestId, words);\n    (bool success, ) = _consumer.call{gas: req.callbackGasLimit}(callReq);\n\n    uint96 payment = uint96(BASE_FEE + ((startGas - gasleft()) * GAS_PRICE_LINK));\n    if (s_subscriptions[req.subId].balance < payment) {\n      revert InsufficientBalance();\n    }\n    s_subscriptions[req.subId].balance -= payment;\n    delete (s_requests[_requestId]);\n    emit RandomWordsFulfilled(_requestId, _requestId, payment, success);\n  }\n\n  /**\n   * @notice fundSubscription allows funding a subscription with an arbitrary amount for testing.\n   *\n   * @param _subId the subscription to fund\n   * @param _amount the amount to fund\n   */\n  function fundSubscription(uint64 _subId, uint96 _amount) public {\n    if (s_subscriptions[_subId].owner == address(0)) {\n      revert InvalidSubscription();\n    }\n    uint96 oldBalance = s_subscriptions[_subId].balance;\n    s_subscriptions[_subId].balance += _amount;\n    emit SubscriptionFunded(_subId, oldBalance, oldBalance + _amount);\n  }\n\n  function requestRandomWords(\n    bytes32 _keyHash,\n    uint64 _subId,\n    uint16 _minimumRequestConfirmations,\n    uint32 _callbackGasLimit,\n    uint32 _numWords\n  ) external override returns (uint256) {\n    if (s_subscriptions[_subId].owner == address(0)) {\n      revert InvalidSubscription();\n    }\n\n    uint256 requestId = s_nextRequestId++;\n    uint256 preSeed = s_nextPreSeed++;\n\n    s_requests[requestId] = Request({subId: _subId, callbackGasLimit: _callbackGasLimit, numWords: _numWords});\n\n    emit RandomWordsRequested(\n      _keyHash,\n      requestId,\n      preSeed,\n      _subId,\n      _minimumRequestConfirmations,\n      _callbackGasLimit,\n      _numWords,\n      msg.sender\n    );\n    return requestId;\n  }\n\n  function createSubscription() external override returns (uint64 _subId) {\n    s_currentSubId++;\n    s_subscriptions[s_currentSubId] = Subscription({owner: msg.sender, balance: 0});\n    emit SubscriptionCreated(s_currentSubId, msg.sender);\n    return s_currentSubId;\n  }\n\n  function getSubscription(uint64 _subId)\n    external\n    view\n    override\n    returns (\n      uint96 balance,\n      uint64 reqCount,\n      address owner,\n      address[] memory consumers\n    )\n  {\n    if (s_subscriptions[_subId].owner == address(0)) {\n      revert InvalidSubscription();\n    }\n    return (s_subscriptions[_subId].balance, 0, s_subscriptions[_subId].owner, new address[](0));\n  }\n\n  function cancelSubscription(uint64 _subId, address _to) external override onlySubOwner(_subId) {\n    emit SubscriptionCanceled(_subId, _to, s_subscriptions[_subId].balance);\n    delete (s_subscriptions[_subId]);\n  }\n\n  modifier onlySubOwner(uint64 _subId) {\n    address owner = s_subscriptions[_subId].owner;\n    if (owner == address(0)) {\n      revert InvalidSubscription();\n    }\n    if (msg.sender != owner) {\n      revert MustBeSubOwner(owner);\n    }\n    _;\n  }\n\n  function getRequestConfig()\n    external\n    pure\n    override\n    returns (\n      uint16,\n      uint32,\n      bytes32[] memory\n    )\n  {\n    return (3, 2000000, new bytes32[](0));\n  }\n\n  function addConsumer(uint64 _subId, address _consumer) external pure override {\n    revert(\"not implemented\");\n  }\n\n  function removeConsumer(uint64 _subId, address _consumer) external pure override {\n    revert(\"not implemented\");\n  }\n\n  function requestSubscriptionOwnerTransfer(uint64 _subId, address _newOwner) external pure override {\n    revert(\"not implemented\");\n  }\n\n  function acceptSubscriptionOwnerTransfer(uint64 _subId) external pure override {\n    revert(\"not implemented\");\n  }\n\n  function pendingRequestExists(uint64 _subId) external view returns (bool) {\n    revert(\"not implemented\");\n  }\n}",
  "sourcePath": "/media/fabric-orderer2/ethLink/Public/nodeLink/chainLink-eth/contracts/Oracle-contracts/contracts/test/VRFCoordinatorV2Mock.sol",
  "compiler": {
    "name": "solc",
    "version": "0.8.25+commit.b61c2a91.Emscripten.clang"
  },
  "schemaVersion": "3.4.16",
  "updatedAt": "2024-04-12T08:40:31.748Z",
  "devdoc": {
    "kind": "dev",
    "methods": {
      "createSubscription()": {
        "details": "You can manage the consumer set dynamically with addConsumer/removeConsumer.Note to fund the subscription, use transferAndCall. For exampleLINKTOKEN.transferAndCall(address(COORDINATOR),amount,abi.encode(subId));",
        "returns": {
          "_subId": "- A unique subscription id."
        }
      },
      "fulfillRandomWords(uint256,address)": {
        "details": "This mock uses a simplified formula for calculating payment amount and gas usage, and doesnot account for all edge cases handled in the real VRF coordinator. When making requestsagainst the real coordinator a small amount of additional LINK is required.",
        "params": {
          "_consumer": "the VRF randomness consumer to send the result to",
          "_requestId": "the request to fulfill"
        }
      },
      "fundSubscription(uint64,uint96)": {
        "params": {
          "_amount": "the amount to fund",
          "_subId": "the subscription to fund"
        }
      },
      "getRequestConfig()": {
        "returns": {
          "_0": "minimumRequestConfirmations global min for request confirmations",
          "_1": "maxGasLimit global max for request gas limit",
          "_2": "s_provingKeyHashes list of registered key hashes"
        }
      }
    },
    "version": 1
  },
  "userdoc": {
    "kind": "user",
    "methods": {
      "createSubscription()": {
        "notice": "Create a VRF subscription."
      },
      "fulfillRandomWords(uint256,address)": {
        "notice": "fulfillRandomWords fulfills the given request, sending the random words to the suppliedconsumer."
      },
      "fundSubscription(uint64,uint96)": {
        "notice": "fundSubscription allows funding a subscription with an arbitrary amount for testing."
      },
      "getRequestConfig()": {
        "notice": "Get configuration relevant for making requests"
      }
    },
    "version": 1
  }
}