{
  "contractName": "VRFConsumerV2",
  "abi": [
    {
      "inputs": [
        {
          "internalType": "uint64",
          "name": "subscriptionId",
          "type": "uint64"
        },
        {
          "internalType": "address",
          "name": "vrfCoordinator",
          "type": "address"
        },
        {
          "internalType": "address",
          "name": "link",
          "type": "address"
        },
        {
          "internalType": "bytes32",
          "name": "keyHash",
          "type": "bytes32"
        }
      ],
      "stateMutability": "nonpayable",
      "type": "constructor"
    },
    {
      "inputs": [
        {
          "internalType": "address",
          "name": "have",
          "type": "address"
        },
        {
          "internalType": "address",
          "name": "want",
          "type": "address"
        }
      ],
      "name": "OnlyCoordinatorCanFulfill",
      "type": "error"
    },
    {
      "anonymous": false,
      "inputs": [
        {
          "indexed": false,
          "internalType": "uint256[]",
          "name": "randomWords",
          "type": "uint256[]"
        }
      ],
      "name": "ReturnedRandomness",
      "type": "event"
    },
    {
      "inputs": [
        {
          "internalType": "uint256",
          "name": "requestId",
          "type": "uint256"
        },
        {
          "internalType": "uint256[]",
          "name": "randomWords",
          "type": "uint256[]"
        }
      ],
      "name": "rawFulfillRandomWords",
      "outputs": [],
      "stateMutability": "nonpayable",
      "type": "function"
    },
    {
      "inputs": [
        {
          "internalType": "uint256",
          "name": "",
          "type": "uint256"
        }
      ],
      "name": "s_randomWords",
      "outputs": [
        {
          "internalType": "uint256",
          "name": "",
          "type": "uint256"
        }
      ],
      "stateMutability": "view",
      "type": "function"
    },
    {
      "inputs": [],
      "name": "s_requestId",
      "outputs": [
        {
          "internalType": "uint256",
          "name": "",
          "type": "uint256"
        }
      ],
      "stateMutability": "view",
      "type": "function"
    },
    {
      "inputs": [],
      "name": "requestRandomWords",
      "outputs": [],
      "stateMutability": "nonpayable",
      "type": "function"
    }
  ],
  "bytecode": "0x610180604052620186a063ffffffff166101209063ffffffff16815250600361ffff166101409061ffff16815250600263ffffffff166101609063ffffffff1681525034801561004d575f80fd5b50604051610bc2380380610bc2833981810160405281019061006f9190610249565b828073ffffffffffffffffffffffffffffffffffffffff1660808173ffffffffffffffffffffffffffffffffffffffff1681525050508273ffffffffffffffffffffffffffffffffffffffff1660a08173ffffffffffffffffffffffffffffffffffffffff16815250508173ffffffffffffffffffffffffffffffffffffffff1660c08173ffffffffffffffffffffffffffffffffffffffff16815250508061010081815250503360025f6101000a81548173ffffffffffffffffffffffffffffffffffffffff021916908373ffffffffffffffffffffffffffffffffffffffff1602179055508367ffffffffffffffff1660e08167ffffffffffffffff1681525050505050506102ad565b5f80fd5b5f67ffffffffffffffff82169050919050565b61019b8161017f565b81146101a5575f80fd5b50565b5f815190506101b681610192565b92915050565b5f73ffffffffffffffffffffffffffffffffffffffff82169050919050565b5f6101e5826101bc565b9050919050565b6101f5816101db565b81146101ff575f80fd5b50565b5f81519050610210816101ec565b92915050565b5f819050919050565b61022881610216565b8114610232575f80fd5b50565b5f815190506102438161021f565b92915050565b5f805f80608085870312156102615761026061017b565b5b5f61026e878288016101a8565b945050602061027f87828801610202565b935050604061029087828801610202565b92505060606102a187828801610235565b91505092959194509250565b60805160a05160c05160e051610100516101205161014051610160516108b761030b5f395f61029c01525f61025a01525f61027b01525f61021801525f61023901525f50505f6101dc01525f818160c4015261011801526108b75ff3fe608060405234801561000f575f80fd5b506004361061004a575f3560e01c80631fe543e31461004e578063e0c862891461006a578063e89e106a14610074578063f6eaffc814610092575b5f80fd5b61006860048036038101906100639190610593565b6100c2565b005b610072610182565b005b61007c610323565b60405161008991906105fc565b60405180910390f35b6100ac60048036038101906100a79190610615565b610329565b6040516100b991906105fc565b60405180910390f35b7f000000000000000000000000000000000000000000000000000000000000000073ffffffffffffffffffffffffffffffffffffffff163373ffffffffffffffffffffffffffffffffffffffff161461017457337f00000000000000000000000000000000000000000000000000000000000000006040517f1cf993f400000000000000000000000000000000000000000000000000000000815260040161016b92919061067f565b60405180910390fd5b61017e8282610348565b5050565b60025f9054906101000a900473ffffffffffffffffffffffffffffffffffffffff1673ffffffffffffffffffffffffffffffffffffffff163373ffffffffffffffffffffffffffffffffffffffff16146101da575f80fd5b7f000000000000000000000000000000000000000000000000000000000000000073ffffffffffffffffffffffffffffffffffffffff16635d3b1d307f00000000000000000000000000000000000000000000000000000000000000007f00000000000000000000000000000000000000000000000000000000000000007f00000000000000000000000000000000000000000000000000000000000000007f00000000000000000000000000000000000000000000000000000000000000007f00000000000000000000000000000000000000000000000000000000000000006040518663ffffffff1660e01b81526004016102db95949392919061071a565b6020604051808303815f875af11580156102f7573d5f803e3d5ffd5b505050506040513d601f19601f8201168201806040525081019061031b919061077f565b600181905550565b60015481565b5f8181548110610337575f80fd5b905f5260205f20015f915090505481565b805f908051906020019061035d929190610399565b507fefb16d61046900da527008568620fb9f8420e2f5ed4de3bfbded5035c9362b0e8160405161038d9190610861565b60405180910390a15050565b828054828255905f5260205f209081019282156103d3579160200282015b828111156103d25782518255916020019190600101906103b7565b5b5090506103e091906103e4565b5090565b5b808211156103fb575f815f9055506001016103e5565b5090565b5f604051905090565b5f80fd5b5f80fd5b5f819050919050565b61042281610410565b811461042c575f80fd5b50565b5f8135905061043d81610419565b92915050565b5f80fd5b5f601f19601f8301169050919050565b7f4e487b71000000000000000000000000000000000000000000000000000000005f52604160045260245ffd5b61048d82610447565b810181811067ffffffffffffffff821117156104ac576104ab610457565b5b80604052505050565b5f6104be6103ff565b90506104ca8282610484565b919050565b5f67ffffffffffffffff8211156104e9576104e8610457565b5b602082029050602081019050919050565b5f80fd5b5f61051061050b846104cf565b6104b5565b90508083825260208201905060208402830185811115610533576105326104fa565b5b835b8181101561055c5780610548888261042f565b845260208401935050602081019050610535565b5050509392505050565b5f82601f83011261057a57610579610443565b5b813561058a8482602086016104fe565b91505092915050565b5f80604083850312156105a9576105a8610408565b5b5f6105b68582860161042f565b925050602083013567ffffffffffffffff8111156105d7576105d661040c565b5b6105e385828601610566565b9150509250929050565b6105f681610410565b82525050565b5f60208201905061060f5f8301846105ed565b92915050565b5f6020828403121561062a57610629610408565b5b5f6106378482850161042f565b91505092915050565b5f73ffffffffffffffffffffffffffffffffffffffff82169050919050565b5f61066982610640565b9050919050565b6106798161065f565b82525050565b5f6040820190506106925f830185610670565b61069f6020830184610670565b9392505050565b5f819050919050565b6106b8816106a6565b82525050565b5f67ffffffffffffffff82169050919050565b6106da816106be565b82525050565b5f61ffff82169050919050565b6106f6816106e0565b82525050565b5f63ffffffff82169050919050565b610714816106fc565b82525050565b5f60a08201905061072d5f8301886106af565b61073a60208301876106d1565b61074760408301866106ed565b610754606083018561070b565b610761608083018461070b565b9695505050505050565b5f8151905061077981610419565b92915050565b5f6020828403121561079457610793610408565b5b5f6107a18482850161076b565b91505092915050565b5f81519050919050565b5f82825260208201905092915050565b5f819050602082019050919050565b6107dc81610410565b82525050565b5f6107ed83836107d3565b60208301905092915050565b5f602082019050919050565b5f61080f826107aa565b61081981856107b4565b9350610824836107c4565b805f5b8381101561085457815161083b88826107e2565b9750610846836107f9565b925050600181019050610827565b5085935050505092915050565b5f6020820190508181035f8301526108798184610805565b90509291505056fea2646970667358221220634a5b70f8910f2be65a04a5c8b1e9e71b69340648d5003d9bb3486c7fa2fc1e64736f6c63430008190033",
  "immutableReferences": {
    "911": [
      {
        "length": 32,
        "start": 196
      },
      {
        "length": 32,
        "start": 280
      }
    ],
    "2712": [
      {
        "length": 32,
        "start": 476
      }
    ],
    "2717": [
      {
        "length": 32,
        "start": 569
      }
    ],
    "2719": [
      {
        "length": 32,
        "start": 536
      }
    ],
    "2722": [
      {
        "length": 32,
        "start": 635
      }
    ],
    "2725": [
      {
        "length": 32,
        "start": 602
      }
    ],
    "2728": [
      {
        "length": 32,
        "start": 668
      }
    ]
  },
  "source": "// SPDX-License-Identifier: MIT\n// An example of a consumer contract that relies on a subscription for funding.\npragma solidity ^0.8.7;\n\nimport \"@chainlink/contracts/src/v0.8/interfaces/LinkTokenInterface.sol\";\nimport \"@chainlink/contracts/src/v0.8/interfaces/VRFCoordinatorV2Interface.sol\";\nimport \"@chainlink/contracts/src/v0.8/VRFConsumerBaseV2.sol\";\n\n/**\n * @title The RandomNumberConsumerV2 contract\n * @notice A contract that gets random values from Chainlink VRF V2\n */\ncontract VRFConsumerV2 is VRFConsumerBaseV2 {\n  VRFCoordinatorV2Interface immutable COORDINATOR;\n  LinkTokenInterface immutable LINKTOKEN;\n\n  // Your subscription ID.\n  uint64 immutable s_subscriptionId;\n\n  // The gas lane to use, which specifies the maximum gas price to bump to.\n  // For a list of available gas lanes on each network,\n  // see https://docs.chain.link/docs/vrf-contracts/#configurations\n  bytes32 immutable s_keyHash;\n\n  // Depends on the number of requested values that you want sent to the\n  // fulfillRandomWords() function. Storing each word costs about 20,000 gas,\n  // so 100,000 is a safe default for this example contract. Test and adjust\n  // this limit based on the network that you select, the size of the request,\n  // and the processing of the callback request in the fulfillRandomWords()\n  // function.\n  uint32 immutable s_callbackGasLimit = 100000;\n\n  // The default is 3, but you can set this higher.\n  uint16 immutable s_requestConfirmations = 3;\n\n  // For this example, retrieve 2 random values in one request.\n  // Cannot exceed VRFCoordinatorV2.MAX_NUM_WORDS.\n  uint32 immutable s_numWords = 2;\n\n  uint256[] public s_randomWords;\n  uint256 public s_requestId;\n  address s_owner;\n\n  event ReturnedRandomness(uint256[] randomWords);\n\n  /**\n   * @notice Constructor inherits VRFConsumerBaseV2\n   *\n   * @param subscriptionId - the subscription ID that this contract uses for funding requests\n   * @param vrfCoordinator - coordinator, check https://docs.chain.link/docs/vrf-contracts/#configurations\n   * @param keyHash - the gas lane to use, which specifies the maximum gas price to bump to\n   */\n  constructor(\n    uint64 subscriptionId,\n    address vrfCoordinator,\n    address link,\n    bytes32 keyHash\n  ) VRFConsumerBaseV2(vrfCoordinator) {\n    COORDINATOR = VRFCoordinatorV2Interface(vrfCoordinator);\n    LINKTOKEN = LinkTokenInterface(link);\n    s_keyHash = keyHash;\n    s_owner = msg.sender;\n    s_subscriptionId = subscriptionId;\n  }\n\n  /**\n   * @notice Requests randomness\n   * Assumes the subscription is funded sufficiently; \"Words\" refers to unit of data in Computer Science\n   */\n  function requestRandomWords() external onlyOwner {\n    // Will revert if subscription is not set and funded.\n    s_requestId = COORDINATOR.requestRandomWords(\n      s_keyHash,\n      s_subscriptionId,\n      s_requestConfirmations,\n      s_callbackGasLimit,\n      s_numWords\n    );\n  }\n\n  /**\n   * @notice Callback function used by VRF Coordinator\n   *\n   * @param requestId - id of the request\n   * @param randomWords - array of random results from VRF Coordinator\n   */\n  function fulfillRandomWords(uint256 requestId, uint256[] memory randomWords) internal override {\n    s_randomWords = randomWords;\n    emit ReturnedRandomness(randomWords);\n  }\n\n  modifier onlyOwner() {\n    require(msg.sender == s_owner);\n    _;\n  }\n}",
  "sourcePath": "/media/fabric-orderer2/ethLink/Public/nodeLink/chainLink-eth/contracts/Oracle-contracts/contracts/VRFConsumerV2.sol",
  "compiler": {
    "name": "solc",
    "version": "0.8.25+commit.b61c2a91.Emscripten.clang"
  },
  "schemaVersion": "3.4.16",
  "updatedAt": "2024-04-12T08:40:31.720Z",
  "devdoc": {
    "kind": "dev",
    "methods": {
      "constructor": {
        "params": {
          "keyHash": "- the gas lane to use, which specifies the maximum gas price to bump to",
          "subscriptionId": "- the subscription ID that this contract uses for funding requests",
          "vrfCoordinator": "- coordinator, check https://docs.chain.link/docs/vrf-contracts/#configurations"
        }
      }
    },
    "title": "The RandomNumberConsumerV2 contract",
    "version": 1
  },
  "userdoc": {
    "kind": "user",
    "methods": {
      "constructor": {
        "notice": "Constructor inherits VRFConsumerBaseV2"
      },
      "requestRandomWords()": {
        "notice": "Requests randomness Assumes the subscription is funded sufficiently; \"Words\" refers to unit of data in Computer Science"
      }
    },
    "notice": "A contract that gets random values from Chainlink VRF V2",
    "version": 1
  }
}