{
  "contractName": "WeatherContract",
  "abi": [
    {
      "inputs": [],
      "stateMutability": "nonpayable",
      "type": "constructor"
    },
    {
      "anonymous": false,
      "inputs": [
        {
          "indexed": true,
          "internalType": "bytes32",
          "name": "id",
          "type": "bytes32"
        }
      ],
      "name": "ChainlinkCancelled",
      "type": "event"
    },
    {
      "anonymous": false,
      "inputs": [
        {
          "indexed": true,
          "internalType": "bytes32",
          "name": "id",
          "type": "bytes32"
        }
      ],
      "name": "ChainlinkFulfilled",
      "type": "event"
    },
    {
      "anonymous": false,
      "inputs": [
        {
          "indexed": true,
          "internalType": "bytes32",
          "name": "id",
          "type": "bytes32"
        }
      ],
      "name": "ChainlinkRequested",
      "type": "event"
    },
    {
      "anonymous": false,
      "inputs": [
        {
          "indexed": false,
          "internalType": "uint256",
          "name": "temperature",
          "type": "uint256"
        }
      ],
      "name": "TemperatureUpdated",
      "type": "event"
    },
    {
      "inputs": [],
      "name": "temperature",
      "outputs": [
        {
          "internalType": "uint256",
          "name": "",
          "type": "uint256"
        }
      ],
      "stateMutability": "view",
      "type": "function",
      "constant": true
    },
    {
      "inputs": [
        {
          "internalType": "string",
          "name": "city",
          "type": "string"
        }
      ],
      "name": "requestTemperatureData",
      "outputs": [],
      "stateMutability": "nonpayable",
      "type": "function"
    },
    {
      "inputs": [
        {
          "internalType": "bytes32",
          "name": "_requestId",
          "type": "bytes32"
        },
        {
          "internalType": "uint256",
          "name": "_temperature",
          "type": "uint256"
        }
      ],
      "name": "fulfill",
      "outputs": [],
      "stateMutability": "nonpayable",
      "type": "function"
    }
  ],
  "bytecode": "0x6080604052600160045534801561001557600080fd5b50610039730e3c944f32bcc729d292f8f0f55214533201110461009760201b60201c565b61005c73e15e23a8ba28745623382a54b999145c49e70bf96100db60201b60201c565b7f313265626632663163336434343163346231303732386137306263636563633860078190555067016345785d8a000060088190555061011f565b80600260006101000a81548173ffffffffffffffffffffffffffffffffffffffff021916908373ffffffffffffffffffffffffffffffffffffffff16021790555050565b80600360006101000a81548173ffffffffffffffffffffffffffffffffffffffff021916908373ffffffffffffffffffffffffffffffffffffffff16021790555050565b6114bb8061012e6000396000f3fe608060405234801561001057600080fd5b50600436106100415760003560e01c80634357855e14610046578063adccea1214610062578063ecd0125314610080575b600080fd5b610060600480360381019061005b9190610b89565b61009c565b005b61006a6101e6565b6040516100779190610bd8565b60405180910390f35b61009a60048036038101906100959190610d39565b6101ec565b005b816005600082815260200190815260200160002060009054906101000a900473ffffffffffffffffffffffffffffffffffffffff1673ffffffffffffffffffffffffffffffffffffffff163373ffffffffffffffffffffffffffffffffffffffff161461013e576040517f08c379a000000000000000000000000000000000000000000000000000000000815260040161013590610e05565b60405180910390fd5b6005600082815260200190815260200160002060006101000a81549073ffffffffffffffffffffffffffffffffffffffff0219169055807f7cc135e0cebb02c3480ae5d74d377283180a2601f8f644edf7987b009316c63a60405160405180910390a2816009819055507fcffdeebf2c9437151e9c0fcd8c7af21c1bc34f93ab22319000f164ac1be678eb6009546040516101d99190610bd8565b60405180910390a1505050565b60095481565b600061020260075430634357855e60e01b610282565b905061024e6040518060400160405280600481526020017f636974790000000000000000000000000000000000000000000000000000000081525083836102b39092919063ffffffff16565b61027d600660009054906101000a900473ffffffffffffffffffffffffffffffffffffffff16826008546102e6565b505050565b61028a610a82565b610292610a82565b6102a9858585846103b2909392919063ffffffff16565b9150509392505050565b6102ca82846080015161046290919063ffffffff16565b6102e181846080015161046290919063ffffffff16565b505050565b60008060045490506001816102fb9190610e54565b6004819055506000634042994660e01b60008087600001513089604001518760018c608001516000015160405160240161033c989796959493929190610f92565b604051602081830303815290604052907bffffffffffffffffffffffffffffffffffffffffffffffffffffffff19166020820180517bffffffffffffffffffffffffffffffffffffffffffffffffffffffff838183161783525050505090506103a786838684610487565b925050509392505050565b6103ba610a82565b6103ca856080015161010061061c565b508385600001818152505082856020019073ffffffffffffffffffffffffffffffffffffffff16908173ffffffffffffffffffffffffffffffffffffffff16815250508185604001907bffffffffffffffffffffffffffffffffffffffffffffffffffffffff191690817bffffffffffffffffffffffffffffffffffffffffffffffffffffffff191681525050849050949350505050565b61046f8260038351610686565b610482818361080b90919063ffffffff16565b505050565b6000308460405160200161049c9291906110d0565b604051602081830303815290604052805190602001209050846005600083815260200190815260200160002060006101000a81548173ffffffffffffffffffffffffffffffffffffffff021916908373ffffffffffffffffffffffffffffffffffffffff160217905550807fb5e6e01e79f91267dc17b4e6314d5d4d03593d2ceee0fbb452b750bd70ea5af960405160405180910390a2600260009054906101000a900473ffffffffffffffffffffffffffffffffffffffff1673ffffffffffffffffffffffffffffffffffffffff16634000aea08685856040518463ffffffff1660e01b8152600401610592939291906110fc565b6020604051808303816000875af11580156105b1573d6000803e3d6000fd5b505050506040513d601f19601f820116820180604052508101906105d59190611172565b610614576040517f08c379a000000000000000000000000000000000000000000000000000000000815260040161060b90611211565b60405180910390fd5b949350505050565b610624610aef565b60006020836106339190611260565b1461065f576020826106459190611260565b60206106519190611291565b8261065c9190610e54565b91505b81836020018181525050604051808452600081528281016020016040525082905092915050565b60178167ffffffffffffffff16116106bd576106b78160058460ff16901b60ff16178461082d90919063ffffffff16565b50610806565b60ff8167ffffffffffffffff1611610713576106ec601860058460ff16901b178461082d90919063ffffffff16565b5061070d8167ffffffffffffffff1660018561084d9092919063ffffffff16565b50610805565b61ffff8167ffffffffffffffff161161076a57610743601960058460ff16901b178461082d90919063ffffffff16565b506107648167ffffffffffffffff1660028561084d9092919063ffffffff16565b50610804565b63ffffffff8167ffffffffffffffff16116107c35761079c601a60058460ff16901b178461082d90919063ffffffff16565b506107bd8167ffffffffffffffff1660048561084d9092919063ffffffff16565b50610803565b6107e0601b60058460ff16901b178461082d90919063ffffffff16565b506108018167ffffffffffffffff1660088561084d9092919063ffffffff16565b505b5b5b5b505050565b610813610aef565b6108258384600001515184855161086f565b905092915050565b610835610aef565b610845838460000151518461095e565b905092915050565b610855610aef565b6108668485600001515185856109b4565b90509392505050565b610877610aef565b825182111561088557600080fd5b846020015182856108969190610e54565b11156108cb576108ca8560026108bb886020015188876108b69190610e54565b610a42565b6108c591906112c5565b610a5e565b5b6000808651805187602083010193508088870111156108ea5787860182525b60208701925050505b60208410610931578051825260208261090c9190610e54565b915060208161091b9190610e54565b905060208461092a9190611291565b93506108f3565b60006001856020036101000a03905080198251168184511681811785525050508692505050949350505050565b610966610aef565b8360200151831061098c5761098b846002866020015161098691906112c5565b610a5e565b5b835180516020858301018481538186036109a7576001820183525b5050508390509392505050565b6109bc610aef565b846020015184836109cd9190610e54565b11156109f5576109f485600286856109e59190610e54565b6109ef91906112c5565b610a5e565b5b6000600183610100610a07919061143a565b610a119190611291565b90508551838682010185831982511617815281518588011115610a345784870182525b505085915050949350505050565b600081831115610a5457829050610a58565b8190505b92915050565b600082600001519050610a71838361061c565b50610a7c838261080b565b50505050565b6040518060a0016040528060008019168152602001600073ffffffffffffffffffffffffffffffffffffffff16815260200160007bffffffffffffffffffffffffffffffffffffffffffffffffffffffff1916815260200160008152602001610ae9610aef565b81525090565b604051806040016040528060608152602001600081525090565b6000604051905090565b600080fd5b600080fd5b6000819050919050565b610b3081610b1d565b8114610b3b57600080fd5b50565b600081359050610b4d81610b27565b92915050565b6000819050919050565b610b6681610b53565b8114610b7157600080fd5b50565b600081359050610b8381610b5d565b92915050565b60008060408385031215610ba057610b9f610b13565b5b6000610bae85828601610b3e565b9250506020610bbf85828601610b74565b9150509250929050565b610bd281610b53565b82525050565b6000602082019050610bed6000830184610bc9565b92915050565b600080fd5b600080fd5b6000601f19601f8301169050919050565b7f4e487b7100000000000000000000000000000000000000000000000000000000600052604160045260246000fd5b610c4682610bfd565b810181811067ffffffffffffffff82111715610c6557610c64610c0e565b5b80604052505050565b6000610c78610b09565b9050610c848282610c3d565b919050565b600067ffffffffffffffff821115610ca457610ca3610c0e565b5b610cad82610bfd565b9050602081019050919050565b82818337600083830152505050565b6000610cdc610cd784610c89565b610c6e565b905082815260208101848484011115610cf857610cf7610bf8565b5b610d03848285610cba565b509392505050565b600082601f830112610d2057610d1f610bf3565b5b8135610d30848260208601610cc9565b91505092915050565b600060208284031215610d4f57610d4e610b13565b5b600082013567ffffffffffffffff811115610d6d57610d6c610b18565b5b610d7984828501610d0b565b91505092915050565b600082825260208201905092915050565b7f536f75726365206d75737420626520746865206f7261636c65206f662074686560008201527f2072657175657374000000000000000000000000000000000000000000000000602082015250565b6000610def602883610d82565b9150610dfa82610d93565b604082019050919050565b60006020820190508181036000830152610e1e81610de2565b9050919050565b7f4e487b7100000000000000000000000000000000000000000000000000000000600052601160045260246000fd5b6000610e5f82610b53565b9150610e6a83610b53565b9250828201905080821115610e8257610e81610e25565b5b92915050565b600073ffffffffffffffffffffffffffffffffffffffff82169050919050565b6000610eb382610e88565b9050919050565b610ec381610ea8565b82525050565b610ed281610b1d565b82525050565b60007fffffffff0000000000000000000000000000000000000000000000000000000082169050919050565b610f0d81610ed8565b82525050565b600081519050919050565b600082825260208201905092915050565b60005b83811015610f4d578082015181840152602081019050610f32565b60008484015250505050565b6000610f6482610f13565b610f6e8185610f1e565b9350610f7e818560208601610f2f565b610f8781610bfd565b840191505092915050565b600061010082019050610fa8600083018b610eba565b610fb5602083018a610bc9565b610fc26040830189610ec9565b610fcf6060830188610eba565b610fdc6080830187610f04565b610fe960a0830186610bc9565b610ff660c0830185610bc9565b81810360e08301526110088184610f59565b90509998505050505050505050565b6000819050919050565b600061103c61103761103284610e88565b611017565b610e88565b9050919050565b600061104e82611021565b9050919050565b600061106082611043565b9050919050565b60008160601b9050919050565b600061107f82611067565b9050919050565b600061109182611074565b9050919050565b6110a96110a482611055565b611086565b82525050565b6000819050919050565b6110ca6110c582610b53565b6110af565b82525050565b60006110dc8285611098565b6014820191506110ec82846110b9565b6020820191508190509392505050565b60006060820190506111116000830186610eba565b61111e6020830185610bc9565b81810360408301526111308184610f59565b9050949350505050565b60008115159050919050565b61114f8161113a565b811461115a57600080fd5b50565b60008151905061116c81611146565b92915050565b60006020828403121561118857611187610b13565b5b60006111968482850161115d565b91505092915050565b7f756e61626c6520746f207472616e73666572416e6443616c6c20746f206f726160008201527f636c650000000000000000000000000000000000000000000000000000000000602082015250565b60006111fb602383610d82565b91506112068261119f565b604082019050919050565b6000602082019050818103600083015261122a816111ee565b9050919050565b7f4e487b7100000000000000000000000000000000000000000000000000000000600052601260045260246000fd5b600061126b82610b53565b915061127683610b53565b92508261128657611285611231565b5b828206905092915050565b600061129c82610b53565b91506112a783610b53565b92508282039050818111156112bf576112be610e25565b5b92915050565b60006112d082610b53565b91506112db83610b53565b92508282026112e981610b53565b91508282048414831517611300576112ff610e25565b5b5092915050565b60008160011c9050919050565b6000808291508390505b600185111561135e5780860481111561133a57611339610e25565b5b60018516156113495780820291505b808102905061135785611307565b945061131e565b94509492505050565b6000826113775760019050611433565b816113855760009050611433565b816001811461139b57600281146113a5576113d4565b6001915050611433565b60ff8411156113b7576113b6610e25565b5b8360020a9150848211156113ce576113cd610e25565b5b50611433565b5060208310610133831016604e8410600b84101617156114095782820a90508381111561140457611403610e25565b5b611433565b6114168484846001611314565b9250905081840481111561142d5761142c610e25565b5b81810290505b9392505050565b600061144582610b53565b915061145083610b53565b925061147d7fffffffffffffffffffffffffffffffffffffffffffffffffffffffffffffffff8484611367565b90509291505056fea264697066735822122020f02ef0d732ea6ce42fa0a0a58d7432a6d50fca53cfb00931cbc678c41de95d64736f6c63430008130033",
  "immutableReferences": {},
  "source": "// SPDX-License-Identifier: MIT\r\npragma solidity ^0.8.0;\r\n\r\nimport \"@chainlink/contracts/src/v0.8/ChainlinkClient.sol\";\r\n\r\ncontract WeatherContract is ChainlinkClient {\r\n    using Chainlink for Chainlink.Request;\r\n\r\n    // Specify the Oracle address and Job ID\r\n    address private oracle;\r\n    bytes32 private jobId;\r\n    uint256 private fee;\r\n\r\n    // Variable to store the temperature\r\n    uint256 public temperature;\r\n\r\n    // Event to signal the temperature was updated\r\n    event TemperatureUpdated(uint256 temperature);\r\n\r\n    constructor() {\r\n        //setPublicChainlinkToken(); // Set the LINK token contract address\r\n        setChainlinkToken(0x0E3c944F32BCc729D292F8F0F552145332011104);\r\n        setChainlinkOracle(0xe15e23a8ba28745623382a54b999145C49E70bF9);\r\n        jobId = \"12ebf2f1c3d441c4b10728a70bccecc8\";\r\n        fee = 0.1 * 10 ** 18; // 0.1 LINK\r\n    }\r\n\r\n    // Function to request temperature data\r\n    function requestTemperatureData(string memory city) public {\r\n        Chainlink.Request memory req = buildChainlinkRequest(jobId, address(this), this.fulfill.selector);\r\n        req.add(\"city\", city); // API endpoint might require a city parameter\r\n        sendChainlinkRequestTo(oracle, req, fee);\r\n    }\r\n\r\n    // Callback function for the Oracle's response\r\n    function fulfill(bytes32 _requestId, uint256 _temperature) public recordChainlinkFulfillment(_requestId) {\r\n        temperature = _temperature;\r\n        emit TemperatureUpdated(temperature);\r\n    }\r\n}\r\n",
  "sourcePath": "/media/fabric-orderer2/ethLink/Public/nodeLink/chainLink-eth/contracts/demo2.sol",
  "compiler": {
    "name": "solc",
    "version": "0.8.19+commit.7dd6d404.Emscripten.clang"
  },
  "schemaVersion": "3.4.16",
  "updatedAt": "2024-04-03T12:34:58.555Z",
  "networkType": "ethereum",
  "devdoc": {
    "kind": "dev",
    "methods": {},
    "version": 1
  },
  "userdoc": {
    "kind": "user",
    "methods": {},
    "version": 1
  }
}